:100000000C9438010C9469010C9469010C946901F9
:100010000C9469010C9469010C9469010C946901B8
:100020000C9469010C9469010C9469010C946901A8
:100030000C9469010C9469010C9469010C94690198
:100040000C9469010C9469010C9469010C94690188
:100050000C9469010C9469010C9469010C94F504E9
:100060000C9469010C9469010C9469010C94690168
:100070000C9469010C9469010C9469010C94690158
:100080000C9469010C9469010C9469010C94690148
:100090000C9469010C9469010C9469010C94690138
:1000A0000C9469010C9469010C9469010C94690128
:1000B0000C9469010C9469010C9469010C94690118
:1000C0000C9469010C9469010C9469010C94690108
:1000D0000C9469010C9469010C9469010C946901F8
:1000E0000C9469010C9484020C94BB020C946E0273
:1000F0000C9464020C94FE010C9476020C94490258
:100100000C9480020C945B020C9431030C94530207
:100110000C94A4070C945E020C947C020C9489024B
:100120000C9468020C948A020C944F020C942C03D9
:100130000C9430030C948E020C94A6040C942E089C
:100140000C9457020C9472020C94EC0200002100F3
:10015000240027002A002D00300033000101000098
:10016000040107010A0100002200250028002B00DD
:100170002E003100340002010000050108010B01CE
:10018000000020002300260029002C002F00320050
:100190000001000003010601090105050505070529
:1001A00008080808020202020A0A080804040404F3
:1001B000010101010101010103030303030303031F
:1001C000040707070C0C0C0C0C0C0C0C02020202AE
:1001D00006060606060606060B0B0B0B0B0B0B0B97
:1001E0000102102020080810204010204080020149
:1001F000020108040201010204081020408080402E
:10020000201008040201800402018040201008042C
:1002100002010804020101020408102040800102CA
:1002200004081020408000000A0B02090C0D0E0883
:1002300007030401000000000000000000000000AF
:1002400000000000000000000000000000000000AE
:10025000000012111000000000000000000000006B
:10026000000000000000000000000000A4072E08AD
:1002700011241FBECFEFD1E2DEBFCDBF00E00CBF27
:1002800023E0ACE6B2E001C01D92A630B207E1F770
:1002900012E0A0E0B2E0E0EEF4E100E00BBF02C04B
:1002A00007900D92AC36B107D9F711E0C7E3D1E062
:1002B00000E006C021970109802FFE010E94370847
:1002C000C633D10780E00807A9F70E943F050C94C8
:1002D0005E0A0C94000096E0899FD0011124A55875
:1002E000BD4F90967C936E935F9791E091969C930F
:1002F0009197E091E802F091E9029091E702992349
:1003000039F0309751F0811108C08091970219940B
:10031000309719F05C968C91FACF0895CF92DF92C6
:10032000EF92FF920F931F9396E0899FF0011124A3
:10033000E558FD4F11A2278D30A12130310551F133
:1003400078F02230310509F451C02330310509F429
:1003500052C01F910F91FF90EF90DF90CF900895C2
:100360006623B9F361E070E00E946B012FB7F89447
:100370008091770290917802A0917902B0917A02EF
:100380002FBF8093D3029093D402A093D502B09351
:10039000D602DFCF9FB7F894C0907702D090780252
:1003A000E0907902F0907A029FBF0091D302109101
:1003B000D4022091D5023091D602C01AD10AE20AA5
:1003C000F30A0091E5021091E60230E020E00C15FE
:1003D0001D052E053F0550F462E070E01F910F915E
:1003E000FF90EF90DF90CF900C946B016111B1CF33
:1003F00063E070E0F3CF70E060E0F0CFAF92BF92C7
:10040000CF92DF92EF92FF920F931F93CF93DF93E0
:100410006C017B018B01040F151FEB015E01AE180F
:10042000BF08C017D10759F06991D601ED91FC9131
:100430000190F081E02DC6011995892B79F7C5014E
:10044000DF91CF911F910F91FF90EF90DF90CF90B0
:10045000BF90AF9008958150823108F05AC0E82FC4
:10046000F0E08827E95CFD4F8F4F0C943708570266
:100470005B0249024F02530289025E026402680273
:100480006E02720276027C028002890284028A0273
:100490008E02809180008F778093800008958091F4
:1004A00080008F7DF9CF80918000877FF5CF84B564
:1004B0008F7784BD089584B58F7DFBCF8091B00088
:1004C0008F778093B00008958091B0008F7DF9CF31
:1004D000809190008F778093900008958091900094
:1004E0008F7DF9CF80919000877FF5CF8091A0001C
:1004F0008F778093A00008958091A0008F7DF9CF21
:100500008091A000877FF5CF809120018F77809325
:1005100020010895809120018F7DF9CF80912001E5
:10052000877FF5CFCF93DF93282F30E0F901EA5D85
:10053000FD4F8491F901E052FE4FD491F901E65646
:10054000FE4FC491CC23A1F081110E942B02EC2F0D
:10055000F0E0EE0FFF1FE058FE4FA591B491EC9133
:10056000ED2381E090E009F480E0DF91CF910895E0
:1005700080E090E0FACF862F0C9492021F93CF93E5
:10058000DF93282F30E0F901EA5DFD4F8491F901F6
:10059000E052FE4FD491F901E656FE4FC491CC23B0
:1005A000A9F0162F81110E942B02EC2FF0E0EE0F24
:1005B000FF1FEA59FE4FA591B4918FB7F894EC91C3
:1005C000111108C0D095DE23DC938FBFDF91CF914E
:1005D0001F910895DE2BF8CF862F642F0C94BE0256
:1005E000CF93DF9390E0FC01E052FE4F24918656BA
:1005F0009E4FFC0184918823C9F090E0880F991FD9
:10060000FC01E45BFE4FA591B491FC01EA59FE4F59
:10061000C591D49161110DC09FB7F8948C9120952C
:1006200082238C938881282328839FBFDF91CF91D9
:100630000895623051F49FB7F8943C91822F8095D1
:1006400083238C93E8812E2BEFCF8FB7F894EC9116
:100650002E2B2C938FBFEACF862F642F0C94F002A1
:10066000089590E080E00895FC0101900020E9F7F2
:100670003197AF01481B590BBC018AEE92E00C94F4
:10068000FE01CF93DF93EC0188819981009711F0EF
:100690000E94DB08198218821D821C821B821A822A
:1006A000DF91CF910895CF93DF93EC0160E08E81CD
:1006B0000E94BE0261E08E810E94BE0260E08E81D7
:1006C0000E94BE028BE891E00197F1F7DF91CF9194
:1006D0000895CF92DF92EF92FF920F931F93CF93E3
:1006E000DF936C017C0187E0E80EF11CD0E0C0E0F4
:1006F000062F10E0B8010C2E02C0759567950A947C
:10070000E2F76170F70181917F010E94BE0221969C
:10071000C430D10579F7C601DF91CF911F910F91B8
:10072000FF90EF90DF90CF900C945303CF92DF9225
:10073000EF92FF920F931F93CF93DF93EC01F62E6E
:10074000642F8C810E94BE028D818F3F19F060E082
:100750000E94BE020F2D10E08F8584FF25C06E0120
:1007600087E0C80ED11CF12CE12CB8010E2C02C080
:10077000759567950A94E2F76170F60181916F01B2
:100780000E94BE02FFEFEF1AFF0A88E0E816F104AC
:1007900061F7CE01DF91CF911F910F91FF90EF9004
:1007A000DF90CF900C945303B80184E07595679562
:1007B0008A95E1F7CE010E9469036F2DCE01DF918A
:1007C000CF911F910F91FF90EF90DF90CF900C94FD
:1007D000690340E0682F8AEE92E00C94960381E072
:1007E0000E94E9038BE39FE10197F1F70895CF930E
:1007F000DF93823029F49091F90298609093F90286
:100800008093FD021092FE0280E48093FF0280E15B
:100810008093000380E58093010361E08091EE0204
:100820000E94F0028091EF028F3F19F061E00E9478
:10083000F00261E08091F0020E94F002CAEED2E084
:100840009E012A5E32408091F90284FD0BC084E053
:1008500090E021962817390744F461E08E810E94C8
:10086000F002EECF88E090E0F4CF8BE39DE00197BB
:10087000F1F760E08091EE020E94BE0260E080919C
:10088000F0020E94BE028091EF028F3F19F060E0FB
:100890000E94BE028091F90284FD34C063E08AEEBA
:1008A00092E00E946903CBE4D6E4CE010197F1F710
:1008B00063E08AEE92E00E9469032197F1F763E01A
:1008C0008AEE92E00E94690383E592E00197F1F7D6
:1008D00062E08AEE92E00E9469038091F9028062F0
:1008E0000E94E90384E08093FA028CE00E94E9030D
:1008F0000E94EF0382E08093FB0286E0DF91CF91BC
:100900000C94E90380620E94E9038BE496E401976A
:10091000F1F78091F90280620E94E90383E592E099
:100920000197F1F78091F90280620E94E903D5CF27
:100930009091FD02891710F08FEF890FE82FF0E0FA
:10094000E651FD4F848980680C94E90341E00E94E0
:10095000960381E090E008950F931F93CF93DF9368
:10096000EC0188819981009759F02A813B812617F3
:10097000370730F081E0DF91CF911F910F910895FB
:100980008B016F5F7F4F0E946409009759F0998334
:1009900088831B830A832C813D81232B59F7FC011B
:1009A0001082E8CF80E0E7CFEF92FF920F931F9382
:1009B000CF93DF93EC017B018A01BA010E94AC0462
:1009C00081110BC0CE010E944103CE01DF91CF9176
:1009D0001F910F91FF90EF9008951D830C83B70135
:1009E000888199810E94570AF0CF1F920F920FB60B
:1009F0000F9211242F933F938F939F93AF93BF93A5
:100A00008091770290917802A0917902B0917A0258
:100A10003091700223E0230F2D3758F50196A11D68
:100A2000B11D209370028093770290937802A09377
:100A30007902B0937A0280916C0290916D02A0913C
:100A40006E02B0916F020196A11DB11D80936C02E0
:100A500090936D02A0936E02B0936F02BF91AF911D
:100A60009F918F913F912F910F900FBE0F901F90EC
:100A7000189526E8230F0296A11DB11DD2CFCF9362
:100A8000DF9300D000D01F921F92CDB7DEB77894CD
:100A900084B5826084BD84B5816084BD85B5826083
:100AA00085BD85B5816085BD80916E008160809334
:100AB0006E0010928100809181008260809381009D
:100AC00080918100816080938100809180008160AD
:100AD000809380008091B10084608093B100809108
:100AE000B00081608093B00080919100826080931B
:100AF000910080919100816080939100809190009D
:100B00008160809390008091A10082608093A10019
:100B10008091A10081608093A1008091A0008160FC
:100B20008093A000809121018260809321018091B7
:100B30002101816080932101809120018160809357
:100B4000200180917A00846080937A0080917A00FD
:100B5000826080937A0080917A00816080937A002D
:100B600080917A00806880937A001092C10082E0C0
:100B70000E94F7030E94EF0380E00E94980484E340
:100B800092E00E94340381E00E949804412C512C91
:100B90003201439430E0A32E30E0B32E51E0509365
:100BA000E7028FB7F89440917702509178026091F4
:100BB000790270917A028FBF8091D7029091D8020A
:100BC000A091D902B091DA02481B590B6A0B7B0B3A
:100BD0008091E3029091E402B0E0A0E084179507D1
:100BE000A607B707D8F610E08091E102181760F465
:100BF000E091DD02F091DE02E10FF11D62E0808103
:100C00000E94F0021F5FF0CF312C8091E202381673
:100C100008F061C0E32CF12CE091DF02F091E002DA
:100C2000EE0DFF1D61E080810E94F002E091DF0285
:100C3000F091E002EE0DFF1D60E080810E94BE0297
:100C4000D301C201032C04C0880F991FAA1FBB1F28
:100C50000A94D2F74C016C01C094D094212C80915D
:100C6000E102281608F5022D10E0E091DD02F09176
:100C7000DE02E00FF11F80810E9492020C5F1F4F85
:100C8000000F111FF801E558FD4F892B41F48081B9
:100C9000918188299929918380832394E0CF808151
:100CA00091818C219D21F7CFE091DF02F091E0024C
:100CB000EE0DFF1D61E080810E94BE028091DF0287
:100CC0009091E002E80EF91E60E0F70180810E9439
:100CD000F00233949ACF0BE712E07801F701878D89
:100CE00090A1892B31F4148E8FEF9FEF968F858F13
:100CF00011A296E0E90EF11CE7EBEE16E2E0FE062B
:100D000069F7912C8091E102981608F053C0812C6C
:100D1000C92CD12CCC0CDD1CC6018D579D4F6C010C
:100D20002091E202821608F043C0F60160817181D1
:100D3000082C02C0769567950A94E2F7929E90017E
:100D40001124280D311DEBE7F2E080E0458D568D32
:100D50002417350709F4F6C08F5F36968A30B1F74D
:100D600060FF24C0EBE7F2E090E080E0448D4111A9
:100D700018C0E091DB02F091DC02E20FF31F40812A
:100D800056E0589FF001599FF00D1124E558FD4F92
:100D9000448F368F258F10A2178E61E00E948E013E
:100DA00005C0019636968A30910501F78394B8CF35
:100DB0009394A8CF80E0F80191A19111892F0A5F47
:100DC0001F4FE016F106B9F79FB7F89440917702EC
:100DD000509178026091790270917A029FBF40939E
:100DE000D7025093D8026093D9027093DA02882315
:100DF00009F4D4CE80919C02882309F4CFCE80914F
:100E00009A0290919B02019709F0C8CEF090970248
:100E1000FF2009F4C3CEF3E2FF1609F443C05AE2FF
:100E2000F51609F45AC01A8219821C821B821E828E
:100E30001D8260917102709172026115710541F01D
:100E40004091750250917602CE0101960E94D40421
:100E5000FF8218860D811E810F5F1F4FB801CE01E2
:100E600001960E94AC0481115AC0CE0101960E94E5
:100E7000410369817A816115710509F45EC04D8174
:100E80005E8181E792E00E94D40489819A81009773
:100E900011F00E94DB0841E06F2D8AEE92E00E9483
:100EA000960314C00E94EF0380E00E94980484E33C
:100EB00092E00E94340381E00E94980450E040E0F8
:100EC0006AE472E081E792E00E94D404A114B104C4
:100ED00009F464CE0E9400005DCE8091750290916D
:100EE0007602892B51F064E472E080917102909156
:100EF00072020E944E0A892B51F00E94EF0380E09B
:100F00000E9498048BE492E00E943403DFCF0E9499
:100F1000EF0380E00E9498048BE592E0F5CF2981F1
:100F20003A818D819E81BE01695F7F4F820F931F41
:100F30000E94570A1E830D839CCF81E792E00E9496
:100F40004103A3CF61702ACF1092ED021092EC0200
:100F50008CE292E09093EB028093EA028DE0809322
:100F6000EE028FEF8093EF028CE08093F0028BE033
:100F70008093F1028AE08093F20289E08093F30289
:100F800088E08093F4021092F5021092F60210921B
:100F9000F7021092F8021092F90281E00E94F70322
:100FA00010927D02109281021092800210928202B1
:100FB00082E292E090937C0280937B02E7E9F2E088
:100FC0001082148213821582369682E0E33DF80780
:100FD000B9F784E092E09093DE028093DD0280E036
:100FE00092E09093E0028093DF0284E08093E1023C
:100FF0008093E20288E092E09093DC028093DB022F
:101000008AE090E09093E4028093E30284EF91E021
:101010009093E6028093E5021092E9021092E802B2
:101020001092D7021092D8021092D9021092DA02CE
:101030001092E702109272021092710210927402E2
:1010400010927302109276021092750250E040E006
:101050006AE472E081E792E00C94D404809171021A
:1010600090917202009711F00C94DB080895EE0F36
:10107000FF1F881F8BBF0790F691E02D19940F93E7
:101080001F93CF93DF938230910510F482E090E0BC
:10109000E0910403F091050330E020E0B0E0A0E02F
:1010A000309799F42115310509F44AC0281B390BF2
:1010B00024303105D8F58A819B816115710589F14C
:1010C000FB0193838283FE0111C040815181028123
:1010D000138148175907E0F04817590799F41097FA
:1010E00061F012960C93129713961C933296CF01CF
:1010F000DF91CF911F910F910895009304031093F6
:101100000503F4CF2115310551F04217530738F08C
:10111000A901DB019A01BD01DF01F801C1CFEF0197
:10112000F9CF9093050380930403CDCFFE01E20F26
:10113000F31F819391932250310939832883D7CFAC
:101140002091020330910303232B41F420911A02D2
:1011500030911B0230930303209302032091180265
:10116000309119022115310541F42DB73EB7409158
:101170001C0250911D02241B350BE0910203F091DB
:101180000303E217F307A0F42E1B3F0B28173907C0
:1011900078F0AC014E5F5F4F2417350748F04E0FD3
:1011A0005F1F5093030340930203819391939FCF5A
:1011B000F0E0E0E09CCFCF93DF930097E9F0FC01F3
:1011C000329713821282A0910403B0910503ED01BE
:1011D00030E020E01097A1F420813181820F931F2D
:1011E00020910203309103032817390709F061C0E9
:1011F000F0930303E0930203DF91CF910895EA0196
:10120000CE17DF07E8F54A815B819E014115510544
:10121000B1F7E901FB83EA8349915991C40FD51FC6
:10122000EC17FD0761F4808191810296840F951F70
:10123000E90199838883828193819B838A83F0E08B
:10124000E0E012968D919C9113970097B9F52D913E
:101250003C911197CD010296820F931F20910203BA
:10126000309103032817390739F6309751F510925A
:10127000050310920403B0930303A0930203BCCFB1
:10128000D383C28340815181840F951FC817D9072A
:1012900061F44E5F5F4F88819981480F591F5183D8
:1012A00040838A819B81938382832115310509F0D4
:1012B000B0CFF0930503E09304039ECFFD01DC0162
:1012C000C0CF13821282D7CF4F925F926F927F92DC
:1012D0008F929F92AF92BF92CF92DF92EF92FF9246
:1012E0000F931F93CF93DF938C01009799F4CB0159
:1012F000DF91CF911F910F91FF90EF90DF90CF90F2
:10130000BF90AF909F908F907F906F905F904F9025
:101310000C943F08FC01E60FF71F9C012250310995
:10132000E217F30708F4AEC0D901CD91DC91119713
:10133000C617D70720F1C530D10578F0CE01049744
:101340008617970750F0C61BD70B2297C193D193EE
:101350006D937C93CF010E94DB08C801DF91CF9190
:101360001F910F91FF90EF90DF90CF90BF90AF90C3
:101370009F908F907F906F905F904F9008955B014A
:10138000AC1ABD0A4C018C0E9D1EA0910403B091B5
:101390000503512C412CF12CE12C109731F5809153
:1013A0000203909103038815990509F05CC0461665
:1013B000570608F058C080911802909119020097C2
:1013C00041F48DB79EB740911C0250911D02841BC1
:1013D000950BE817F90708F055C0F0930303E09365
:1013E0000203F90171836083B8CF8D919C911197AD
:1013F00012966C90129713967C901397A815B905C6
:1014000059F56C0142E0C40ED11CCA14DB0420F172
:10141000AC014A195B09DA011296159780F06282D5
:10142000738251834083D9016D937C93E114F1045D
:1014300071F0D7011396FC93EE9312978ECF2296FC
:101440008C0F9D1FF90191838083F301EFCFF093FF
:101450000503E093040381CF4816590608F42C01D4
:101460007D01D3019ACFCB010E943F087C010097F8
:1014700049F0AE01B8010E94450AC8010E94DB088C
:1014800087016BCF10E000E068CFFB01DC0102C0F8
:1014900001900D9241505040D8F70895FB01DC01B6
:1014A0008D91019080190110D9F3990B0895FB01DA
:1014B000DC0101900D920020E1F7089511E0C7E3EF
:1014C000D1E000E006C0802FFE010E94370821967F
:1014D000011DC833D10780E00807A9F7F894FFCFB2
:1014E0001D1B19171F212325313233413635344254
:1014F000373839432A3023440000060380000000B7
:1015000000002C03EC02BB0200000000A604FE0158
:101510003103300320456E74657220506173737718
:101520006F726400313233343536002057726F6E7B
:10153000672050617373776F726400436F727265D6
:0C15400063742050617373776F72640055
:00000001FF
