:100000000C9438010C9469010C9469010C946901F9
:100010000C9469010C9469010C9469010C946901B8
:100020000C9469010C9469010C9469010C946901A8
:100030000C9469010C9469010C9469010C94690198
:100040000C9469010C9469010C9469010C94690188
:100050000C9469010C9469010C9469010C9472056B
:100060000C9469010C9469010C9469010C94690168
:100070000C9469010C9469010C9469010C94690158
:100080000C9469010C9469010C9469010C94690148
:100090000C9469010C9469010C9469010C94690138
:1000A0000C9469010C9469010C9469010C94690128
:1000B0000C9469010C9469010C9469010C94690118
:1000C0000C9469010C9469010C9469010C94690108
:1000D0000C9469010C9469010C9469010C946901F8
:1000E0000C9469010C9484020C94BB020C946E0273
:1000F0000C9464020C94C7040C94FE010C947602D8
:100100000C9449020C9480020C945B020C94310311
:100110000C9453020C945E020C947C020C948902A1
:100120000C9442080C9468020C948A020C944F02BE
:100130000C942C030C9430030C948E020C94C00885
:100140000C9457020C9472020C94EC0200002100F3
:10015000240027002A002D00300033000101000098
:10016000040107010A0100002200250028002B00DD
:100170002E003100340002010000050108010B01CE
:10018000000020002300260029002C002F00320050
:100190000001000003010601090105050505070529
:1001A00008080808020202020A0A080804040404F3
:1001B000010101010101010103030303030303031F
:1001C000040707070C0C0C0C0C0C0C0C02020202AE
:1001D00006060606060606060B0B0B0B0B0B0B0B97
:1001E0000102102020080810204010204080020149
:1001F000020108040201010204081020408080402E
:10020000201008040201800402018040201008042C
:1002100002010804020101020408102040800102CA
:1002200004081020408000000A0B02090C0D0E0883
:1002300007030401000000000000000000000000AF
:1002400000000000000000000000000000000000AE
:10025000000012111000000000000000000000006B
:100260000000000000000000000000004208C0087C
:1002700011241FBECFEFD1E2DEBFCDBF00E00CBF27
:1002800022E0A6E3B2E001C01D92AC3DB207E1F767
:1002900012E0A0E0B2E0EEE0F7E100E00BBF02C048
:1002A00007900D92A633B107D9F711E0C7E3D1E06B
:1002B00000E006C021970109802FFE010E9443093A
:1002C000C633D10780E00807A9F70E94BC050C944B
:1002D000750B0C94000096E0899FD0011124AF5A51
:1002E000BD4F90967C936E935F9791E091969C930F
:1002F0009197E091BE02F091BF029091BD029923C7
:1003000039F0309751F0811108C080916D02199435
:10031000309719F05C968C91FACF0895CF92DF92C6
:10032000EF92FF920F931F9396E0899FF0011124A3
:10033000EF5AFD4F11A2278D30A12130310551F127
:1003400078F02230310509F451C02330310509F429
:1003500052C01F910F91FF90EF90DF90CF900895C2
:100360006623B9F361E070E00E946B012FB7F89447
:1003700080914D0290914E02A0914F02B091500297
:100380002FBF8093A9029093AA02A093AB02B093CF
:10039000AC02DFCF9FB7F894C0904D02D0904E02D0
:1003A000E0904F02F09050029FBF0091A90210917F
:1003B000AA022091AB023091AC02C01AD10AE20A23
:1003C000F30A0091BB021091BC0230E020E00C1552
:1003D0001D052E053F0550F462E070E01F910F915E
:1003E000FF90EF90DF90CF900C946B016111B1CF33
:1003F00063E070E0F3CF70E060E0F0CFAF92BF92C7
:10040000CF92DF92EF92FF920F931F93CF93DF93E0
:100410006C017B018B01040F151FEB015E01AE180F
:10042000BF08C017D10759F06991D601ED91FC9131
:100430000190F081E02DC6011995892B79F7C5014E
:10044000DF91CF911F910F91FF90EF90DF90CF90B0
:10045000BF90AF9008958150823108F05AC0E82FC4
:10046000F0E08827E95CFD4F8F4F0C944309570259
:100470005B0249024F02530289025E026402680273
:100480006E02720276027C028002890284028A0273
:100490008E02809180008F778093800008958091F4
:1004A00080008F7DF9CF80918000877FF5CF84B564
:1004B0008F7784BD089584B58F7DFBCF8091B00088
:1004C0008F778093B00008958091B0008F7DF9CF31
:1004D000809190008F778093900008958091900094
:1004E0008F7DF9CF80919000877FF5CF8091A0001C
:1004F0008F778093A00008958091A0008F7DF9CF21
:100500008091A000877FF5CF809120018F77809325
:1005100020010895809120018F7DF9CF80912001E5
:10052000877FF5CFCF93DF93282F30E0F901EA5D85
:10053000FD4F8491F901E052FE4FD491F901E65646
:10054000FE4FC491CC23A1F081110E942B02EC2F0D
:10055000F0E0EE0FFF1FE058FE4FA591B491EC9133
:10056000ED2381E090E009F480E0DF91CF910895E0
:1005700080E090E0FACF862F0C9492021F93CF93E5
:10058000DF93282F30E0F901EA5DFD4F8491F901F6
:10059000E052FE4FD491F901E656FE4FC491CC23B0
:1005A000A9F0162F81110E942B02EC2FF0E0EE0F24
:1005B000FF1FEA59FE4FA591B4918FB7F894EC91C3
:1005C000111108C0D095DE23DC938FBFDF91CF914E
:1005D0001F910895DE2BF8CF862F642F0C94BE0256
:1005E000CF93DF9390E0FC01E052FE4F24918656BA
:1005F0009E4FFC0184918823C9F090E0880F991FD9
:10060000FC01E45BFE4FA591B491FC01EA59FE4F59
:10061000C591D49161110DC09FB7F8948C9120952C
:1006200082238C938881282328839FBFDF91CF91D9
:100630000895623051F49FB7F8943C91822F8095D1
:1006400083238C93E8812E2BEFCF8FB7F894EC9116
:100650002E2B2C938FBFEACF862F642F0C94F002A1
:10066000089590E080E008958F929F92AF92BF929C
:100670000F931F93CF93DF93CDB7DEB7A1970FB63C
:10068000F894DEBF0FBECDBF19A2423008F44AE095
:100690008E010F5D1F4F842E912CB12CA12CA50132
:1006A00094010E942109E62FB901CA01EA3044F5FC
:1006B000E05DD801EE938D01232B242B252B79F7B8
:1006C00090E080E0109769F0FD0101900020E9F7CB
:1006D0003197AF014A1B5B0BBD0180EC92E00E9499
:1006E000FE01A1960FB6F894DEBF0FBECDBFDF911D
:1006F000CF911F910F91BF90AF909F908F900895D1
:10070000E95CD7CFCF93DF93EC0160E08E810E944C
:10071000BE0261E08E810E94BE0260E08E810E9476
:10072000BE028BE891E00197F1F7DF91CF91089538
:10073000CF92DF92EF92FF920F931F93CF93DF93AD
:100740006C017C0187E0E80EF11CD0E0C0E0062FD0
:1007500010E0B8010C2E02C0759567950A94E2F777
:100760006170F70181917F010E94BE022196C43021
:10077000D10579F7C601DF91CF911F910F91FF90BD
:10078000EF90DF90CF900C948203CF92DF92EF92A4
:10079000FF920F931F93CF93DF93EC01F62E642FFC
:1007A0008C810E94BE028D818F3F19F060E00E9413
:1007B000BE020F2D10E08F8584FF25C06E0187E0FB
:1007C000C80ED11CF12CE12CB8010E2C02C075957D
:1007D00067950A94E2F76170F60181916F010E94BA
:1007E000BE02FFEFEF1AFF0A88E0E816F10461F796
:1007F000CE01DF91CF911F910F91FF90EF90DF908D
:10080000CF900C948203B80184E0759567958A9522
:10081000E1F7CE010E9498036F2DCE01DF91CF91B9
:100820001F910F91FF90EF90DF90CF900C94980361
:1008300040E0682F80EC92E00C94C50381E00E94B8
:1008400018048BE39FE10197F1F70895CF93DF93AD
:10085000823029F49091CF0298609093CF028093D8
:10086000D3021092D40280E48093D50280E1809379
:10087000D60280E58093D70261E08091C4020E9495
:10088000F0028091C5028F3F19F061E00E94F002F2
:1008900061E08091C6020E94F002C0ECD2E09E01AD
:1008A000205C32408091CF0284FD0BC084E090E058
:1008B00021962817390744F461E08E810E94F002E6
:1008C000EECF88E090E0F4CF8BE39DE00197F1F765
:1008D00060E08091C4020E94BE0260E08091C60286
:1008E0000E94BE028091C5028F3F19F060E00E9415
:1008F000BE028091CF0284FD34C063E080EC92E0C0
:100900000E949803CBE4D6E4CE010197F1F763E0AF
:1009100080EC92E00E9498032197F1F763E080EC6D
:1009200092E00E94980383E592E00197F1F762E07C
:1009300080EC92E00E9498038091CF0280620E9436
:10094000180484E08093D0028CE00E9418040E9476
:100950001E0482E08093D10286E0DF91CF910C9457
:10096000180480620E9418048BE496E40197F1F762
:100970008091CF0280620E94180483E592E0019783
:10098000F1F78091CF0280620E941804D5CF41E038
:100990000E94C50381E090E008950F931F93CF93C9
:1009A000DF93EC0188819981009759F02A813B817E
:1009B0002617370730F081E0DF91CF911F910F911B
:1009C00008958B016F5F7F4F0E94840A009759F052
:1009D000998388831B830A832C813D81232B59F7BC
:1009E000FC011082E8CF80E0E7CFCF93DF93EC01EA
:1009F000198218821B821A821D821C8270E060E0BC
:100A00000E94CD042881398181110FC02115310543
:100A100019F0C9010E94FB09198218821D821C82EB
:100A20001B821A82DF91CF9108951D821C8264E39C
:100A300072E0C901DF91CF910C946E0BCF93DF93DD
:100A4000EC0170E060E00E94CD04288139818111C1
:100A50000FC02115310519F0C9010E94FB09198247
:100A600018821D821C821B821A82DF91CF91089509
:100A70001D821C8264E372E0C901DF91CF910C9466
:100A80006E0BEF92FF920F931F93CF93DF931F9202
:100A90001F92CDB7DEB78C0169831A82FC01E48016
:100AA000F580FFEFEF1AFF0AB7010E94CD048823FB
:100AB00081F0F8012081318184819581BE016F5FD1
:100AC0007F4F820F931F0E946E0BF801F582E48224
:100AD00081E00F900F90DF91CF911F910F91FF90C8
:100AE000EF9008951F920F920FB60F9211242F933B
:100AF0003F938F939F93AF93BF9380914D029091BB
:100B00004E02A0914F02B091500230913A0223E080
:100B1000230F2D3758F50196A11DB11D20933A02E0
:100B200080934D0290934E02A0934F02B0935002D7
:100B30008091360290913702A0913802B09139022B
:100B40000196A11DB11D8093360290933702A093A8
:100B50003802B0933902BF91AF919F918F913F912D
:100B60002F910F900FBE0F901F90189526E8230F1E
:100B70000296A11DB11DD2CF789484B5826084BD48
:100B800084B5816084BD85B5826085BD85B5816091
:100B900085BD80916E00816080936E00109281000F
:100BA00080918100826080938100809181008160CA
:100BB000809381008091800081608093800080918B
:100BC000B10084608093B1008091B0008160809317
:100BD000B00080919100826080939100809191009B
:100BE000816080939100809190008160809390005B
:100BF0008091A10082608093A1008091A10081601A
:100C00008093A1008091A00081608093A0008091DA
:100C10002101826080932101809121018160809374
:100C200021018091200181608093200180917A00D0
:100C3000846080937A0080917A00826080937A0049
:100C400080917A00816080937A0080917A00806838
:100C500080937A001092C10082E00E9426040E94D4
:100C60001E04E1E08091D3028111E0E0E195F0E023
:100C7000E054FD4F848980680E941804412C512C57
:100C80003201439422242A94322C30E0C32E30E0E7
:100C9000D32E51E05093BD028FB7F89440914D028E
:100CA00050914E0260914F02709150028FBF80911F
:100CB000AD029091AE02A091AF02B091B002481B7C
:100CC000590B6A0B7B0B8091B9029091BA02B0E08C
:100CD000A0E084179507A607B707D8F6C0E0809173
:100CE000B702C81760F4E091B302F091B402EC0FC0
:100CF000F11D62E080810E94F002CF5FF0CF912C65
:100D00008091B802981608F05FC0092D10E0E091BC
:100D1000B502F091B602E00FF11F61E080810E9400
:100D2000F002E091B502F091B602E00FF11F60E031
:100D300080810E94BE02D301C201092C04C0880F29
:100D4000991FAA1FBB1F0A94D2F75C017C01E09493
:100D5000F094812C8091B7028816F8F4C82DD0E069
:100D6000E091B302F091B402EC0FFD1F80810E946C
:100D700092022496CC0FDD1FCF5ADD4F892B41F410
:100D8000888199818A299B29998388838394E2CFDA
:100D9000888199818E219F21F7CFE091B502F09152
:100DA000B602E00FF11F61E080810E94BE028091D7
:100DB000B5029091B602080F191F60E0F80180811A
:100DC0000E94F00293949CCFC1E5D2E0FE01878D92
:100DD00090A1892B21F4148E368E258E11A2369681
:100DE00052E0ED38F50799F710E08091B702181737
:100DF00008F053C000E0E12EF12CEE0CFF1CC701FF
:100E0000875A9D4F7C012091B802021708F043C019
:100E1000F70160817181002E02C0769567950A9472
:100E2000E2F7129F90011124200F311DE1E5F2E05D
:100E300080E0458D568D2417350709F421C18F5F59
:100E400036968A30B1F760FF24C0E1E5F2E090E029
:100E500080E0448D411118C0E091B102F091B202DE
:100E6000E20FF31F408156E0589FF001599FF00DAB
:100E70001124EF5AFD4F448F368F258F10A2178E05
:100E800061E00E948E0105C0019636968A30910578
:100E900001F70F5FB8CF1F5FA8CF80E099A1911134
:100EA000892F269692E0CD38D907C1F79FB7F894DD
:100EB00040914D0250914E0260914F02709150024C
:100EC0009FBF4093AD025093AE026093AF02709308
:100ED000B002882309F4DDCE80917202882309F4E0
:100EE000D8CE8091700290917102019709F0D1CE15
:100EF000C0916D02CC2309F4CCCECD3339F1C3348B
:100F000009F09FC00E941E04E1E08091D30281118C
:100F1000E0E0E195F0E0E054FD4F848980680E94B4
:100F2000180487E492E00E941E0581E492E00E948A
:100F30001E05E4E3F2E0E093400210923F02C11488
:100F4000D10409F4A6CE0E9400009FCE80914702F2
:100F500090914802009709F443C00E94D108EB0128
:100F600070933E0260933D02809141029091420253
:100F70000097D1F10E94D108409140024B3209F410
:100F800056C0B4F54A3209F43FC0E091D302E230D2
:100F900008F055C0E150F0E0E054FD4F84898068CE
:100FA0000E94180480903B0290903C02092C000C97
:100FB000AA08BB084AE0C501B401B7FE0EC041E073
:100FC0006DE280EC92E00E94C50366277727CB0193
:100FD000681979098A099B094AE00E943403AFCF56
:100FE00060E070E0CB01BBCF60E070E0CB01C4CF2C
:100FF0004D32B1F04F3249F6CE010E940D09709387
:101000003C0260933B02C1CFC69FC001C79F900DB9
:10101000D69F900D112490933C0280933B02B5CF54
:10102000C61BD70BD0933C02C0933B02AECFAE01A0
:10103000460F571F50933C0240933B02A6CFE1E07E
:10104000AACF80913F0290ED9C0F9A3088F46C2FCC
:1010500081110BC087E492E00E94410541E06C2FB2
:1010600080EC92E00E94C5036ACF81E492E0F4CF65
:10107000811165CFC0934002F1E0F0933F02EECFC3
:101080006170FFCE1092C3021092C2028CE292E015
:101090009093C1028093C0028DE08093C4028FEFD1
:1010A0008093C5028CE08093C6028BE08093C702D8
:1010B0008AE08093C80289E08093C90288E0809327
:1010C000CA021092CB021092CC021092CD02109262
:1010D000CE021092CF0281E00E94260410925302A9
:1010E00010925702109256021092580282E292E039
:1010F0009093520280935102EDE6F2E01082148246
:1011000013821582369682E0E93AF807B9F784E04F
:1011100092E09093B4028093B30280E092E09093C7
:10112000B6028093B50284E08093B7028093B80240
:1011300088E092E09093B2028093B1028AE090E05E
:101140009093BA028093B90284EF91E09093BC022D
:101150008093BB021092BF021092BE021092AD02A9
:101160001092AE021092AF021092B0021092BD0225
:1011700087E492E00E94F50481E492E00C94F50487
:101180008091410290914202009711F00E94FB0968
:101190008091470290914802009711F00C94FB094E
:1011A00008951F93FC0199278827BC01E8941191A9
:1011B0001032E9F3193010F01E30C8F31B3251F031
:1011C0001D3249F4689406C00E94F808610F711D31
:1011D000811D911D119110531A30B0F33EF490957A
:1011E0008095709561957F4F8F4F9F4F1F91089508
:1011F000592F482F372F262F660F771F881F991FCB
:10120000660F771F881F991F620F731F841F951F1A
:10121000660F771F881F991F089597FB072E16F4F6
:10122000009407D077FD09D00E944B0907FC05D038
:101230003EF4909581959F4F0895709561957F4FED
:101240000895A1E21A2EAA1BBB1BFD010DC0AA1F07
:10125000BB1FEE1FFF1FA217B307E407F50720F01F
:10126000A21BB30BE40BF50B661F771F881F991F9A
:101270001A9469F760957095809590959B01AC01E3
:10128000BD01CF010895EE0FFF1F881F8BBF079090
:10129000F691E02D1994AA1BBB1B51E107C0AA1FB0
:1012A000BB1FA617B70710F0A61BB70B881F991F07
:1012B0005A95A9F780959095BC01CD0108950F939B
:1012C0001F93CF93DF938230910510F482E090E07A
:1012D000E091DA02F091DB0230E020E0B0E0A0E043
:1012E000309799F42115310509F44AC0281B390BB0
:1012F00024303105D8F58A819B816115710589F10A
:10130000FB0193838283FE0111C0408151810281E0
:10131000138148175907E0F04817590799F41097B7
:1013200061F012960C93129713961C933296CF018C
:10133000DF91CF911F910F9108950093DA021093DE
:10134000DB02F4CF2115310551F04217530738F075
:10135000A901DB019A01BD01DF01F801C1CFEF0155
:10136000F9CF9093DB028093DA02CDCFFE01E20F3A
:10137000F31F819391932250310939832883D7CF6A
:101380002091D8023091D902232B41F420911A02E6
:1013900030911B023093D9022093D8022091180279
:1013A000309119022115310541F42DB73EB7409116
:1013B0001C0250911D02241B350BE091D802F091C4
:1013C000D902E217F307A0F42E1B3F0B28173907A9
:1013D00078F0AC014E5F5F4F2417350748F04E0F91
:1013E0005F1F5093D9024093D802819391939FCF6E
:1013F000F0E0E0E09CCFCF93DF930097E9F0FC01B1
:10140000329713821282A091DA02B091DB02ED01D1
:1014100030E020E01097A1F420813181820F931FEA
:101420002091D8023091D9022817390709F061C0FC
:10143000F093D902E093D802DF91CF910895EA01A9
:10144000CE17DF07E8F54A815B819E014115510502
:10145000B1F7E901FB83EA8349915991C40FD51F84
:10146000EC17FD0761F4808191810296840F951F2E
:10147000E90199838883828193819B838A83F0E049
:10148000E0E012968D919C9113970097B9F52D91FC
:101490003C911197CD010296820F931F2091D802A3
:1014A0003091D9022817390739F6309751F5109243
:1014B000DB021092DA02B093D902A093D802BCCF1B
:1014C000D383C28340815181840F951FC817D907E8
:1014D00061F44E5F5F4F88819981480F591F518396
:1014E00040838A819B81938382832115310509F092
:1014F000B0CFF093DB02E093DA029ECFFD01DC0176
:10150000C0CF13821282D7CF4F925F926F927F9299
:101510008F929F92AF92BF92CF92DF92EF92FF9203
:101520000F931F93CF93DF938C01009799F4CB0116
:10153000DF91CF911F910F91FF90EF90DF90CF90AF
:10154000BF90AF909F908F907F906F905F904F90E3
:101550000C945F09FC01E60FF71F9C012250310932
:10156000E217F30708F4AEC0D901CD91DC911197D1
:10157000C617D70720F1C530D10578F0CE01049702
:101580008617970750F0C61BD70B2297C193D193AC
:101590006D937C93CF010E94FB09C801DF91CF912D
:1015A0001F910F91FF90EF90DF90CF90BF90AF9081
:1015B0009F908F907F906F905F904F9008955B0108
:1015C000AC1ABD0A4C018C0E9D1EA091DA02B0919E
:1015D000DB02512C412CF12CE12C109731F580913C
:1015E000D8029091D9028815990509F05CC0461679
:1015F000570608F058C08091180290911902009780
:1016000041F48DB79EB740911C0250911D02841B7E
:10161000950BE817F90708F055C0F093D902E0934D
:10162000D802F90171836083B8CF8D919C91119795
:1016300012966C90129713967C901397A815B90583
:1016400059F56C0142E0C40ED11CCA14DB0420F130
:10165000AC014A195B09DA011296159780F0628293
:10166000738251834083D9016D937C93E114F1041B
:1016700071F0D7011396FC93EE9312978ECF2296BA
:101680008C0F9D1FF90191838083F301EFCFF093BD
:10169000DB02E093DA0281CF4816590608F42C01E8
:1016A0007D01D3019ACFCB010E945F097C01009795
:1016B00049F0AE01B8010E94650BC8010E94FB0908
:1016C00087016BCF10E000E068CFFB01DC0102C0B6
:1016D00001900D9241505040D8F70895FB01DC0174
:1016E00001900D920020E1F7089511E0C7E3D1E0E9
:1016F00000E006C0802FFE010E9443092196011DD3
:0E170000C833D10780E00807A9F7F894FFCF9F
:10170E002B2C2D2E2728292A3738392F3435362AD7
:10171E003132332D43303D2B0000DC0280000000BF
:10172E0000002C03EC02BB0200000000C704FE0107
:06173E003103300300003E
:00000001FF
