:100000000C9422010C9453010C9453010C94530151
:100010000C9453010C9453010C9453010C94530110
:100020000C9453010C9453010C9453010C94530100
:100030000C9453010C9453010C9453010C945301F0
:100040000C9453010C9453010C9453010C945301E0
:100050000C9453010C9453010C9453010C947503AC
:100060000C9453010C9453010C9453010C945301C0
:100070000C9453010C9453010C9453010C945301B0
:100080000C9453010C9453010C9453010C945301A0
:100090000C9453010C9453010C9453010C94530190
:1000A0000C9453010C9453010C9453010C94530180
:1000B0000C9453010C9453010C9453010C94530170
:1000C0000C9453010C9453010C9453010C94530160
:1000D0000C9453010C9453010C9453010C94530150
:1000E0000C9453010C9427020C9407020C940F02F9
:1000F0000C9423020C94F4010C9415020C94D1017D
:100100000C9486040C94F7010C942E020C94F001CC
:100110000C942D020C94E8010C941D020C946F03B6
:100120000C9419020C94FD010C9474010C940102BE
:100130000C94EC010C940B020C94D60100000A0BF9
:1001400002090C0D0E080703040100000000000066
:10015000000000000000000000000000000000009F
:10016000000000000000000012111000000000005C
:10017000000000000000000000000000000000007F
:10018000000000002200250028002B002E00310076
:10019000340002010000050108010B0100002100EC
:1001A000240027002A002D00300033000101000048
:1001B000040107010A0105050505070508080808E7
:1001C000020202020A0A08080404040401010101EF
:1001D00001010101030303030303030304070707EA
:1001E0000C0C0C0C0C0C0C0C02020202060606068F
:1001F000060606060B0B0B0B0B0B0B0B010210205C
:10020000200808102040102040800201020108044C
:1002100002010102040810204080804020100804E0
:100220000201800402018040201008040201080439
:10023000020101020408102040800102040810207D
:100240004080860411241FBECFEFD1E2DEBFCDBFB8
:1002500000E00CBF12E0A0E0B2E0ECE5F9E000E065
:100260000BBF02C007900D92AC30B107D9F722E066
:10027000ACE0B2E001C01D92A233B207E1F711E099
:10028000C2E2D1E000E006C021970109802FFE0103
:100290000E94A404C132D10780E00807A9F70E9498
:1002A000BF030C94AC040C94000090E0FC01E450FB
:1002B000FE4F24918A549E4FFC018491882399F02B
:1002C00090E0880F991FFC01E456FE4FA591B49170
:1002D000FC01EE57FE4F859194918FB7F894EC9105
:1002E000E22BEC938FBF0895AF92BF92CF92DF9233
:1002F000EF92FF920F931F93CF93DF936C017B01DB
:100300008B01040F151FEB015E01AE18BF08C0176B
:10031000D10759F06991D601ED91FC910190F081DE
:10032000E02DC6011995892B79F7C501DF91CF9191
:100330001F910F91FF90EF90DF90CF90BF90AF9003
:100340000895282F30E0F901E45CFE4F9491F90103
:10035000E450FE4F44912A543E4FF9012491222348
:1003600009F435C0992311F191509231F8F4E92F35
:10037000F0E08827E154FE4F8F4F0C94A404F00165
:10038000F401D101E801EC01D601F701FD01010200
:1003900007020B020F0215021902D6011D022302E9
:1003A0002702809180008F7780938000E22FF0E019
:1003B000EE0FFF1FEE57FE4FA591B4918FB7F89443
:1003C000EC91611148C040954E234C938FBF089526
:1003D000809180008F7DE8CF80918000877FE4CF7F
:1003E00084B58F7784BDE2CF84B58F7DFBCF8091BC
:1003F000B0008F778093B000D9CF8091B0008F7D0F
:10040000F9CF809190008F7780939000CFCF80912B
:1004100090008F7DF9CF80919000877FF5CF8091FC
:10042000A0008F778093A000C1CF8091A0008F7D26
:10043000F9CF8091A000877FF5CF809120018F7741
:1004400080932001B3CF809120018F7DF9CF8091DF
:100450002001877FF5CF4E2BB8CF089590E080E044
:100460000895CF93DF93EC0160E08E810E94A1019B
:1004700061E08E810E94A10160E08E810E94A10155
:100480008BE891E00197F1F7DF91CF910895CF923A
:10049000DF92EF92FF920F931F93CF93DF936C0144
:1004A0007C0187E0E80EF11CD0E0C0E0062F10E0F0
:1004B000B8010C2E02C0759567950A94E2F7617039
:1004C000F70181917F010E94A1012196C430D105DD
:1004D00079F7C601DF91CF911F910F91FF90EF90B7
:1004E000DF90CF900C943102CF92DF92EF92FF9287
:1004F0000F931F93CF93DF93EC01F62E642F8C8123
:100500000E94A1018D818F3F19F060E00E94A1013E
:100510000F2D10E08F8584FF25C06E0187E0C80E87
:10052000D11CF12CE12CB8010E2C02C075956795F9
:100530000A94E2F76170F60181916F010E94A101B6
:10054000FFEFEF1AFF0A88E0E816F10461F7CE0129
:10055000DF91CF911F910F91FF90EF90DF90CF909F
:100560000C943102B80184E0759567958A95E1F79E
:10057000CE010E9447026F2DCE01DF91CF911F91D6
:100580000F91FF90EF90DF90CF900C94470240E0E6
:10059000682F8AE192E00C947402CF93DF9382304B
:1005A00029F49091290298609093290280932D025A
:1005B00010922E0280E480932F0280E1809330021B
:1005C00080E58093310280911E020E945501809146
:1005D0001F028F3F11F00E945501809120020E945E
:1005E0005501CAE1D2E09E012A5132408091290290
:1005F00084FD0AC084E090E02196281739073CF476
:100600008E810E945501EFCF88E090E0F5CF8BE31B
:100610009DE00197F1F760E080911E020E94A10128
:1006200060E0809120020E94A10180911F028F3F13
:1006300019F060E00E94A1018091290284FD39C077
:1006400063E08AE192E00E944702CBE4D6E4CE0167
:100650000197F1F763E08AE192E00E944702219757
:10066000F1F763E08AE192E00E94470283E592E0BD
:100670000197F1F762E08AE192E00E9447028091DF
:10068000290280620E94C70284E080932A028CE0E3
:100690000E94C70281E00E94C7028BE39FE101979D
:1006A000F1F782E080932B0286E0DF91CF910C94EA
:1006B000C70280620E94C7028BE496E40197F1F7BB
:1006C0008091290280620E94C70283E592E001972F
:1006D000F1F78091290280620E94C702D0CF41E0E9
:1006E0000E94740281E090E008951F920F920FB66D
:1006F0000F9211242F933F938F939F93AF93BF93A8
:100700008091110290911202A0911302B0911402F3
:100710003091100223E0230F2D3758F50196A11DCB
:10072000B11D209310028093110290931202A093A6
:100730001302B093140280910C0290910D02A091CB
:100740000E02B0910F020196A11DB11D80930C0203
:1007500090930D02A0930E02B0930F02BF91AF9140
:100760009F918F913F912F910F900FBE0F901F90EF
:10077000189526E8230F0296A11DB11DD2CF7894BB
:1007800084B5826084BD84B5816084BD85B5826096
:1007900085BD85B5816085BD80916E008160809347
:1007A0006E001092810080918100826080938100B0
:1007B00080918100816080938100809180008160C0
:1007C000809380008091B10084608093B10080911B
:1007D000B00081608093B00080919100826080932E
:1007E00091008091910081608093910080919000B0
:1007F0008160809390008091A10082608093A1002D
:100800008091A10081608093A1008091A00081600F
:100810008093A000809121018260809321018091CA
:10082000210181608093210180912001816080936A
:10083000200180917A00846080937A0080917A0010
:10084000826080937A0080917A00816080937A0040
:1008500080917A00806880937A001092C10082E0D3
:100860000E94CD020BE31FE1C0E0D0E08FB7F89407
:10087000C0901102D0901202E0901302F090140286
:100880008FBF8091160290911702A0911802B0912B
:100890001902A7019601281B390B4A0B5B0BDA01E1
:1008A000C901883E9340A105B10550F181E00E9445
:1008B000C702C8010197F1F7B0901502EB2DE17066
:1008C0008B2D8F7090912D02E91710F0EFEFE90F4B
:1008D000F0E0E65EFD4F9489890F80680E94C702B0
:1008E00061E48AE192E00E946F03B394B092150232
:1008F000C0921602D0921702E0921802F0921902EA
:10090000209709F4B3CF0E940000B0CFEAE1F2E0F3
:100910001382128284E092E0918380838DE084834D
:100920008FEF85838CE086838BE087838AE08087E6
:1009300089E0818788E0828713861486158616866B
:10094000178681E00C94CD02EE0FFF1F881F8BBF2E
:0C0950000790F691E02D1994F894FFCF69
:0C095C00000000006F0374012E022D0249
:00000001FF
