:020000040040BA
:1000000000040020C1004000C9004000CB004000B7
:10001000CD004000CF004000D100400000000000B3
:10002000000000000000000000000000D3004000BD
:10003000D500400000000000D7004000D90040007B
:10004000DB004000DB004000DB004000DB00400044
:10005000DB004000DB004000DB004000000000004F
:10006000DB004000DB00400000000000DB0040003F
:10007000DB004000DB004000DB004000DB00400014
:10008000000000000000000000000000DB00400055
:10009000DB004000DB00400000000000DB0040000F
:1000A000DB004000DB004000DB004000DB004000E4
:1000B000DB004000DB004000DB004000DB004000D4
:1000C0000948804709480047FEE7FEE7FEE7FEE7EC
:1000D000FEE7FEE7FEE7FEE7FEE7FEE70448054928
:1000E000054A064B704700003502400009014000F8
:1000F0000000002000040020000200200002002078
:10010000704770477047000000F062F800F067F831
:1001100000F06FF8414C25684FF00804AC4200D065
:10012000F6E700F02BF800F037F800F043F800F0A5
:1001300065F800F046F800F061F800F03BF800F0D8
:1001400032F800F05BF800F03CF800F057F800F0EF
:1001500031F800F021F800F018F800F04FF800F046
:1001600030F800F04BF800F025F800F01CF800F033
:1001700045F800F026F800F041F8D2E74FF001080A
:10018000DFF89C90C9F8008070474FF00108DFF855
:100190009490C9F8008070474FF00208DFF8809013
:1001A000C9F8008070474FF00208DFF87890C9F86E
:1001B000008070474FF00408DFF86490C9F80080B1
:1001C00070474FF00408DFF85C90C9F80080704772
:1001D0004FF00704144D2C60144D2C6070474FF005
:1001E0001804134D2C6070474FF007040C4D2C6021
:1001F00070474FF007040B4D2C6070474FF0000420
:100200004FF42045054E37684FF01006BE423FF4CC
:100210007FAF04F10104AC42F4D170474C0E0E40A4
:10022000300E0E40340E0E40000E0E40100E0E40EA
:10023000200E0E404FF400702649086026482749DA
:10024000086027482549C439086000BF23487C3826
:10025000006800F001000028F8D022481F49BC398E
:10026000086000BF1D487C38006800F002000028CC
:10027000F8D01A48B438006820F0700040F0200030
:100280001649B439086000BF14487C38006800F093
:1002900008000028F8D022201049B439086000BFB7
:1002A0000E487C38006800F008000028F8D00020D4
:1002B0000A49E43908604FF4E0500849D43908602D
:1002C0000548401C054908604FF400400649086095
:1002D00070470000000A0E4000434D50E4040E40F9
:0C02E0000101370101860F2054140E406C
:0400000500400109AD
:00000001FF
