:100000000C9430010C9461010C9461010C94610119
:100010000C9461010C9461010C9461010C946101D8
:100020000C9461010C9461010C9461010C946101C8
:100030000C9461010C9461010C9461010C946101B8
:100040000C9461010C945F050C9461010C946101A6
:100050000C9461010C9461010C9461010C948B046B
:100060000C9461010C9461010C9461010C94610188
:100070000C9461010C9461010C9461010C94610178
:100080000C9431050C9461010C9461010C94610194
:100090000C9461010C9461010C9461010C94610158
:1000A0000C9461010C9461010C9403050C946101A2
:1000B0000C9461010C9461010C9461010C94D504C1
:1000C0000C9461010C9461010C9461010C94610128
:1000D0000C9461010C9461010C9461010C94610118
:1000E0000C9461010C9496020C94AB020C940203E4
:1000F0000C94C7020C949A020C9428080C943303B5
:100100000C94AF020C94D0020C94A5020C94D5026E
:100110000C94D1020C94BD020C94B5020C94CB0249
:100120000C949C080C94B9020C94A2020C94C30287
:100130000C949E020C9490020C9473030000210016
:10014000240027002A002D003000330001010000A8
:10015000040107010A0100002200250028002B00ED
:100160002E003100340002010000050108010B01DE
:10017000000020002300260029002C002F00320060
:100180000001000003010601090105050505070539
:1001900008080808020202020A0A08080404040403
:1001A000010101010101010103030303030303032F
:1001B000040707070C0C0C0C0C0C0C0C02020202BE
:1001C00006060606060606060B0B0B0B0B0B0B0BA7
:1001D0000102102020080810204010204080020159
:1001E000020108040201010204081020408080403E
:1001F000201008040201800402018040201008043D
:1002000002010804020101020408102040800102DA
:1002100004081020408000000A0B02090C0D0E0893
:1002200007030401000000000000000000000000BF
:1002300000000000000000000000000000000000BE
:10024000000012111000000000000000000000007B
:1002500000000000000000000000000028089C08CA
:1002600011241FBECFEFD1E2DEBFCDBF00E00CBF37
:1002700012E0A0E0B2E0E0E0F7E100E00BBF02C076
:1002800007900D92AA32B107D9F723E0AAE2B2E0B3
:1002900001C01D92A734B207E1F711E0CFE2D1E02F
:1002A00000E006C021970109802FFE010E9450093D
:1002B000CE32D10780E00807A9F70E948D050C9483
:1002C0006E0B0C940000CF92DF92EF92FF92DC0154
:1002D000A03282E0B807D4F5A53BB10514F0A4EB39
:1002E000B0E040913B0328E830E0241B310947FD92
:1002F0003395220F331F220F331F6901330FEE088E
:10030000FF0840913C0328E532E0241B310947FDFA
:100310003395220F331F220F331F032E000C440B83
:10032000550B2C193D094E095F09B7FF02C0B0E01B
:10033000A0E00E940B0924EB30E040E050E00E9476
:10034000E108C20ED31EE41EF51ED601E0913A0369
:10035000E03380F520913B0388E890E0821B91090F
:1003600027FD9395880F991F880F991FA817B90724
:1003700084F020913C0388E592E0821B910927FDDF
:100380009395880F991F880F991FA817B9070CF428
:10039000CD010297880F991F4FB7F8942E2F30E0A8
:1003A000F901EE0FFF1FE20FF31FE655FD4F928399
:1003B00081834FBFFF90EF90DF90CF90089596E03C
:1003C000899FD0011124A55CBD4F90967C936E93BC
:1003D0005F9791E091969C939197E091A802F0919C
:1003E000A9029091A702992339F0309751F0811119
:1003F00008C0809157021994309719F05C968C913F
:10040000FACF0895CF92DF92EF92FF920F931F934E
:1004100096E0899FF0011124E55CFD4F11A2278D24
:1004200030A12130310551F178F02230310509F445
:1004300051C02330310509F452C01F910F91FF9034
:10044000EF90DF90CF9008956623B9F361E070E0FC
:100450000E94DF012FB7F894809137029091380203
:10046000A0913902B0913A022FBF809393029093EA
:100470009402A0939502B0939602DFCF9FB7F894B1
:10048000C0903702D0903802E0903902F0903A02E2
:100490009FBF009193021091940220919502309198
:1004A0009602C01AD10AE20AF30A0091A50210913D
:1004B000A60230E020E00C151D052E053F0550F486
:1004C00062E070E01F910F91FF90EF90DF90CF906E
:1004D0000C94DF016111B1CF63E070E0F3CF70E005
:1004E00060E0F0CF8150823108F05AC0E82FF0E090
:1004F0008827E258FD4F8F4F0C9450099E02A202AC
:10050000900296029A02D002A502AB02AF02B50297
:10051000B902BD02C302C702D002CB02D102D5028A
:10052000809180008F778093800008958091800073
:100530008F7DF9CF80918000877FF5CF84B58F774D
:1005400084BD089584B58F7DFBCF8091B0008F77F7
:100550008093B00008958091B0008F7DF9CF809195
:1005600090008F77809390000895809190008F7D08
:10057000F9CF80919000877FF5CF8091A0008F7791
:100580008093A00008958091A0008F7DF9CF809185
:10059000A000877FF5CF809120018F778093200185
:1005A0000895809120018F7DF9CF80912001877F70
:1005B000F5CFCF93DF93282F30E0F901EA5EFD4FAE
:1005C0008491F901E053FE4FD491F901E657FE4FB3
:1005D000C491CC23A1F081110E947202EC2FF0E0B3
:1005E000EE0FFF1FE059FE4FA591B491EC91ED2362
:1005F00081E090E009F480E0DF91CF91089580E000
:1006000090E0FACF862F0C94D9021F93CF93DF93FB
:10061000282F30E0F901EA5EFD4F8491F901E053A3
:10062000FE4FD491F901E657FE4FC491CC23A9F0B7
:10063000162F81110E947202EC2FF0E0EE0FFF1FC7
:10064000EA5AFE4FA591B4918FB7F894EC9111112D
:1006500008C0D095DE23DC938FBFDF91CF911F912F
:100660000895DE2BF8CF862F642F0C940503CF93CB
:10067000DF9390E0FC01E053FE4F249186579E4F9C
:10068000FC0184918823C9F090E0880F991FFC0138
:10069000E45CFE4FA591B491FC01EA5AFE4FC5916E
:1006A000D49161110DC09FB7F8948C91209582234D
:1006B0008C938881282328839FBFDF91CF91089551
:1006C000623051F49FB7F8943C91822F8095832338
:1006D0008C93E8812E2BEFCF8FB7F894EC912E2BD3
:1006E0002C938FBFEACF862F642F0C943703AF92E1
:1006F000BF92CF92DF92EF92FF920F931F93CF930F
:10070000DF936B017A01EC01C55DDD4F28813CE090
:10071000389F8001399F100D1124A0902A02B12C1E
:1007200027FF1FC0FB011182108288818F5F8883A1
:1007300088819801280F311D87FD3A95F6012A1509
:100740003B051CF488818C30C4F180819181049632
:1007500080349C4908F473C0F6018081918104962D
:1007600070C088819801280F311D87FD3A952A15A0
:100770003B05DCF68881A801480F511D87FD5A957D
:10078000FA01EE0FFF1FE40FF51FE655FD4F8081C4
:1007900086FFCBCF8881F801E80FF11D87FDFA9520
:1007A000CF01EE0FFF1FE80FF91FE655FD4F8081C7
:1007B00060E08F730E940503B8CF8081918128810A
:1007C000A801420F511D27FD5A959A01FA01EE0F1B
:1007D000FF1FE20FF31FE655FD4F21813281820F8B
:1007E000931FF7019183808388819801280F311D21
:1007F00087FD3A95F901EE0FFF1FE20FF31FE65553
:10080000FD4F808186FF22C08881080F111D87FD62
:100810001A95F801EE0FFF1FE00FF11FE655FD4F8F
:10082000808161E08F73DF91CF911F910F91FF90D5
:10083000EF90DF90CF90BF90AF900C94050380E4D1
:100840009CE9F701918380838FEF8883DF91CF91BB
:100850001F910F91FF90EF90DF90CF90BF90AF90DE
:100860000895CF93DF93EC0180913D0390913E0377
:10087000009759F020913F03309140032C173D071A
:1008800020F081E0DF91CF910895BE016F5F7F4F2F
:100890000E947D0A009789F090933E0380933D0368
:1008A000D0934003C0933F03209141033091420312
:1008B000232B39F7FC011082E4CF80E0E3CFCF9304
:1008C000DF93EC010E94310420913D0330913E03FF
:1008D000811117C02115310519F0C9010E94F409D1
:1008E00010923E0310923D03109242031092410376
:1008F0001092400310923F038DE393E0DF91CF917C
:100900000895D0934203C093410368E272E0C901A5
:100910000E94670BF1CF1F920F920FB60F92112416
:100920002F933F938F939F93AF93BF938091370201
:1009300090913802A0913902B0913A02309133027D
:1009400023E0230F2D3758F50196A11DB11D2093EB
:1009500033028093370290933802A0933902B09308
:100960003A0280912F0290913002A0913102B09111
:1009700032020196A11DB11D80932F029093300287
:10098000A0933102B0933202BF91AF919F918F91AA
:100990003F912F910F900FBE0F901F90189526E852
:1009A000230F0296A11DB11DD2CF1F920F920FB639
:1009B0000F9211240BB60F922F933F934F935F9397
:1009C0006F937F938F939F93AF93BF93EF93FF9317
:1009D00048E251E064E271E090E080E00E94770339
:1009E000FF91EF91BF91AF919F918F917F916F9107
:1009F0005F914F913F912F910F900BBE0F900FBEC3
:100A00000F901F9018951F920F920FB60F921124FE
:100A10000BB60F922F933F934F935F936F937F93F8
:100A20008F939F93AF93BF93EF93FF9348EA50E068
:100A300064EA70E083E090E00E947703FF91EF9119
:100A4000BF91AF919F918F917F916F915F914F91E6
:100A50003F912F910F900BBE0F900FBE0F901F90E4
:100A600018951F920F920FB60F9211240BB60F928A
:100A70002F933F934F935F936F937F938F939F93A6
:100A8000AF93BF93EF93FF9348E950E064E970E0C0
:100A900082E090E00E947703FF91EF91BF91AF91C8
:100AA0009F918F917F916F915F914F913F912F9186
:100AB0000F900BBE0F900FBE0F901F9018951F92B6
:100AC0000F920FB60F9211240BB60F922F933F93F4
:100AD0004F935F936F937F938F939F93AF93BF9346
:100AE000EF93FF9348E850E064E870E081E090E025
:100AF0000E947703FF91EF91BF91AF919F918F91EA
:100B00007F916F915F914F913F912F910F900BBE0D
:100B10000F900FBE0F901F901895CF93DF931F92E9
:100B20001F92CDB7DEB7789484B5826084BD84B55A
:100B3000816084BD85B5826085BD85B5816085BDD8
:100B400080916E00816080936E0010928100809190
:100B50008100826080938100809181008160809318
:100B60008100809180008160809380008091B1003D
:100B700084608093B1008091B00081608093B00068
:100B800080919100826080939100809191008160BA
:100B9000809391008091900081608093900080917B
:100BA000A10082608093A1008091A1008160809368
:100BB000A1008091A00081608093A000809121011C
:100BC00082608093210180912101816080932101C5
:100BD0008091200181608093200180917A0084605F
:100BE00080937A0080917A00826080937A0080916D
:100BF0007A00816080937A0080917A008068809387
:100C00007A001092C10080913A03803308F052C0FC
:100C100061E089E00E94370380913A03282F30E099
:100C2000F901EE0FFF1FE20FF31FE655FD4F908114
:100C3000907C9960908310923B0310923C032CE0CF
:100C4000622F0E944409829FB001112430E020E00D
:100C5000AB01420F531FFA01EE0FFF1FE40FF51F08
:100C6000E655FD4F908196FD17C02F5F3F4F2C300A
:100C7000310571F7813009F05CC01092800082E08C
:100C8000809381001092850010928400B19A809127
:100C90006F00826080936F00E0913A038E2F90E0A6
:100CA000FC01EE0FFF1FE80FF91FE655FD4F808195
:100CB00080648083412C512C3201439447E7842E79
:100CC00042E0942E51E05093A7028FB7F8944091E0
:100CD0003702509138026091390270913A028FBF09
:100CE0008091970290919802A0919902B0919A02F6
:100CF000481B590B6A0B7B0B8091A3029091A402B5
:100D0000B0E0A0E084179507A607B70708F05AC11E
:100D100010E08091A1021817C0F5E0919D02F091BA
:100D20009E02E10FF11D62E080810E9437031F5F88
:100D3000F0CF823061F41092900080939100109275
:100D400095001092940088BB80937100A5CF8330EA
:100D500069F41092A00082E08093A1001092A50097
:100D60001092A40089BB8093720096CF811194CF1A
:100D70001092200182E080932101109225011092AF
:100D800024018ABB8093730087CF312C8091A2020B
:100D9000381608F061C0E32CF12CE0919F02F0912D
:100DA000A002EE0DFF1D61E080810E943703E091FB
:100DB0009F02F091A002EE0DFF1D60E080810E9475
:100DC0000503D301C201032C04C0880F991FAA1F79
:100DD000BB1F0A94D2F75C016C01C094D094212C03
:100DE0008091A102281608F5022D10E0E0919D02E5
:100DF000F0919E02E00FF11F80810E94D9020C5FEA
:100E00001F4F000F111FF801E55CFD4F892B41F4C6
:100E1000808191818A299B29918380832394E0CFCB
:100E2000808191818C219D21F7CFE0919F02F091EB
:100E3000A002EE0DFF1D61E080810E9405038091FC
:100E40009F029091A002E80EF91E60E0F7018081F8
:100E50000E94370333949ACF9BE3E92E92E0F92E58
:100E60008701F801878D90A1892B31F4148E8FEFC3
:100E70009FEF968F858F11A20A5F1F4F80169106F4
:100E800081F7D12C8091A102D81608F053C0C12C53
:100E9000AD2CB12CAA0CBB1CF501ED5BFD4F5F0125
:100EA0002091A202C21608F043C0F5016081718151
:100EB0000C2C02C0769567950A94E2F7D29E9001B9
:100EC00011242C0D311DEBE3F2E080E0458D568DB1
:100ED0002417350709F4BAC08F5F36968A30B1F708
:100EE00060FF24C0EBE3F2E090E080E0448D41112C
:100EF00018C0E0919B02F0919C02E20FF31F408129
:100F000056E0589FF001599FF00D1124E55CFD4F0C
:100F1000448F368F258F10A2178E61E00E94020247
:100F200005C0019636968A30910501F7C394B8CF73
:100F3000D394A8CF80E0F70191A19111892FF6E019
:100F4000EF0EF11CE016F106B1F79FB7F89440914F
:100F50003702509138026091390270913A029FBF76
:100F600040939702509398026093990270939A026B
:100F7000882341F180915C02882321F180915A02FB
:100F800090915B020197F1F4109157021093360291
:100F9000133209F448C01A32D1F480913D03909184
:100FA0003E03009709F44EC00E94A50870933502D5
:100FB00060933402CB010E94630190E080E00E94C4
:100FC0005F0405C01092A7021092360210E080ED77
:100FD000810F8A3000F519831A8200914103109124
:100FE00042030F5F1F4FC8010E943104882399F00C
:100FF00020913D0330913E03809141039091420343
:10100000BE016F5F7F4F820F931F0E94670B10938B
:10101000420300934103E0E0F0E0EF2B09F452CEED
:101020000E9400004FCE8AE590E0909335028093B5
:10103000340290E080E00E945F048AE590E00E9424
:101040006301C5CF60E070E0CB01B0CF617066CFC7
:1010500010923D0210924102109240021092420200
:1010600082E292E090933C0280933B02E7E5F2E05B
:101070001082148213821582369682E0E339F807D3
:10108000B9F784E092E090939E0280939D0280E005
:1010900092E09093A00280939F0284E08093A1024B
:1010A0008093A20288E092E090939C0280939B023E
:1010B0008AE090E09093A4028093A30284EF91E0F1
:1010C0009093A6028093A5021092A9021092A80202
:1010D00010929702109298021092990210929A021E
:1010E0001092A70280912A02803310F591E0980FA8
:1010F00090932A0280933A0390E0FC01EE0FFF1FC9
:10110000E80FF91FE655FD4F88EB9BE09283818342
:1011100010923E0310923D031092400310923F0341
:10112000109242031092410390E080E00C945F041F
:101130008FEF80933A03ECCF80913D0390913E0373
:10114000009711F00C94F40908951F93FC0199275E
:101150008827BC01E89411911032E9F3193010F09E
:101160001E30C8F31B3251F01D3249F4689406C09A
:101170000E94CC08610F711D811D911D11911053AA
:101180001A30B0F33EF490958095709561957F4F3D
:101190008F4F9F4F1F910895592F482F372F262F7C
:1011A000660F771F881F991F660F771F881F991F6B
:1011B000620F731F841F951F660F771F881F991F6B
:1011C0000895052E97FB1EF400940E94F80857FD21
:1011D00007D00E94130907FC03D04EF40C94F808C2
:1011E00050954095309521953F4F4F4F5F4F089553
:1011F00090958095709561957F4F8F4F9F4F089583
:101200000E943509A59F900DB49F900DA49F800D5D
:10121000911D11240895B7FF0C9400090E94000944
:10122000821B930B0895A1E21A2EAA1BBB1BFD0182
:101230000DC0AA1FBB1FEE1FFF1FA217B307E407B5
:10124000F50720F0A21BB30BE40BF50B661F771F0D
:10125000881F991F1A9469F76095709580959095ED
:101260009B01AC01BD01CF010895A29FB001B39FC6
:10127000C001A39F700D811D1124911DB29F700D9F
:10128000811D1124911D0895991B79E004C0991FB7
:10129000961708F0961B881F7A95C9F780950895D0
:1012A000EE0FFF1F881F8BBF0790F691E02D19945A
:1012B0000F931F93CF93DF938230910510F482E058
:1012C00090E0E0914503F091460330E020E0B0E08B
:1012D000A0E0309799F42115310509F44AC0281B84
:1012E000390B24303105D8F58A819B816115710550
:1012F00089F1FB0193838283FE0111C040815181FA
:101300000281138148175907E0F04817590799F4EB
:10131000109761F012960C93129713961C933296C5
:10132000CF01DF91CF911F910F9108950093450355
:1013300010934603F4CF2115310551F0421753079E
:1013400038F0A901DB019A01BD01DF01F801C1CF2D
:10135000EF01F9CF9093460380934503CDCFFE0173
:10136000E20FF31F8193919322503109398328832F
:10137000D7CF2091430330914403232B41F4209194
:101380001A0230911B0230934403209343032091AF
:101390001802309119022115310541F42DB73EB7DD
:1013A00040911C0250911D02241B350BE091430318
:1013B000F0914403E217F307A0F42E1B3F0B28170C
:1013C000390778F0AC014E5F5F4F2417350748F0BE
:1013D0004E0F5F1F509344034093430381939193B7
:1013E0009FCFF0E0E0E09CCFCF93DF930097E9F050
:1013F000FC01329713821282A0914503B0914603FB
:10140000ED0130E020E01097A1F420813181820FBE
:10141000931F20914303309144032817390709F0A3
:1014200061C0F0934403E0934303DF91CF910895AB
:10143000EA01CE17DF07E8F54A815B819E0141157D
:101440005105B1F7E901FB83EA8349915991C40F32
:10145000D51FEC17FD0761F4808191810296840FFE
:10146000951FE90199838883828193819B838A8375
:10147000F0E0E0E012968D919C9113970097B9F5FA
:101480002D913C911197CD010296820F931F2091CF
:101490004303309144032817390739F6309751F543
:1014A0001092460310924503B0934403A093430364
:1014B000BCCFD383C28340815181840F951FC8174D
:1014C000D90761F44E5F5F4F88819981480F591F9A
:1014D000518340838A819B819383828321153105C7
:1014E00009F0B0CFF0934603E09345039ECFFD0192
:1014F000DC01C0CF13821282D7CF4F925F926F92DE
:101500007F928F929F92AF92BF92CF92DF92EF9293
:10151000FF920F931F93CF93DF938C01009799F461
:10152000CB01DF91CF911F910F91FF90EF90DF9052
:10153000CF90BF90AF909F908F907F906F905F9073
:101540004F900C945809FC01E60FF71F9C012250A4
:101550003109E217F30708F4AEC0D901CD91DC914F
:101560001197C617D70720F1C530D10578F0CE0105
:1015700004978617970750F0C61BD70B2297C19385
:10158000D1936D937C93CF010E94F409C801DF9140
:10159000CF911F910F91FF90EF90DF90CF90BF9070
:1015A000AF909F908F907F906F905F904F90089535
:1015B0005B01AC1ABD0A4C018C0E9D1EA091450327
:1015C000B0914603512C412CF12CE12C109731F5B0
:1015D00080914303909144038815990509F05CC0FC
:1015E0004616570608F058C08091180290911902CB
:1015F000009741F48DB79EB740911C0250911D0297
:10160000841B950BE817F90708F055C0F0934403C5
:10161000E0934303F90171836083B8CF8D919C916E
:10162000119712966C90129713967C901397A815A9
:10163000B90559F56C0142E0C40ED11CCA14DB0493
:1016400020F1AC014A195B09DA011296159780F076
:101650006282738251834083D9016D937C93E1143C
:10166000F10471F0D7011396FC93EE9312978ECF8D
:1016700022968C0F9D1FF90191838083F301EFCF98
:10168000F0934603E093450381CF4816590608F4CA
:101690002C017D01D3019ACFCB010E9458097C0116
:1016A000009749F0AE01B8010E945E0BC8010E948C
:1016B000F40987016BCF10E000E068CFFB01DC018B
:1016C00002C001900D9241505040D8F70895FB019F
:1016D000DC0101900D920020E1F7089511E0CFE2C6
:1016E000D1E000E006C0802FFE010E945009219643
:1016F000011DC033D10780E00807A9F7F894FFCF98
:101700001D1B19171F212325313233413635344231
:10171000373839432A302344000047038000000053
:0A172000000073033303020300000E
:00000001FF
