:100000000C941F010C941D040C94F2030C94C70370
:100010000C949C030C9471030C9446030C941B03E6
:100020000C94F0020C9440010C9440010C9440019B
:100030000C9440010C9440010C9440010C9440013C
:100040000C9440010C9440010C9440010C9440012C
:100050000C9440010C9440010C9440010C94A602B5
:100060000C9440010C9440010C9440010C9440010C
:100070000C9440010C9440010C9440010C944001FC
:100080000C9440010C9440010C9440010C944001EC
:100090000C9440010C9440010C9440010C944001DC
:1000A0000C9440010C9440010C9440010C944001CC
:1000B0000C9440010C9440010C9440010C944001BC
:1000C0000C9440010C9440010C9440010C944001AC
:1000D0000C9440010C9440010C9440010C9440019C
:1000E0000C9440010C949E010C94C4010C94B60134
:1000F0000C94C8010C9477010C94BA010C94A201E1
:100100000C9495010C94AC010C948D010C94980105
:100110000C9491010C94A8010C9489010C94380260
:100120000C94B0010C9473020C9472010C94CE01E7
:100130000C9437020C94BE0100002100240027001B
:100140002A002D00300033000101000004010701E6
:100150000A0100002200250028002B002E0031009B
:10016000340002010000050108010B010505050529
:10017000070508080808020202020A0A080804041F
:10018000040401010101010101010303030303034D
:100190000303040707070C0C0C0C0C0C0C0C0202DC
:1001A000020206060606060606060B0B0B0B0B0BD9
:1001B0000B0B010210202008081020401020408066
:1001C000020102010804020101020408102040801B
:1001D00080402010080402018004020180402010A9
:1001E00008040201080402010102040810204080F2
:1001F000010204081020408000000A0B02090C0DC7
:100200000E080703040100000000000000000000C9
:1002100000000000000000000000000000000000DE
:10022000000000001211100000000000000000009B
:100230000000000000000000000000000000112489
:100240001FBECFEFD1E2DEBFCDBF00E00CBF12E09A
:10025000A0E0B2E0E0E8FAE000E00BBF02C00790E7
:100260000D92A031B107D9F722E0A0E1B2E001C0C0
:100270001D92AE31B207E1F70E9448040C943E058E
:100280000C940000282F30E0F901E850FE4F9491C3
:10029000F901EE54FE4F449124593E4FF901249147
:1002A000222309F435C0992311F191509231F8F4C9
:1002B000E92FF0E08827E05AFE4F8F4F0C94360567
:1002C00091019501720189018D01770198019E01CB
:1002D000A201A801AC01B001B601BA017701BE01CB
:1002E000C401C801809180008F7780938000E22F45
:1002F000F0E0EE0FFF1FEE5AFE4FA591B4918FB7BD
:10030000F894EC91611148C040954E234C938FBFF7
:100310000895809180008F7DE8CF80918000877F55
:10032000E4CF84B58F7784BDE2CF84B58F7DFBCFDA
:100330008091B0008F778093B000D9CF8091B000CA
:100340008F7DF9CF809190008F7780939000CFCFF1
:10035000809190008F7DF9CF80919000877FF5CFBD
:100360008091A0008F778093A000C1CF8091A000E2
:100370008F7DF9CF8091A000877FF5CF80912001FC
:100380008F7780932001B3CF809120018F7DF9CFAB
:1003900080912001877FF5CF4E2BB8CFCF9310925D
:1003A0001D0210921C021092120210921102C0E063
:1003B00060E08C2F0E944201CF5FC730C9F7CF9118
:1003C0000895CF93DF9390E0FC01EE54FE4F24910B
:1003D00084599E4FFC0184918823D1F090E0880FCE
:1003E000991FFC01E85CFE4FA591B491FC01EE5A07
:1003F000FE4FC591D49161110EC09FB7F8948C91B6
:10040000E22FE0958E238C932881E223E8839FBF1F
:10041000DF91CF9108958FB7F894EC91E22BEC9394
:100420008FBFF6CF3FB7F8948091180290911902D0
:10043000A0911A02B0911B0226B5A89B05C02F3FC0
:1004400019F00196A11DB11D3FBFBA2FA92F982FFA
:100450008827BC01CD01620F711D811D911D42E0F5
:10046000660F771F881F991F4A95D1F70895089541
:100470001F93CF93DF9380911C0290911D020297EE
:1004800061F01092100282E090E090931D02809340
:100490001C02DF91CF911F910895C0911102D0915C
:1004A0001202CA30D105B0F410E060911002812F21
:1004B0000E9442011F5F1730C1F79091100281E046
:1004C000911180E0809310022196D0931202C09384
:1004D0001102DFCF10921D0210921C021092120224
:1004E00010921102D6CFCF93DF9380911C0290918E
:1004F0001D02019789F0C0E060E08C2F0E9442014C
:10050000CF5FC730C9F781E090E090931D028093E0
:100510001C02DF91CF910895C0911102D091120277
:10052000C730D10554F461E08C2F0E94420121961E
:10053000D0931202C0931102ECCF10921D021092C0
:100540001C021092120210921102E3CF1F920F921E
:100550000FB60F9211242F933F938F939F93AF93D6
:10056000BF938091140290911502A0911602B09150
:1005700017023091130223E0230F2D3758F501960F
:10058000A11DB11D209313028093140290931502B4
:10059000A0931602B093170280911802909119024D
:1005A000A0911A02B0911B020196A11DB11D80936A
:1005B000180290931902A0931A02B0931B02BF91E4
:1005C000AF919F918F913F912F910F900FBE0F9000
:1005D0001F90189526E8230F0296A11DB11DD2CFBA
:1005E0001F920F920FB60F9211240BB60F922F93FA
:1005F0003F934F935F936F937F938F939F93AF93AB
:10060000BF93EF93FF93E0910E02F0910F021995C3
:10061000FF91EF91BF91AF919F918F917F916F91DA
:100620005F914F913F912F910F900BBE0F900FBE96
:100630000F901F9018951F920F920FB60F921124D2
:100640000BB60F922F933F934F935F936F937F93CC
:100650008F939F93AF93BF93EF93FF93E0910C021F
:10066000F0910D021995FF91EF91BF91AF919F917C
:100670008F917F916F915F914F913F912F910F904B
:100680000BBE0F900FBE0F901F9018951F920F92E8
:100690000FB60F9211240BB60F922F933F934F93E7
:1006A0005F936F937F938F939F93AF93BF93EF93DA
:1006B000FF93E0910202F09103021995FF91EF91EF
:1006C000BF91AF919F918F917F916F915F914F916A
:1006D0003F912F910F900BBE0F900FBE0F901F9068
:1006E00018951F920F920FB60F9211240BB60F920E
:1006F0002F933F934F935F936F937F938F939F932A
:10070000AF93BF93EF93FF93E0910002F09101024A
:100710001995FF91EF91BF91AF919F918F917F912B
:100720006F915F914F913F912F910F900BBE0F9062
:100730000FBE0F901F9018951F920F920FB60F9239
:1007400011240BB60F922F933F934F935F936F93A8
:100750007F938F939F93AF93BF93EF93FF93E0911A
:100760000A02F0910B021995FF91EF91BF91AF91A1
:100770009F918F917F916F915F914F913F912F91B9
:100780000F900BBE0F900FBE0F901F9018951F92E9
:100790000F920FB60F9211240BB60F922F933F9327
:1007A0004F935F936F937F938F939F93AF93BF9379
:1007B000EF93FF93E0910802F09109021995FF91E0
:1007C000EF91BF91AF919F918F917F916F915F91C9
:1007D0004F913F912F910F900BBE0F900FBE0F9036
:1007E0001F9018951F920F920FB60F9211240BB6FF
:1007F0000F922F933F934F935F936F937F938F93BA
:100800009F93AF93BF93EF93FF93E0910602F09114
:1008100007021995FF91EF91BF91AF919F918F9131
:100820007F916F915F914F913F912F910F900BBEF0
:100830000F900FBE0F901F9018951F920F920FB63A
:100840000F9211240BB60F922F933F934F935F9308
:100850006F937F938F939F93AF93BF93EF93FF9388
:10086000E0910402F09105021995FF91EF91BF917B
:10087000AF919F918F917F916F915F914F913F9138
:100880002F910F900BBE0F900FBE0F901F901895D9
:10089000789484B5826084BD84B5816084BD85B55B
:1008A000826085BD85B5816085BD80916E00816067
:1008B00080936E001092810080918100826080930D
:1008C000810080918100816080938100809180000F
:1008D0008160809380008091B10084608093B1003A
:1008E0008091B00081608093B0008091910082601F
:1008F000809391008091910081608093910080911C
:1009000090008160809390008091A100826080932C
:10091000A1008091A10081608093A1008091A0003E
:1009200081608093A00080912101826080932101E9
:10093000809121018160809321018091200181605B
:100940008093200180917A00846080937A00809166
:100950007A00826080937A0080917A00816080932F
:100960007A0080917A00806880937A001092C100AA
:1009700061E085E10E94E10161E085E10E944201C0
:10098000C0E061E08C2F0E94E10160E08C2F0E94AA
:100990004201CF5FC730A9F760E082E10E94E10128
:1009A00060E083E10E94E10160E084E10E94E101F6
:1009B00083E792E090930B0280930A028091690092
:1009C0008F7380936900EB9A88E392E09093090219
:1009D00080930802809169008F7C80936900EA9A75
:1009E0008EEC91E09093070280930602809169005B
:1009F000837F80936900E99AC0E0D0E080911C0277
:100A000090911D028130910561F50E9473020E9450
:100A100012026B017C0184EF882E99249394A12CFF
:100A2000B12C0E9412026C197D098E099F09683E43
:100A3000734081059105A8F321E0821A9108A1086D
:100A4000B10888EEC80E83E0D81EE11CF11C8114A9
:100A50009104A104B10429F7209781F20E940000BB
:100A6000CDCF0297A1F60E943802D1CFEE0FFF1F23
:100A7000881F8BBF0790F691E02D1994F894FFCF53
:100A8000370237023702370237023702370237029E
:00000001FF
