:100000000C9422010C9453010C9453010C94530151
:100010000C9453010C9453010C9453010C94530110
:100020000C9453010C9453010C9453010C94530100
:100030000C9453010C9453010C9453010C945301F0
:100040000C9453010C94D2060C9453010C9453015C
:100050000C9453010C9453010C9453010C94FE0521
:100060000C9453010C9453010C9453010C945301C0
:100070000C9453010C9453010C9453010C945301B0
:100080000C94A4060C9453010C9453010C9453014A
:100090000C9453010C9453010C9453010C94530190
:1000A0000C9453010C9453010C9476060C94530158
:1000B0000C9453010C9453010C9453010C94480676
:1000C0000C9453010C9453010C9453010C94530160
:1000D0000C9453010C9453010C9453010C94530150
:1000E0000C9453010C9484020C9449020C947602F3
:1000F0000C947A020C94CC090C9472020C94540265
:100100000C946C020C94DB030C94D1010C945E02F1
:100110000C94DC030C9445020C9480020C94330282
:100120000C9451020C944D020C945A020C946802E7
:100130000C9464020C9494050C942E02000022008E
:10014000250028002B002E003100340002010000A1
:10015000050108010B0100000A0B02090C0D0E0835
:100160000703040100000000000000000000000080
:10017000000000000000000000000000000000007F
:10018000000012111000000000000000000000003C
:10019000000000000000000000000000000021003E
:1001A000240027002A002D00300033000101000048
:1001B000040107010A010102102020080810204054
:1001C000102040800201020108040201010204081B
:1001D00010204080804020100804020180040201A9
:1001E00080402010080402010804020101020408F2
:1001F00010204080010204081020408005050505FC
:10020000070508080808020202020A0A080804048E
:1002100004040101010101010101030303030303BC
:100220000303040707070C0C0C0C0C0C0C0C02024B
:10023000020206060606060606060B0B0B0B0B0B48
:100240000B0BCC0911241FBECFEFD1E2DEBFCDBF17
:1002500000E00CBF12E0A0E0B2E0E6EAFAE100E064
:100260000BBF02C007900D92AE34B107D9F723E05F
:10027000AEE4B2E001C01D92A931B207E1F711E08E
:10028000C2E2D1E000E006C021970109802FFE0103
:100290000E94240CC132D10780E00807A9F70E9410
:1002A00000070C94510D0C940000CF92DF92EF9256
:1002B000FF92DC01A03282E0B807D4F5A53BB1057E
:1002C00014F0A4EBB0E04091FB0228E830E0241BDE
:1002D000310947FD3395220F331F220F331F690168
:1002E000330FEE08FF084091FC0228E532E0241BA2
:1002F000310947FD3395220F331F220F331F032E81
:10030000000C440B550B2C193D094E095F09B7FF32
:1003100002C0B0E0A0E00E943C0A24EB30E040E0E4
:1003200050E00E94120AC20ED31EE41EF51ED60132
:10033000E091FA02E03380F52091FB0288E890E03A
:10034000821B910927FD9395880F991F880F991F8C
:10035000A817B90784F02091FC0288E592E0821B7F
:10036000910927FD9395880F991F880F991FA8174A
:10037000B9070CF4CD010297880F991F4FB7F89475
:100380002E2F30E0F901EE0FFF1FE20FF31FE659A9
:10039000FD4F928381834FBFFF90EF90DF90CF900E
:1003A0000895AF92BF92CF92DF92EF92FF920F9398
:1003B0001F93CF93DF936C017B018B01040F151FFB
:1003C000EB015E01AE18BF08C017D10759F0699163
:1003D000D601ED91FC910190F081E02DC6011995B7
:1003E000892B79F7C501DF91CF911F910F91FF9074
:1003F000EF90DF90CF90BF90AF900895282F30E01E
:10040000F901EA5AFE4F9491F901EA54FE4F4491E2
:1004100024503E4FF9012491222309F435C0992339
:1004200011F191509231F8F4E92FF0E08827E45E61
:10043000FD4F8F4F0C94240C4D0251022E024502A9
:100440004902330254025A025E02640268026C02DC
:100450007202760233027A02800284028091800066
:100460008F7780938000E22FF0E0EE0FFF1FE45CB7
:10047000FE4FA591B4918FB7F894EC91611148C0EB
:1004800040954E234C938FBF0895809180008F7DBF
:10049000E8CF80918000877FE4CF84B58F7784BDDB
:1004A000E2CF84B58F7DFBCF8091B0008F778093B2
:1004B000B000D9CF8091B0008F7DF9CF80919000AE
:1004C0008F7780939000CFCF809190008F7DF9CF70
:1004D00080919000877FF5CF8091A0008F778093E7
:1004E000A000C1CF8091A0008F7DF9CF8091A000A6
:1004F000877FF5CF809120018F7780932001B3CF44
:10050000809120018F7DF9CF80912001877FF5CFE9
:100510004E2BB8CFCF93DF9390E0FC01EA54FE4F0F
:10052000249184509E4FFC0184918823D1F090E067
:10053000880F991FFC01E456FE4FA591B491FC0170
:10054000E45CFE4FC591D49161110EC09FB7F89441
:100550008C91E22FE0958E238C932881E223E8830F
:100560009FBFDF91CF9108958FB7F894EC91E22B64
:10057000EC938FBFF6CF3FB7F894809158029091DB
:100580005902A0915A02B0915B0226B5A89B05C002
:100590002F3F19F00196A11DB11D3FBFBA2FA92F02
:1005A000982F8827BC01CD01620F711D811D911DFF
:1005B00042E0660F771F881F991F4A95D1F708956B
:1005C0008F929F92AF92BF92CF92DF92EF92FF9263
:1005D0000E94BB024B015C0184E6C82ED12CE12CA9
:1005E000F12C0E94BB02681979098A099B09683EAF
:1005F000734081059105A8F321E0C21AD108E108F2
:10060000F10888EE880E83E0981EA11CB11CC1146D
:10061000D104E104F10429F7FF90EF90DF90CF902F
:10062000BF90AF909F908F9008952FB7F8946091EE
:1006300054027091550280915602909157022FBF3B
:100640000895AF92BF92CF92DF92EF92FF920F93F5
:100650001F93CF93DF936B017A01EC01C15BDD4FF8
:1006600028813CE0389F8001399F100D1124A09013
:100670004E02B12C27FF1FC0FB011182108288811E
:100680008F5F888388819801280F311D87FD3A95F7
:10069000F6012A153B051CF488818C30C4F1808159
:1006A0009181049680349C4908F473C0F6018081DE
:1006B0009181049670C088819801280F311D87FDB3
:1006C0003A952A153B05DCF68881A801480F511D93
:1006D00087FD5A95FA01EE0FFF1FE40FF51FE6594B
:1006E000FD4F808186FFCBCF8881F801E80FF11D97
:1006F00087FDFA95CF01EE0FFF1FE80FF91FE659AE
:10070000FD4F808160E08F730E94FE01B8CF808131
:1007100091812881A801420F511D27FD5A959A0108
:10072000FA01EE0FFF1FE20FF31FE659FD4F218183
:100730003281820F931FF701918380838881980112
:10074000280F311D87FD3A95F901EE0FFF1FE20FCB
:10075000F31FE659FD4F808186FF22C08881080F74
:10076000111D87FD1A95F801EE0FFF1FE00FF11F15
:10077000E659FD4F808161E08F73DF91CF911F912A
:100780000F91FF90EF90DF90CF90BF90AF900C94BF
:10079000FE0180E49CE9F701918380838FEF8883D9
:1007A000DF91CF911F910F91FF90EF90DF90CF904D
:1007B000BF90AF900895089590E080E008958EBDB9
:1007C00000000DB407FEFDCF8EB508958F929F9265
:1007D000AF92BF920F931F93CF93DF93CDB7DEB746
:1007E000A1970FB6F894DEBF0FBECDBF19A242305D
:1007F00008F44AE08E010F5D1F4F842E912CB12C1E
:10080000A12CA50194010E94440AE62FB901CA0156
:10081000EA3044F5E05DD801EE938D01232B242BC3
:10082000252B79F790E080E0109769F0FD010190A9
:100830000020E9F73197AF014A1B5B0BBD018DEF3B
:1008400092E00E94D101A1960FB6F894DEBF0FBED0
:10085000CDBFDF91CF911F910F91BF90AF909F902F
:100860008F900895E95CD7CFFC0101900020E9F753
:100870003197AF01481B590BBC018DEF92E00C94EE
:10088000D101CF93DF93EC0160E08E810E94FE01E5
:1008900061E08E810E94FE0160E08E810E94FE0177
:1008A0008BE891E00197F1F7DF91CF910895CF9216
:1008B000DF92EF92FF920F931F93CF93DF936C0120
:1008C0007C0187E0E80EF11CD0E0C0E0062F10E0CC
:1008D000B8010C2E02C0759567950A94E2F7617015
:1008E000F70181917F010E94FE012196C430D1055C
:1008F00079F7C601DF91CF911F910F91FF90EF9093
:10090000DF90CF900C944104CF92DF92EF92FF9250
:100910000F931F93CF93DF93EC01F62E642F8C81FE
:100920000E94FE018D818F3F19F060E00E94FE0160
:100930000F2D10E08F8584FF25C06E0187E0C80E63
:10094000D11CF12CE12CB8010E2C02C075956795D5
:100950000A94E2F76170F60181916F010E94FE0135
:10096000FFEFEF1AFF0A88E0E816F10461F7CE0105
:10097000DF91CF911F910F91FF90EF90DF90CF907B
:100980000C944104B80184E0759567958A95E1F768
:10099000CE010E9457046F2DCE01DF91CF911F91A0
:1009A0000F91FF90EF90DF90CF900C94570440E0B0
:1009B000682F8DEF92E00C94840481E00E94D704AC
:1009C0008BE39FE10197F1F70895CF93DF93823096
:1009D00029F490910C03986090930C03809310037A
:1009E0001092110380E48093120380E1809313033B
:1009F00080E58093140361E0809101030E948A02E4
:100A0000809102038F3F19F061E00E948A0261E049
:100A1000809103030E948A02CDEFD2E09E012D5FF8
:100A2000324080910C0384FD0BC084E090E021965D
:100A30002817390744F461E08E810E948A02EECFC4
:100A400088E090E0F4CF8BE39DE00197F1F760E060
:100A5000809101030E94FE0160E0809103030E94E7
:100A6000FE01809102038F3F19F060E00E94FE01B9
:100A700080910C0384FD34C063E08DEF92E00E940E
:100A80005704CBE4D6E4CE010197F1F763E08DEF94
:100A900092E00E9457042197F1F763E08DEF92E016
:100AA0000E94570483E592E00197F1F762E08DEF31
:100AB00092E00E94570480910C0380620E94D70448
:100AC00084E080930D038CE00E94D7040E94DD0433
:100AD00082E080930E0386E0DF91CF910C94D704DF
:100AE00080620E94D7048BE496E40197F1F780912D
:100AF0000C0380620E94D70483E592E00197F1F72E
:100B000080910C0380620E94D704D5CF909110038E
:100B1000891710F08FEF890FE82FF0E0E350FD4FB9
:100B2000848980680C94D70441E00E94840481E0A9
:100B300090E00895CF92DF92EF92FF9297FF18C056
:100B40006B017C0141E06DE28DEF92E00E94840434
:100B500066277727CB016C197D098E099F094AE02A
:100B60000E94E6030196FF90EF90DF90CF900895EA
:100B70004AE0FF90EF90DF90CF900C94E603CF9384
:100B8000DF93409168025091690220915D0230919B
:100B90005E024217530779F1EC010E94DD0480E008
:100BA0000E94860582E192E00E943404609168020E
:100BB00070916902072E000C880B990B0E949A0510
:100BC000219789F481E00E94860589E192E00E94E4
:100BD000340460915F027091600280916102909193
:100BE00062020E949A058091680290916902909336
:100BF0005E0280935D02DF91CF9108951F920F9264
:100C00000FB60F9211242F933F938F939F93AF931F
:100C1000BF938091540290915502A0915602B091D9
:100C200057023091530223E0230F2D3758F50196D8
:100C3000A11DB11D2093530280935402909355023D
:100C4000A0935602B0935702809158029091590296
:100C5000A0915A02B0915B020196A11DB11D809333
:100C6000580290935902A0935A02B0935B02BF912D
:100C7000AF919F918F913F912F910F900FBE0F9049
:100C80001F90189526E8230F0296A11DB11DD2CF03
:100C90001F920F920FB60F9211240BB60F922F9343
:100CA0003F934F935F936F937F938F939F93AF93F4
:100CB000BF93EF93FF9348E251E064E271E090E06C
:100CC00080E00E942103FF91EF91BF91AF919F912E
:100CD0008F917F916F915F914F913F912F910F90E5
:100CE0000BBE0F900FBE0F901F9018951F920F9282
:100CF0000FB60F9211240BB60F922F933F934F9381
:100D00005F936F937F938F939F93AF93BF93EF9373
:100D1000FF9348EA50E064EA70E083E090E00E94CC
:100D20002103FF91EF91BF91AF919F918F917F919F
:100D30006F915F914F913F912F910F900BBE0F904C
:100D40000FBE0F901F9018951F920F920FB60F9223
:100D500011240BB60F922F933F934F935F936F9392
:100D60007F938F939F93AF93BF93EF93FF9348E944
:100D700050E064E970E082E090E00E942103FF917E
:100D8000EF91BF91AF919F918F917F916F915F9103
:100D90004F913F912F910F900BBE0F900FBE0F9070
:100DA0001F9018951F920F920FB60F9211240BB639
:100DB0000F922F933F934F935F936F937F938F93F4
:100DC0009F93AF93BF93EF93FF9348E850E064E89D
:100DD00070E081E090E00E942103FF91EF91BF91CC
:100DE000AF919F918F917F916F915F914F913F91C3
:100DF0002F910F900BBE0F900FBE0F901F90189564
:100E0000789484B5826084BD84B5816084BD85B5E5
:100E1000826085BD85B5816085BD80916E008160F1
:100E200080936E0010928100809181008260809397
:100E30008100809181008160809381008091800099
:100E40008160809380008091B10084608093B100C4
:100E50008091B00081608093B000809191008260A9
:100E600080939100809191008160809391008091A6
:100E700090008160809390008091A10082608093B7
:100E8000A1008091A10081608093A1008091A000C9
:100E900081608093A0008091210182608093210174
:100EA00080912101816080932101809120018160E6
:100EB0008093200180917A00846080937A008091F1
:100EC0007A00826080937A0080917A0081608093BA
:100ED0007A0080917A00806880937A001092C10035
:100EE00082E00E94E5040E94DD0460E086E30E9447
:100EF0008A028FEF9FEF90935E0280935D021092C3
:100F000063021092640210926502109266021092BF
:100F10005F02109260021092610210926202809150
:100F2000FA02803308F052C061E089E00E948A0230
:100F30008091FA02282F30E0F901EE0FFF1FE20F37
:100F4000F31FE659FD4F9081907C99609083109239
:100F5000FB021092FC022CE0622F0E94180C829F70
:100F6000B001112430E020E0AB01420F531FFA0121
:100F7000EE0FFF1FE40FF51FE659FD4F908196FD20
:100F800017C02F5F3F4F2C30310571F7813009F0CA
:100F9000C5C01092800082E080938100109285008D
:100FA00010928400B19A80916F00826080936F00EC
:100FB000E091FA028E2F90E0FC01EE0FFF1FE80F88
:100FC000F91FE659FD4F80818064808361E081E1F3
:100FD0000E948A0261E089E20E948A0261E089E25D
:100FE0000E94FE0161E08AE20E948A0261E08AE2D8
:100FF0000E94FE0161E083E10E948A02CFB7F8946B
:1010000080915C02811127C0E1E3F2E08491EBEE74
:10101000F1E09491E82FF0E0EE0FFF1FE456FE4F51
:10102000A591B491EC91E92321F461E085E30E945C
:10103000FE0161E085E30E948A028CB580618CBD6F
:101040008CB580648CBD61E084E30E948A0261E01B
:1010500083E30E948A0280915C028F5F80935C022E
:10106000CFBF8CB58C7F81608CBD8DB581608DBD0F
:1010700000E4C0E0D0E043E0B42E52E0A52E11E041
:1010800080917B00877F80937B0000937C00809120
:101090007A00806480937A0080917A0086FDFCCF8C
:1010A0008091780060917900762F682F072E000CD0
:1010B000880B990B0E941F0B20E030E04AE953E4B3
:1010C0000E94750A20E030E046E153E40E94AB0B39
:1010D0000E94E70A6B0170936902609368028CE3D7
:1010E000C816D1040CF046C010936702C601C29620
:1010F0000E94550180916702823009F44FC083300D
:1011000009F492C0813021F481E090E00E94BF0593
:10111000209709F4B5CF0E940000B2CF823061F46D
:10112000109290008093910010929500109294007C
:1011300088BB809371003CCF833069F41092A0008B
:1011400082E08093A1001092A5001092A40089BBB8
:10115000809372002DCF81112BCF1092200182E05D
:101160008093210110922501109224018ABB809363
:1011700073001ECFC601CC970B9768F4A09267024C
:101180000E9415036093630270936402809365026A
:1011900090936602ABCFB0926702A8CF90E080E058
:1011A0000E94BF050E9415032091630230916402E2
:1011B0007B01E21AF30AA7010F2C000C660B770BD8
:1011C00080915F0290916002A0916102B0916202F1
:1011D000840F951FA61FB71F80935F029093600234
:1011E000A0936102B093620281E00E94860589E1CA
:1011F00092E00E94340460915F02709160028091DD
:101200006102909162020E949A051E141F040CF064
:101210007FCF0E94150360936302709364028093F2
:1012200065029093660274CF84EB90E00E945501B2
:1012300060E089E20E94FE0160E08AE20E94FE0115
:1012400084E50E94DF038DE00E94DF0382E292E0EA
:101250000E94C80C61E089E20E94FE0161E08AE21E
:101260000E94FE010E94DD0480E00E94860584E267
:1012700092E00E94340481E00E94860580E392E0BF
:101280000E94340426E0E22EF12CCC24C394D12C0D
:101290000E94150360936302709364028093650259
:1012A00090936602CA94CD2809F06AC061E081E19A
:1012B0000E94FE0161E083E10E94FE01D12CC12C5D
:1012C0000E94E00281E0E81AF10811F70E94DD04B3
:1012D00080E00E9486058AE392E00E94340481E067
:1012E0000E94860565E070E080E090E00E949A052B
:1012F00089E492E00E94340484E0C82ED12CE12CD1
:10130000F12C0E9415036093630270936402809332
:1013100065029093660281E00E948605C701B601CE
:101320000E949A050E94E00281E0C81AD108E108F3
:10133000F1088FEFC816D806E806F80611F760E046
:1013400089E20E94FE0160E08AE20E94FE0183E5DC
:101350000E94DF038DE00E94DF038BE492E00E9495
:10136000C80C61E089E20E94FE0161E08AE20E940D
:10137000FE011093670290E080E00E945501C8CE04
:1013800060E081E10E94FE0160E083E10E94FE01D5
:10139000CC24C394D12C94CF80914E028033F0F5AD
:1013A00091E0980F90934E028093FA0290E0FC0136
:1013B000EE0FFF1FE80FF91FE659FD4F88EB9BE08A
:1013C00092838183109200031092FF028AE092E0E0
:1013D0009093FE028093FD0286E1809301038FEFDC
:1013E0008093020387E18093030388E180930403E1
:1013F00089E1809305038AE1809306038BE1809362
:101400000703109208031092090310920A03109226
:101410000B0310920C0381E00C94E5048FEF809392
:10142000FA02D0CF052E97FB1EF400940E94290AE1
:1014300057FD07D00E94440A07FC03D04EF40C94D9
:10144000290A50954095309521953F4F4F4F5F4F5A
:10145000089590958095709561957F4F8F4F9F4F20
:1014600008950E94660AA59F900DB49F900DA49FB9
:10147000800D911D11240895B7FF0C94310A0E942C
:10148000310A821B930B0895A1E21A2EAA1BBB1BE3
:10149000FD010DC0AA1FBB1FEE1FFF1FA217B30740
:1014A000E407F50720F0A21BB30BE40BF50B661F56
:1014B000771F881F991F1A9469F76095709580951A
:1014C00090959B01AC01BD01CF010895A29FB00191
:1014D000B39FC001A39F700D811D1124911DB29F68
:1014E000700D811D1124911D08950E94890A0C948C
:1014F000710B0E946A0B58F00E94630B40F029F4B4
:101500005F3F29F00C945A0B51110C94A50B0C94CD
:10151000600B0E94820B68F39923B1F3552391F37A
:10152000951B550BBB27AA2762177307840738F052
:101530009F5F5F4F220F331F441FAA1FA9F335D0AF
:101540000E2E3AF0E0E832D091505040E695001C63
:10155000CAF72BD0FE2F29D0660F771F881FBB1F1D
:10156000261737074807AB07B0E809F0BB0B802DFB
:10157000BF01FF2793585F4F3AF09E3F510578F027
:101580000C945A0B0C94A50B5F3FE4F3983ED4F3F4
:10159000869577956795B795F7959F5FC9F7880FFB
:1015A000911D9695879597F90895E1E0660F771F4D
:1015B000881FBB1F621773078407BA0720F0621BDE
:1015C000730B840BBA0BEE1F88F7E09508950E9409
:1015D000EE0A6894B1110C94A50B08950E948A0B31
:1015E00088F09F5798F0B92F9927B751B0F0E1F0E4
:1015F000660F771F881F991F1AF0BA95C9F714C094
:10160000B13091F00E94A40BB1E008950C94A40BAA
:10161000672F782F8827B85F39F0B93FCCF38695CC
:1016200077956795B395D9F73EF490958095709529
:1016300061957F4F8F4F9F4F0895E89409C097FBA6
:101640003EF490958095709561957F4F8F4F9F4F99
:101650009923A9F0F92F96E9BB279395F6958795DD
:1016600077956795B795F111F8CFFAF4BB0F11F4A0
:1016700060FF1BC06F5F7F4F8F4F9F4F16C0882347
:1016800011F096E911C0772321F09EE8872F762F7D
:1016900005C0662371F096E8862F70E060E02AF0BE
:1016A0009A95660F771F881FDAF7880F96958795AA
:1016B00097F9089597F99F6780E870E060E00895D2
:1016C0009FEF80EC089500240A941616170618065A
:1016D0000906089500240A94121613061406050636
:1016E0000895092E0394000C11F4882352F0BB0FC7
:1016F00040F4BF2B11F460FF04C06F5F7F4F8F4F2A
:101700009F4F089557FD9058440F551F59F05F3F64
:1017100071F04795880F97FB991F61F09F3F79F013
:1017200087950895121613061406551FF2CF469595
:10173000F1DF08C0161617061806991FF1CF869517
:101740007105610508940895E894BB2766277727FB
:10175000CB0197F908950E94BE0B0C94710B0E9467
:10176000630B38F00E946A0B20F0952311F00C9463
:101770005A0B0C94600B11240C94A50B0E94820B45
:1017800070F3959FC1F3950F50E0551F629FF001D4
:10179000729FBB27F00DB11D639FAA27F00DB11DED
:1017A000AA1F649F6627B00DA11D661F829F222776
:1017B000B00DA11D621F739FB00DA11D621F839FFD
:1017C000A00D611D221F749F3327A00D611D231FD3
:1017D000849F600D211D822F762F6A2F11249F5721
:1017E00050409AF0F1F088234AF0EE0FFF1FBB1F24
:1017F000661F771F881F91505040A9F79E3F5105E3
:1018000080F00C945A0B0C94A50B5F3FE4F3983EC8
:10181000D4F3869577956795B795F795E7959F5F8C
:10182000C1F7FE2B880F911D9695879597F908951E
:10183000991B79E004C0991F961708F0961B881F22
:101840007A95C9F780950895EE0FFF1F881F8BBF0B
:101850000790F691E02D19940F931F93CF93DF9388
:101860008230910510F482E090E0E0911703F0914E
:10187000180330E020E0B0E0A0E0309799F42115A3
:10188000310509F44AC0281B390B24303105D8F53D
:101890008A819B816115710589F1FB0193838283A4
:1018A000FE0111C0408151810281138148175907FF
:1018B000E0F04817590799F4109761F012960C93CD
:1018C000129713961C933296CF01DF91CF911F91FF
:1018D0000F9108950093170310931803F4CF211567
:1018E000310551F04217530738F0A901DB019A0185
:1018F000BD01DF01F801C1CFEF01F9CF90931803CB
:1019000080931703CDCFFE01E20FF31F81939193D4
:101910002250310939832883D7CF20911503309184
:101920001603232B41F420910202309103023093DD
:101930001603209315032091000230910102211516
:10194000310541F42DB73EB7409104025091050294
:10195000241B350BE0911503F0911603E217F307F2
:10196000A0F42E1B3F0B2817390778F0AC014E5F0F
:101970005F4F2417350748F04E0F5F1F5093160333
:1019800040931503819391939FCFF0E0E0E09CCFCB
:10199000CF93DF930097E9F0FC0132971382128214
:1019A000A0911703B0911803ED0130E020E01097EB
:1019B000A1F420813181820F931F20911503309172
:1019C00016032817390709F061C0F0931603E09356
:1019D0001503DF91CF910895EA01CE17DF07E8F5EF
:1019E0004A815B819E0141155105B1F7E901FB83F5
:1019F000EA8349915991C40FD51FEC17FD0761F493
:101A0000808191810296840F951FE90199838883D3
:101A1000828193819B838A83F0E0E0E012968D912E
:101A20009C9113970097B9F52D913C911197CD0199
:101A30000296820F931F20911503309116032817E9
:101A4000390739F6309751F51092180310921703A1
:101A5000B0931603A0931503BCCFD383C2834081F8
:101A60005181840F951FC817D90761F44E5F5F4FEE
:101A700088819981480F591F518340838A819B81B6
:101A8000938382832115310509F0B0CFF0931803B9
:101A9000E09317039ECFFD01DC01C0CF13821282B9
:061AA000D7CFF894FFCF40
:101AA600000019038000000000009405D101DC034A
:101AB600DB0354656D703A2000506F696E74733A9B
:101AC60020005400442041204E204720452052004B
:101AD60053746F7070696E6720005265737461721B
:0E1AE60074696E6720696E3A00730053000049
:00000001FF
