:100000000C9438010C9469010C9469010C946901F9
:100010000C9469010C9469010C9469010C946901B8
:100020000C9469010C9469010C9469010C946901A8
:100030000C9469010C9469010C9469010C94690198
:100040000C9469010C949B080C9469010C9469014F
:100050000C9469010C9469010C9469010C94C70714
:100060000C94C9080C9469010C9469010C94690101
:100070000C9469010C9469010C9469010C94690158
:100080000C946D080C9469010C9469010C9469013D
:100090000C9469010C9469010C9469010C94690138
:1000A0000C9469010C9469010C943F080C9469014B
:1000B0000C9469010C9469010C9469010C94110869
:1000C0000C9469010C9469010C9469010C94690108
:1000D0000C9469010C9469010C9469010C946901F8
:1000E0000C9469010C9450060C947E020C945302FB
:1000F0000C94B0020C949E040C9483020C949F0404
:100100000C94820C0C943E020C9475020C944C02DC
:100110000C945D020C9459020C94280D0C94F3017C
:100120000C9448020C9479020C94E1020C947F0226
:100130000C946B020C9444020C9471020C945002C7
:100140000C9463020C9467020C94210300002100BC
:10015000240027002A002D00300033000101000098
:10016000040107010A0100002200250028002B00DD
:100170002E003100340002010000050108010B01CE
:10018000000020002300260029002C002F00320050
:100190000001000003010601090105050505070529
:1001A00008080808020202020A0A080804040404F3
:1001B000010101010101010103030303030303031F
:1001C000040707070C0C0C0C0C0C0C0C02020202AE
:1001D00006060606060606060B0B0B0B0B0B0B0B97
:1001E0000102102020080810204010204080020149
:1001F000020108040201010204081020408080402E
:10020000201008040201800402018040201008042C
:1002100002010804020101020408102040800102CA
:1002200004081020408000000A0B02090C0D0E0883
:1002300007030401000000000000000000000000AF
:1002400000000000000000000000000000000000AE
:10025000000012111000000000000000000000006B
:10026000000000000000000000000000820C280DCB
:1002700011241FBECFEFD1E2DEBFCDBF00E00CBF27
:1002800012E0A0E0B2E0EEE5F3E200E00BBF02C056
:1002900007900D92A43BB107D9F724E0A4EBB2E09C
:1002A00001C01D92A632B207E1F711E0C7E3D1E029
:1002B00000E006C021970109802FFE010E947F0FF8
:1002C000C633D10780E00807A9F70E94F3080C9411
:1002D0009D110C9400008F929F92AF92BF92FF925B
:1002E0000F931F93CF93DF93F09007042FE22F1506
:1002F00008F44CC02091090408E512E0021B110922
:1003000027FD1395000F111F000F111F20910804E6
:10031000C8E8D0E0C21BD10927FDD395CC0FDD1F63
:10032000CC0FDD1F4E010D2E000CAA08BB08980152
:10033000012E000C440B550B281939094A095B0999
:10034000DC010E94920E24EB30E040E050E00E947D
:10035000680E820E931EA41EB51E8C169D062CF0F0
:10036000E801801691060CF4E4012297CC0FDD1F02
:100370002FB7F8948F2D90E0FC01EE0FFF1FE80FD0
:10038000F91FE958FC4FD283C1832FBFDF91CF9172
:100390001F910F91FF90BF90AF909F908F90089505
:1003A00096E0899FD0011124A85FBC4F90967C9362
:1003B0006E935F9791E091969C939197E09175036E
:1003C000F091760390917403992339F0309751F0AE
:1003D000811108C0809124031994309719F05C961C
:1003E0008C91FACF0895AF92BF92CF92DF92EF92A5
:1003F000FF920F931F93CF93DF936C017B018B01CF
:10040000040F151FEB015E01AE18BF08C017D1071E
:1004100059F06991D601ED91FC910190F081E02DA8
:10042000C6011995892B79F7C501DF91CF911F91ED
:100430000F91FF90EF90DF90CF90BF90AF90089515
:100440008150823108F05AC0E82FF0E08827E45D3F
:10045000FD4F8F4F0C947F0F4C0250023E0244021E
:1004600048027E02530259025D02630267026B0278
:10047000710275027E0279027F0283028091800000
:100480008F77809380000895809180008F7DF9CFD1
:1004900080918000877FF5CF84B58F7784BD0895E4
:1004A00084B58F7DFBCF8091B0008F778093B000B3
:1004B00008958091B0008F7DF9CF809190008F7763
:1004C000809390000895809190008F7DF9CF809166
:1004D0009000877FF5CF8091A0008F778093A00058
:1004E00008958091A0008F7DF9CF8091A000877F33
:1004F000F5CF809120018F7780932001089580911E
:1005000020018F7DF9CF80912001877FF5CFCF9398
:10051000DF93282F30E0F901EA5DFD4F8491F90166
:10052000E052FE4FD491F901E656FE4FC491CC2320
:10053000A1F081110E942002EC2FF0E0EE0FFF1FCE
:10054000E058FE4FA591B491EC91ED2381E090E04D
:1005500009F480E0DF91CF91089580E090E0FACF38
:10056000862F0C9487021F93CF93DF93282F30E0C0
:10057000F901EA5DFD4F8491F901E052FE4FD491FB
:10058000F901E656FE4FC491CC23A9F0162F811134
:100590000E942002EC2FF0E0EE0FFF1FEA59FE4F01
:1005A000A591B4918FB7F894EC91111108C0D09532
:1005B000DE23DC938FBFDF91CF911F910895DE2B57
:1005C000F8CF862F642F0C94B302CF93DF9390E083
:1005D000FC01E052FE4F249186569E4FFC0184910F
:1005E0008823C9F090E0880F991FFC01E45BFE4F5F
:1005F000A591B491FC01EA59FE4FC591D4916111C6
:100600000DC09FB7F8948C91209582238C9388819C
:10061000282328839FBFDF91CF910895623051F442
:100620009FB7F8943C91822F809583238C93E88127
:100630002E2BEFCF8FB7F894EC912E2B2C938FBFEE
:10064000EACF862F642F0C94E5023FB7F89480918F
:10065000C4029091C502A091C602B091C70226B50E
:10066000A89B05C02F3F19F00196A11DB11D3FBFEA
:10067000BA2FA92F982F8827BC01CD01620F711DB9
:10068000811D911D42E0660F771F881F991F4A95B3
:10069000D1F708958F929F92AF92BF92CF92DF923F
:1006A000EF92FF924B015C010E9425036B017C01DC
:1006B0000E9425036C197D098E099F09683E7340CD
:1006C00081059105A8F321E0821A9108A108B108DB
:1006D00088EEC80E83E0D81EE11CF11C8114910441
:1006E000A104B10429F7FF90EF90DF90CF90BF9065
:1006F000AF909F908F9008952FB7F8946091C002AB
:100700007091C1028091C2029091C3022FBF0895DF
:100710000F931F93CF93DF93C82FD62F86E0C89FE8
:10072000F0011124E85FFC4F11A2878D90A1813068
:100730009105F1F058F082309105F1F1039709F439
:1007400040C0DF91CF911F910F9108956623C9F3A7
:1007500061E070E08C2F0E94D0010E947C036093C6
:100760006003709361038093620390936303E9CF06
:100770000E947C0300916003109161032091620349
:1007800030916303AB01BC01401B510B620B730B37
:100790008091720390917303B0E0A0E084179507F5
:1007A000A607B70748F462E070E08C2FDF91CF9185
:1007B0001F910F910C94D00163E070E0D111C1CF73
:1007C000F4CF70E060E0F1CFAF92BF92CF92DF92B2
:1007D000EF92FF920F931F93CF93DF936B017A01F8
:1007E000EC01C554DD4F28813CE0389F8001399FE2
:1007F000100D1124A090BA02B12C27FF1FC0FB01DD
:100800001182108288818F5F888388819801280FE8
:10081000311D87FD3A95F6012A153B051CF48881A8
:100820008C30C4F180819181049680349C4908F415
:1008300073C0F60180819181049670C0888198010F
:10084000280F311D87FD3A952A153B05DCF6888176
:10085000A801480F511D87FD5A95FA01EE0FFF1FA1
:10086000E40FF51FE958FC4F808186FFCBCF8881CC
:10087000F801E80FF11D87FDFA95CF01EE0FFF1F7C
:10088000E80FF91FE958FC4F808160E08F730E94E8
:10089000B302B8CF808191812881A801420F511DF8
:1008A00027FD5A959A01FA01EE0FFF1FE20FF31F81
:1008B000E958FC4F21813281820F931FF701918308
:1008C000808388819801280F311D87FD3A95F901B1
:1008D000EE0FFF1FE20FF31FE958FC4F808186FFE8
:1008E00022C08881080F111D87FD1A95F801EE0FAF
:1008F000FF1FE00FF11FE958FC4F808161E08F730B
:10090000DF91CF911F910F91FF90EF90DF90CF90EB
:10091000BF90AF900C94B30280E49CE9F7019183FF
:1009200080838FEF8883DF91CF911F910F91FF908C
:10093000EF90DF90CF90BF90AF900895089590E032
:1009400080E008958F929F92AF92BF920F931F9372
:10095000CF93DF93CDB7DEB7A1970FB6F894DEBF84
:100960000FBECDBF19A2423008F44AE08E010F5DE0
:100970001F4F842E912CB12CA12CA50194010E9413
:100980009A0EE62FB901CA01EA3044F5E05DD801BC
:10099000EE938D01232B242B252B79F790E080E01B
:1009A000109769F0FD0101900020E9F73197AF0140
:1009B0004A1B5B0BBD018AE094E00E94F301A19603
:1009C0000FB6F894DEBF0FBECDBFDF91CF911F9160
:1009D0000F91BF90AF909F908F900895E95CD7CF13
:1009E000FC0101900020E9F73197AF01481B590B3A
:1009F000BC018AE094E00C94F301CF93DF93EC0107
:100A000060E08E810E94B30261E08E810E94B30299
:100A100060E08E810E94B3028BE891E00197F1F7CC
:100A2000DF91CF910895CF92DF92EF92FF920F93D3
:100A30001F93CF93DF936C017C0187E0E80EF11CDC
:100A4000D0E0C0E0062F10E0B8010C2E02C0759572
:100A500067950A94E2F76170F70181917F010E9426
:100A6000B3022196C430D10579F7C601DF91CF9149
:100A70001F910F91FF90EF90DF90CF900C94FD04A9
:100A8000CF92DF92EF92FF920F931F93CF93DF935A
:100A9000EC01F62E642F8C810E94B3028D818F3F72
:100AA00019F060E00E94B3020F2D10E08F8584FFE3
:100AB00025C06E0187E0C80ED11CF12CE12CB801D5
:100AC0000E2C02C0759567950A94E2F76170F601E5
:100AD00081916F010E94B302FFEFEF1AFF0A88E0D5
:100AE000E816F10461F7CE01DF91CF911F910F91CC
:100AF000FF90EF90DF90CF900C94FD04B80184E05C
:100B0000759567958A95E1F7CE010E9413056F2DC3
:100B1000CE01DF91CF911F910F91FF90EF90DF9069
:100B2000CF900C94130540E0682F8AE094E00C9479
:100B3000400581E00E9493058BE39FE10197F1F767
:100B40000895CF93DF93823029F49091190498602F
:100B50009093190480931D0410921E0480E48093E6
:100B60001F0480E18093200480E58093210461E0EC
:100B700080910E040E94E50280910F048F3F19F0CE
:100B800061E00E94E50261E0809110040E94E502AC
:100B9000CAE0D4E09E012A5034408091190484FDBB
:100BA0000BC084E090E021962817390744F461E0F7
:100BB0008E810E94E502EECF88E090E0F4CF8BE3D7
:100BC0009DE00197F1F760E080910E040E94B3026E
:100BD00060E0809110040E94B30280910F048F3F67
:100BE00019F060E00E94B3028091190484FD34C0C2
:100BF00063E08AE094E00E941305CBE4D6E4CE01E2
:100C00000197F1F763E08AE094E00E9413052197D1
:100C1000F1F763E08AE094E00E94130583E592E037
:100C20000197F1F762E08AE094E00E941305809159
:100C3000190480620E94930584E080931A048CE07A
:100C40000E9493050E94990582E080931B0486E030
:100C5000DF91CF910C94930580620E9493058BE401
:100C600096E40197F1F78091190480620E94930540
:100C700083E592E00197F1F78091190480620E9468
:100C80009305D5CF90911D04891710F08FEF890F30
:100C9000E82FF0E0E65FFB4F848980680C949305B1
:100CA00041E00E94400581E090E00895CF92DF92FC
:100CB000EF92FF926C01990FEE08FF08F7FE16C045
:100CC00041E06DE28AE094E00E94400566277727C4
:100CD000CB016C197D098E099F094AE00E94A2048C
:100CE0000196FF90EF90DF90CF9008954AE0C70102
:100CF000B601FF90EF90DF90CF900C94A2040F9379
:100D00001F93CF93DF93EC0188819981009759F06D
:100D10002A813B812617370730F081E0DF91CF91A0
:100D20001F910F9108958B016F5F7F4F0E94AC1050
:100D3000009759F0998388831B830A832C813D8116
:100D4000232B59F7FC011082E8CF80E0E7CFCF9347
:100D5000DF93EC0188819981009711F00E942310A4
:100D6000198218821D821C821B821A82DF91CF9108
:100D70000895EF92FF920F931F93CF93DF93EC01AF
:100D80007B018A01BA010E947F0681110BC0CE014E
:100D90000E94A706CE01DF91CF911F910F91FF9086
:100DA000EF9008951D830C83B701888199810E947B
:100DB0009611F0CFEF92FF920F931F93CF93DF9393
:100DC00000D000D01F921F92CDB7DEB7082F109130
:100DD000D402133011F08A3211F0033229F40E9448
:100DE000990580E00E944206033209F451C00A329C
:100DF00009F470C01150123008F05FC01A821982D5
:100E00001C821B821E821D826091B4027091B50209
:100E10006115710541F04091B8025091B902CE01BF
:100E200001960E94B9060F831886ED80FE808FEF31
:100E3000E81AF80AB701CE0101960E947F068823BE
:100E400009F49BC029813A818D819E81BE01695F31
:100E50007F4F820F931F0E949611FE82ED8269815F
:100E60007A816115710509F48DC04D815E8184EB35
:100E700092E00E94B90689819A81009711F00E9440
:100E8000231041E0602F8AE094E00E94400515C0E5
:100E90008AE590E00E946B018FE292E00E94F004EC
:100EA00081E00E94420650E040E066EA72E084EB96
:100EB00092E00E94B9061092D40228960FB6F894D8
:100EC000DEBF0FBECDBFDF91CF911F910F91FF907D
:100ED000EF90089511110BC080E492E00E94F0049D
:100EE00081E00E94420681E08093D402E6CF8091A7
:100EF000B8029091B902892B01F3113019F5809154
:100F0000B4029091B5020097C9F00E94310D709320
:100F1000C9026093C8028CE492E00E94F00481E070
:100F20000E94420682E08093D40250E040E066EAEC
:100F300072E084EB92E00E94B906BFCF60E070E0FF
:100F4000CB01E5CF123009F0B8CF8091B402909177
:100F5000B502009771F00E94310D7093CD0260933D
:100F6000CC0283E08093D40284EB90E00E946B017A
:100F7000A4CF60E070E0CB01F0CFCE0101960E94DB
:100F8000A7066DCF84EB92E00E94A70674CF1F9254
:100F90000F920FB60F9211242F933F938F939F932D
:100FA000AF93BF938091C0029091C102A091C20201
:100FB000B091C3023091BF0223E0230F2D3758F5C3
:100FC0000196A11DB11D2093BF028093C002909392
:100FD000C102A093C202B093C3028091C402909157
:100FE000C502A091C602B091C7020196A11DB11D14
:100FF0008093C4029093C502A093C602B093C70227
:10100000BF91AF919F918F913F912F910F900FBE04
:101010000F901F90189526E8230F0296A11DB11D71
:10102000D2CF1F920F920FB60F9211240BB60F92D0
:101030002F933F934F935F936F937F938F939F93E0
:10104000AF93BF93EF93FF9348E251E064E271E006
:1010500090E080E00E94E403FF91EF91BF91AF9197
:101060009F918F917F916F915F914F913F912F91C0
:101070000F900BBE0F900FBE0F901F9018951F92F0
:101080000F920FB60F9211240BB60F922F933F932E
:101090004F935F936F937F938F939F93AF93BF9380
:1010A000EF93FF9348EA50E064EA70E083E090E059
:1010B0000E94E403FF91EF91BF91AF919F918F91B7
:1010C0007F916F915F914F913F912F910F900BBE48
:1010D0000F900FBE0F901F9018951F920F920FB692
:1010E0000F9211240BB60F922F933F934F935F9360
:1010F0006F937F938F939F93AF93BF93EF93FF93E0
:1011000048E950E064E970E082E090E00E94E40386
:10111000FF91EF91BF91AF919F918F917F916F91CF
:101120005F914F913F912F910F900BBE0F900FBE8B
:101130000F901F9018951F920F920FB60F921124C7
:101140000BB60F922F933F934F935F936F937F93C1
:101150008F939F93AF93BF93EF93FF9348E850E033
:1011600064E870E081E090E00E94E403FF91EF9179
:10117000BF91AF919F918F917F916F915F914F91AF
:101180003F912F910F900BBE0F900FBE0F901F90AD
:1011900018951F920F920FB60F9211240BB60F9253
:1011A0008F939F93EF93FF938EB59091D3029233D9
:1011B00078F4E091D30291E09E0F9093D302F0E097
:1011C000EB52FD4F80838D3019F481E0809307034B
:1011D000FF91EF919F918F910F900BBE0F900FBEDB
:1011E0000F901F901895789484B5826084BD84B563
:1011F000816084BD85B5826085BD85B5816085BD12
:1012000080916E00816080936E00109281008091C9
:101210008100826080938100809181008160809351
:101220008100809180008160809380008091B10076
:1012300084608093B1008091B00081608093B000A1
:1012400080919100826080939100809191008160F3
:1012500080939100809190008160809390008091B4
:10126000A10082608093A1008091A10081608093A1
:10127000A1008091A00081608093A0008091210155
:1012800082608093210180912101816080932101FE
:101290008091200181608093200180917A00846098
:1012A00080937A0080917A00826080937A008091A6
:1012B0007A00816080937A0080917A0080688093C0
:1012C0007A001092C10082E00E94A1050E94990557
:1012D00080E00E9442068FE292E00E94F00481E0EA
:1012E0000E9442061092D40281E08093CE021092B6
:1012F000CF021092D0021092D1021092D2028FEF40
:101300009FEF9093CB028093CA02809107048033B1
:1013100008F052C061E089E00E94E5028091070474
:10132000282F30E0F901EE0FFF1FE20FF31FE958FD
:10133000FC4F9081907C99609083109208041092E9
:1013400009042CE0622F0E94730F829FB0011124C8
:1013500030E020E0AB01420F531FFA01EE0FFF1FF8
:10136000E40FF51FE958FC4F908196FD17C02F5FE1
:101370003F4F2C30310571F7813009F00CC11092CC
:10138000800082E08093810010928500109284009A
:10139000B19A80916F00826080936F00E0910704A2
:1013A0008E2F90E0FC01EE0FFF1FE80FF91FE958A8
:1013B000FC4F80818064808361E081E10E94E502CE
:1013C00061E082E30E94E50260E082E30E94B302F2
:1013D0008CB580648CBD1092D302109207038CB53B
:1013E00080688CBD812C912C5401839422242A94F2
:1013F000322C50E0652E50E0752E80910703882333
:10140000B1F1109207030E94990580E00E94420604
:101410008091D502833569F488E592E00E94F0045A
:1014200068EC70E080E090E00E944A0383E20E9452
:10143000DA068091D5028435C1F486E692E00E94F6
:10144000F00481E00E94420682E792E00E94F004EC
:1014500090E080E00E946B012AE02093D40264EFC8
:1014600071E080E090E00E944A031092D3028091E4
:10147000D402833009F0BBC080917B00877F8093CA
:101480007B0030E430937C0080917A00806480930C
:101490007A0080917A0086FDFCCF8091780060917F
:1014A0007900762F682F072E000C880B990B0E946D
:1014B0006F0D20E030E04AE953E40E94CB0E20E0BB
:1014C00030E046E153E40E94AA0D0E943D0F6B01FB
:1014D000EB018091CA029091CB029C012C193D092D
:1014E0001216130634F0F601E81BF90B1E161F0640
:1014F000BCF40E94990580E00E9442068EE792E0CB
:101500000E94F004C6010E94560681E00E94420635
:1015100085E892E00E94F004D092CB02C092CA0209
:101520008091C8029091C902C817D9071CF0F4E055
:10153000F093D40281E0809374030E947C030091B5
:101540006403109165032091660330916703AB013A
:10155000BC01401B510B620B730B80917003909187
:101560007103B0E0A0E084179507A607B70708F05D
:10157000C1C1C0E080916E03C81708F0C2C0E091FD
:101580006A03F0916B03EC0FF11D62E080810E9411
:10159000E502CF5FEFCF823061F41092900080932C
:1015A0009100109295001092940088BB8093710076
:1015B000F5CE833069F41092A00082E08093A10000
:1015C0001092A5001092A40089BB80937200E6CE11
:1015D0008111E4CE1092200182E0809321011092CB
:1015E0002501109224018ABB80937300D7CE8430EA
:1015F000B9F58091CC029091CD0201979093CD02E4
:101600008093CC0280E00E94420686E992E00E942C
:10161000F00480E00E9442068091CC029091CD02BD
:101620000E945606C091CC02D091CD02CE010D2E63
:10163000000CAA0BBB0B8093CF029093D002A09317
:10164000D102B093D20262E370E080E090E00E94A9
:101650004A03CD2B09F06ECF25E02093D4026ACF48
:10166000853009F067CFC5E0D0E061E081E10E94FC
:10167000B30262E370E080E090E00E944A0360E021
:1016800081E10E94B30262E370E080E090E00E949A
:101690004A03219751F780E00E94420687EA92E0D0
:1016A0000E94F0040E947C030091CF021091D002AE
:1016B0002091D1023091D202601B710B820B930BEF
:1016C0006C3271408105910508F434CF8091CE02CF
:1016D000882379F00E9499051092CE020E947C0323
:1016E0006093CF027093D0028093D1029093D20284
:1016F00021CF80E00E94420687EA92E00E94F00437
:10170000EDCF512C80916F03581608F05FC0052D66
:1017100010E0E0916C03F0916D03E00FF11F61E0C8
:1017200080810E94E502E0916C03F0916D03E00F6F
:10173000F11F60E080810E94B302D501C401052C35
:1017400004C0880F991FAA1FBB1F0A94D2F76C010F
:101750007C01E094F094412C80916E034816F8F4DB
:10176000C42DD0E0E0916A03F0916B03EC0FFD1FF4
:1017700080810E9487022496CC0FDD1FC85FDC4F5A
:10178000892B41F4888199818C299D2999838883AB
:101790004394E2CF888199818E219F21F7CFE091F8
:1017A0006C03F0916D03E00FF11F61E080810E94F6
:1017B000B30280916C0390916D03080F191F60E0D4
:1017C000F80180810E94E50253949CCF08E013E069
:1017D000E8018F8D98A1892B21F41C8E3E8E2D8ED1
:1017E00019A22696F3E0C434DF0799F7F12C809113
:1017F0006E03F81608F053C0E12CCF2CD12CCC0C82
:10180000DD1C9601205F3C4F690120916F03E216B9
:1018100008F043C0F601608171810E2C02C07695FC
:1018200067950A94E2F7F29E900111242E0D311D66
:10183000E8E0F3E080E0458D568D2417350709F484
:101840005FC08F5F36968A30B1F760FF24C0E8E052
:10185000F3E090E080E0448D411118C0E09168030E
:10186000F0916903E20FF31F408156E0589FF001A9
:10187000599FF00D1124E85FFC4F448F368F258F60
:1018800010A2178E61E00E94880305C0019636966B
:101890008A30910501F7E394B8CFF394A8CFF12CE7
:1018A000F80181A18111F82E0A5F1F4FC017D107DF
:1018B000B9F70E947C03609364037093650380937F
:1018C000660390936703FF20A9F080912903882382
:1018D00089F08091270390912803019759F4809112
:1018E000240381110AC06114710409F486CD0E9499
:1018F000000083CD10927403F6CF0E94DA06F3CF76
:101900006170C1CF8091BA02803308F09DC091E030
:10191000980F9093BA028093070490E0FC01EE0FB9
:10192000FF1FE80FF91FE958FC4F88EB9BE09283FB
:10193000818310920D0410920C0487E292E0909340
:101940000B0480930A0486E180930E048FEF80934A
:101950000F0487E18093100488E18093110489E1EA
:10196000809312048AE1809313048BE18093140422
:101970001092150410921604109217041092180475
:101980001092190481E00E94A10510920A0310929E
:101990000E0310920D0310920F038DE192E09093CD
:1019A000090380930803E4E2F3E0108214821382B7
:1019B0001582369683E0E036F807B9F783E092E0C7
:1019C00090936B0380936A0380E092E090936D03A1
:1019D00080936C0384E080936E0383E080936F03B5
:1019E00087E092E090936903809368038AE090E037
:1019F000909371038093700384EF91E0909373034D
:101A00008093720310927603109275031092640310
:101A1000109265031092660310926703109274038C
:101A20001092B5021092B4021092B7021092B60250
:101A30001092B9021092B80250E040E066EA72E0FB
:101A400084EB92E00C94B9068FEF8093070471CF7A
:101A50008091B4029091B502009711F00C9423107C
:101A600008951F93FC0199278827BC01E8941191E0
:101A70001032E9F3193010F01E30C8F31B3251F068
:101A80001D3249F4689406C00E94580D610F711D03
:101A9000811D911D119110531A30B0F33EF49095B1
:101AA0008095709561957F4F8F4F9F4F1F9108953F
:101AB000592F482F372F262F660F771F881F991F02
:101AC000660F771F881F991F620F731F841F951F52
:101AD000660F771F881F991F0895E89409C097FB28
:101AE0003EF490958095709561957F4F8F4F9F4FF5
:101AF0009923A9F0F92F96E9BB279395F695879539
:101B000077956795B795F111F8CFFAF4BB0F11F4FB
:101B100060FF1BC06F5F7F4F8F4F9F4F16C08823A2
:101B200011F096E911C0772321F09EE8872F762FD8
:101B300005C0662371F096E8862F70E060E02AF019
:101B40009A95660F771F881FDAF7880F9695879505
:101B500097F908950E94BD0D0C942E0E0E94200E40
:101B600038F00E94270E20F0952311F00C94170EE8
:101B70000C941D0E11240C94620E0E943F0E70F303
:101B8000959FC1F3950F50E0551F629FF001729F22
:101B9000BB27F00DB11D639FAA27F00DB11DAA1F31
:101BA000649F6627B00DA11D661F829F2227B00D7E
:101BB000A11D621F739FB00DA11D621F839FA00D09
:101BC000611D221F749F3327A00D611D231F849F59
:101BD000600D211D822F762F6A2F11249F575040B0
:101BE0009AF0F1F088234AF0EE0FFF1FBB1F661F2B
:101BF000771F881F91505040A9F79E3F510580F0F4
:101C00000C94170E0C94620E5F3FE4F3983ED4F3ED
:101C1000869577956795B795F795E7959F5FC1F797
:101C2000FE2B880F911D9695879597F9089597F942
:101C30009F6780E870E060E008959FEF80EC089572
:101C400000240A941616170618060906089500249B
:101C50000A9412161306140605060895092E039415
:101C6000000C11F4882352F0BB0F40F4BF2B11F489
:101C700060FF04C06F5F7F4F8F4F9F4F089557FDE8
:101C80009058440F551F59F05F3F71F04795880FEA
:101C900097FB991F61F09F3F79F087950895121681
:101CA00013061406551FF2CF4695F1DF08C016162D
:101CB00017061806991FF1CF8695710561050894DE
:101CC0000895E894BB2766277727CB0197F90895F5
:101CD000052E97FB1EF400940E947F0E57FD07D03F
:101CE0000E949A0E07FC03D04EF40C947F0E509580
:101CF0004095309521953F4F4F4F5F4F08959095F8
:101D00008095709561957F4F8F4F9F4F08950E94EA
:101D1000BC0EA59F900DB49F900DA49F800D911DAA
:101D200011240895B7FF0C94870E0E94870E821B22
:101D3000930B0895A1E21A2EAA1BBB1BFD010DC037
:101D4000AA1FBB1FEE1FFF1FA217B307E407F5076B
:101D500020F0A21BB30BE40BF50B661F771F881F47
:101D6000991F1A9469F760957095809590959B01DD
:101D7000AC01BD01CF010895A29FB001B39FC00186
:101D8000A39F700D811D1124911DB29F700D811DA7
:101D90001124911D08950E94DF0E0C942E0E0E94B6
:101DA000270E58F00E94200E40F029F45F3F29F0E2
:101DB0000C94170E51110C94620E0C941D0E0E947F
:101DC0003F0E68F39923B1F3552391F3951B550BFF
:101DD000BB27AA2762177307840738F09F5F5F4FFE
:101DE000220F331F441FAA1FA9F335D00E2E3AF03D
:101DF000E0E832D091505040E695001CCAF72BD055
:101E0000FE2F29D0660F771F881FBB1F26173707A5
:101E10004807AB07B0E809F0BB0B802DBF01FF27D7
:101E200093585F4F3AF09E3F510578F00C94170E8F
:101E30000C94620E5F3FE4F3983ED4F38695779559
:101E40006795B795F7959F5FC9F7880F911D969590
:101E5000879597F90895E1E0660F771F881FBB1FEC
:101E6000621773078407BA0720F0621B730B840B99
:101E7000BA0BEE1F88F7E09508950E94440F68940E
:101E8000B1110C94620E08950E94470E88F09F577E
:101E900098F0B92F9927B751B0F0E1F0660F771F8E
:101EA000881F991F1AF0BA95C9F714C0B13091F084
:101EB0000E94610EB1E008950C94610E672F782F97
:101EC0008827B85F39F0B93FCCF386957795679549
:101ED000B395D9F73EF490958095709561957F4FB5
:101EE0008F4F9F4F0895991B79E004C0991F961753
:101EF00008F0961B881F7A95C9F780950895EE0F14
:101F0000FF1F881F8BBF0790F691E02D19940F9348
:101F10001F93CF93DF938230910510F482E090E01D
:101F2000E0912404F091250430E020E0B0E0A0E04E
:101F3000309799F42115310509F44AC0281B390B53
:101F400024303105D8F58A819B816115710589F1AD
:101F5000FB0193838283FE0111C040815181028184
:101F6000138148175907E0F04817590799F410975B
:101F700061F012960C93129713961C933296CF0130
:101F8000DF91CF911F910F91089500932404109336
:101F90002504F4CF2115310551F04217530738F0CD
:101FA000A901DB019A01BD01DF01F801C1CFEF01F9
:101FB000F9CF9093250480932404CDCFFE01E20F46
:101FC000F31F819391932250310939832883D7CF0E
:101FD0002091220430912304232B41F420911502F7
:101FE000309116023093230420932204209113028F
:101FF000309114022115310541F42DB73EB74091BF
:10200000170250911802241B350BE0912204F09125
:102010002304E217F307A0F42E1B3F0B2817390700
:1020200078F0AC014E5F5F4F2417350748F04E0F34
:102030005F1F5093230440932204819391939FCF79
:10204000F0E0E0E09CCFCF93DF930097E9F0FC0154
:10205000329713821282A0912404B0912504ED01DD
:1020600030E020E01097A1F420813181820F931F8E
:1020700020912204309123042817390709F061C008
:10208000F0932304E0932204DF91CF910895EA01B5
:10209000CE17DF07E8F54A815B819E0141155105A6
:1020A000B1F7E901FB83EA8349915991C40FD51F28
:1020B000EC17FD0761F4808191810296840F951FD2
:1020C000E90199838883828193819B838A83F0E0ED
:1020D000E0E012968D919C9113970097B9F52D91A0
:1020E0003C911197CD010296820F931F20912204FB
:1020F000309123042817390739F6309751F510929B
:10210000250410922404B0932304A0932204BCCF8E
:10211000D383C28340815181840F951FC817D9078B
:1021200061F44E5F5F4F88819981480F591F518339
:1021300040838A819B81938382832115310509F035
:10214000B0CFF0932504E09324049ECFFD01DC0181
:10215000C0CF13821282D7CF4F925F926F927F923D
:102160008F929F92AF92BF92CF92DF92EF92FF92A7
:102170000F931F93CF93DF938C01009799F4CB01BA
:10218000DF91CF911F910F91FF90EF90DF90CF9053
:10219000BF90AF909F908F907F906F905F904F9087
:1021A0000C94870FFC01E60FF71F9C0122503109A8
:1021B000E217F30708F4AEC0D901CD91DC91119775
:1021C000C617D70720F1C530D10578F0CE010497A6
:1021D0008617970750F0C61BD70B2297C193D19350
:1021E0006D937C93CF010E942310C801DF91CF91A2
:1021F0001F910F91FF90EF90DF90CF90BF90AF9025
:102200009F908F907F906F905F904F9008955B01AB
:10221000AC1ABD0A4C018C0E9D1EA0912404B091F5
:102220002504512C412CF12CE12C109731F5809193
:102230002204909123048815990509F05CC0461684
:10224000570608F058C0809113029091140200972D
:1022500041F48DB79EB74091170250911802841B2C
:10226000950BE817F90708F055C0F0932304E093A5
:102270002204F90171836083B8CF8D919C911197ED
:1022800012966C90129713967C901397A815B90527
:1022900059F56C0142E0C40ED11CCA14DB0420F1D4
:1022A000AC014A195B09DA011296159780F0628237
:1022B000738251834083D9016D937C93E114F104BF
:1022C00071F0D7011396FC93EE9312978ECF22965E
:1022D0008C0F9D1FF90191838083F301EFCFF09361
:1022E0002504E093240481CF4816590608F42C01F4
:1022F0007D01D3019ACFCB010E94870F7C0100970B
:1023000049F0AE01B8010E948D11C8010E9423104E
:1023100087016BCF10E000E068CFFB01DC0102C059
:1023200001900D9241505040D8F70895FB01DC0117
:1023300001900D920020E1F7089511E0C7E3D1E08C
:1023400000E006C0802FFE010E947F0F2196011D34
:0E235000C833D10780E00807A9F7F894FFCF43
:10235E001C1D1E1F202122313233343536373839B9
:10236E002A3023000026048000000000002103E133
:10237E0002B002000000005006F3019F049E0450BC
:10238E0072657373202A20746F20737461727400E7
:10239E00456E7465722054656D703A00456E7465B5
:1023AE00722054696D653A00526573746172746976
:1023BE006E672E2E2E00442041204E2047204520B1
:1023CE0052005475726E696E67204F6666005465D2
:1023DE006D703A20005072657373202320746F2045
:1023EE00726573657400202020202020202020207C
:1023FE00202020202020002020202046696E697396
:04240E006865640099
:00000001FF
