:100000000C9438010C9469010C9469010C946901F9
:100010000C9469010C9469010C9469010C946901B8
:100020000C9469010C9469010C9469010C946901A8
:100030000C9469010C9469010C9469010C94690198
:100040000C9469010C9469010C9469010C94690188
:100050000C9469010C9469010C9469010C94570586
:100060000C9469010C9469010C9469010C94690168
:100070000C9469010C9469010C9469010C94690158
:100080000C9469010C9469010C9469010C94690148
:100090000C9469010C9469010C9469010C94690138
:1000A0000C9469010C9469010C9469010C94690128
:1000B0000C9469010C9469010C9469010C94690118
:1000C0000C9469010C9469010C9469010C94690108
:1000D0000C9469010C9469010C9469010C946901F8
:1000E0000C9469010C94D9010C94A8090C94E301B7
:1000F0000C94E7010C94EE010C9406020C940C0293
:100100000C94EB010C94BC020C947C020C94100235
:100110000C948E010C9428030C94F8010C94290380
:100120000C94FE010C941E020C941A020C944B02C7
:100130000C9414020C9402020C94EC040C941D090F
:100140000C94F4010C9419020C94DF0100002100BE
:10015000240027002A002D00300033000101000098
:10016000040107010A0100002200250028002B00DD
:100170002E003100340002010000050108010B01CE
:10018000000020002300260029002C002F00320050
:100190000001000003010601090105050505070529
:1001A00008080808020202020A0A080804040404F3
:1001B000010101010101010103030303030303031F
:1001C000040707070C0C0C0C0C0C0C0C02020202AE
:1001D00006060606060606060B0B0B0B0B0B0B0B97
:1001E0000102102020080810204010204080020149
:1001F000020108040201010204081020408080402E
:10020000201008040201800402018040201008042C
:1002100002010804020101020408102040800102CA
:1002200004081020408000000A0B02090C0D0E0883
:1002300007030401000000000000000000000000AF
:1002400000000000000000000000000000000000AE
:10025000000012111000000000000000000000006B
:100260000000000000000000000000001D09A809B7
:1002700011241FBECFEFD1E2DEBFCDBF00E00CBF27
:1002800023E0AEE8B2E001C01D92A233B207E1F76D
:1002900012E0A0E0B2E0E4ECFBE100E00BBF02C042
:1002A00007900D92AE38B107D9F711E0C7E3D1E05E
:1002B00000E006C021970109802FFE010E94B20BC9
:1002C000C633D10780E00807A9F70E94A1050C9466
:1002D000D00D0C94000096E0899FD0011124A955FF
:1002E000BD4F90967C936E935F9791E091969C930F
:1002F0009197E0911403F0911503909113039923C2
:1003000039F0309751F0811108C08091C3021994DF
:10031000309719F05C968C91FACF0895AF92BF9206
:10032000CF92DF92EF92FF920F931F93CF93DF93C1
:100330006C017B018B01040F151FEB015E01AE18F0
:10034000BF08C017D10759F06991D601ED91FC9112
:100350000190F081E02DC6011995892B79F7C5012F
:10036000DF91CF911F910F91FF90EF90DF90CF9091
:10037000BF90AF9008958150823108F05AC0E82FA5
:10038000F0E08827E953FE4F8F4F0C94B20BE70142
:10039000EB01D901DF01E3011902EE01F401F801DB
:1003A000FE01020206020C021002190214021A02D5
:1003B0001E02809180008F77809380000895809145
:1003C00080008F7DF9CF80918000877FF5CF84B545
:1003D0008F7784BD089584B58F7DFBCF8091B00069
:1003E0008F778093B00008958091B0008F7DF9CF12
:1003F000809190008F778093900008958091900075
:100400008F7DF9CF80919000877FF5CF8091A000FC
:100410008F778093A00008958091A0008F7DF9CF01
:100420008091A000877FF5CF809120018F77809306
:1004300020010895809120018F7DF9CF80912001C6
:10044000877FF5CFCF93DF93282F30E0F901EA5D66
:10045000FD4F8491F901E052FE4FD491F901E65627
:10046000FE4FC491CC23A1F081110E94BB01EC2F5F
:10047000F0E0EE0FFF1FE058FE4FA591B491EC9114
:10048000ED2381E090E009F480E0DF91CF910895C1
:1004900080E090E0FACF862F0C9422021F93CF9336
:1004A000DF93282F30E0F901EA5DFD4F8491F901D7
:1004B000E052FE4FD491F901E656FE4FC491CC2391
:1004C000A9F0162F81110E94BB01EC2FF0E0EE0F76
:1004D000FF1FEA59FE4FA591B4918FB7F894EC91A4
:1004E000111108C0D095DE23DC938FBFDF91CF912F
:1004F0001F910895DE2BF8CF862F642F0C944E02A7
:10050000CF93DF9390E0FC01E052FE4F249186569A
:100510009E4FFC0184918823C9F090E0880F991FB9
:10052000FC01E45BFE4FA591B491FC01EA59FE4F3A
:10053000C591D49161110DC09FB7F8948C9120950D
:1005400082238C938881282328839FBFDF91CF91BA
:100550000895623051F49FB7F8943C91822F8095B2
:1005600083238C93E8812E2BEFCF8FB7F894EC91F7
:100570002E2B2C938FBFEACF862F642F0C948002F2
:100580002FB7F89460919302709194028091950234
:10059000909196022FBF08950F931F93CF93DF93EF
:1005A000C82FD62F86E0C89FF0011124E955FD4FD2
:1005B00011A2878D90A181309105F1F058F0823021
:1005C0009105F1F1039709F440C0DF91CF911F919C
:1005D0000F9108956623C9F361E070E08C2F0E94AB
:1005E0006B010E94C0026093FF027093000380932E
:1005F000010390930203E9CF0E94C0020091FF0221
:10060000109100032091010330910203AB01BC0162
:10061000401B510B620B730B8091110390911203DD
:10062000B0E0A0E084179507A607B70748F462E09A
:1006300070E08C2FDF91CF911F910F910C946B0183
:1006400063E070E0D111C1CFF4CF70E060E0F1CF92
:10065000089590E080E008958F929F92AF92BF92AC
:100660000F931F93CF93DF93CDB7DEB7A1970FB64C
:10067000F894DEBF0FBECDBF19A2423008F44AE0A5
:100680008E010F5D1F4F842E912CB12CA12CA50142
:1006900094010E94900BE62FB901CA01EA3044F59B
:1006A000E05DD801EE938D01232B242B252B79F7C8
:1006B00090E080E0109769F0FD0101900020E9F7DB
:1006C0003197AF014A1B5B0BBD0186E193E00E94AD
:1006D0008E01A1960FB6F894DEBF0FBECDBFDF919D
:1006E000CF911F910F91BF90AF909F908F900895E1
:1006F000E95CD7CFFC0101900020E9F73197AF0109
:10070000481B590BBC0186E193E00C948E01CF93FA
:10071000DF93EC0188819981009711F00E94560CBB
:10072000198218821D821C821B821A82DF91CF914E
:100730000895CF93DF93EC0160E08E810E944E021A
:1007400061E08E810E944E0260E08E810E944E0226
:100750008BE891E00197F1F7DF91CF910895CF9267
:10076000DF92EF92FF920F931F93CF93DF936C0171
:100770007C0187E0E80EF11CD0E0C0E0062F10E01D
:10078000B8010C2E02C0759567950A94E2F7617066
:10079000F70181917F010E944E022196C430D1055C
:1007A00079F7C601DF91CF911F910F91FF90EF90E4
:1007B000DF90CF900C949903CF92DF92EF92FF924B
:1007C0000F931F93CF93DF93EC01F62E642F8C8150
:1007D0000E944E028D818F3F19F060E00E944E0210
:1007E0000F2D10E08F8584FF25C06E0187E0C80EB5
:1007F000D11CF12CE12CB8010E2C02C07595679527
:100800000A94E2F76170F60181916F010E944E0235
:10081000FFEFEF1AFF0A88E0E816F10461F7CE0156
:10082000DF91CF911F910F91FF90EF90DF90CF90CC
:100830000C949903B80184E0759567958A95E1F762
:10084000CE010E94AF036F2DCE01DF91CF911F919A
:100850000F91FF90EF90DF90CF900C94AF0340E0AA
:10086000682F86E193E00C94DC0381E00E942F0462
:100870008BE39FE10197F1F70895CF93DF938230E7
:1008800029F4909125039860909325038093290380
:1008900010922A0380E480932B0380E180932C0341
:1008A00080E580932D0361E080911A030E9480020D
:1008B00080911B038F3F19F061E00E94800261E08C
:1008C00080911C030E948002C6E1D3E09E01265164
:1008D00033408091250384FD0BC084E090E0219695
:1008E0002817390744F461E08E810E948002EECF20
:1008F00088E090E0F4CF8BE39DE00197F1F760E0B2
:1009000080911A030E944E0260E080911C030E94B5
:100910004E0280911B038F3F19F060E00E944E024F
:100920008091250384FD34C063E086E193E00E945A
:10093000AF03CBE4D6E4CE010197F1F763E086E1A3
:1009400093E00E94AF032197F1F763E086E193E023
:100950000E94AF0383E592E00197F1F762E086E140
:1009600093E00E94AF038091250380620E942F04D0
:1009700084E0809326038CE00E942F040E943504BB
:1009800082E08093270386E0DF91CF910C942F04BF
:1009900080620E942F048BE496E40197F1F7809126
:1009A000250380620E942F0483E592E00197F1F70E
:1009B0008091250380620E942F04D5CF9091290356
:1009C000891710F08FEF890FE82FF0E0EA5EFC4FF7
:1009D000848980680C942F0441E00E94DC0381E04C
:1009E00090E00895CF92DF92EF92FF926B017C012D
:1009F00041E06DE286E193E00E94DC036627772701
:100A0000CB016C197D098E099F094AE00E942C03D5
:100A10000196FF90EF90DF90CF9008950F931F9372
:100A2000CF93DF93EC0188819981009759F02A8157
:100A30003B812617370730F081E0DF91CF911F917E
:100A40000F9108958B016F5F7F4F0E94DF0C00971D
:100A500059F0998388831B830A832C813D81232B42
:100A600059F7FC011082E8CF80E0E7CFEF92FF92C8
:100A70000F931F93CF93DF93EC017B018A01BA019F
:100A80000E940E0581110BC0CE010E948703CE018A
:100A9000DF91CF911F910F91FF90EF9008951D83EB
:100AA0000C83B701888199810E94C90DF0CF1F92F4
:100AB0000F920FB60F9211242F933F938F939F9312
:100AC000AF93BF938091930290919402A09195026D
:100AD000B09196023091920223E0230F2D3758F502
:100AE0000196A11DB11D20939202809393029093D1
:100AF0009402A0939502B093960280918E029091F9
:100B00008F02A0919002B09191020196A11DB11D9A
:100B100080938E0290938F02A0939002B0939102E3
:100B2000BF91AF919F918F913F912F910F900FBEE9
:100B30000F901F90189526E8230F0296A11DB11D56
:100B4000D2CFCF93DF9300D000D01F921F92CDB7AA
:100B5000DEB7789484B5826084BD84B5816084BD3D
:100B600085B5826085BD85B5816085BD80916E004B
:100B7000816080936E00109281008091810082607C
:100B800080938100809181008160809381008091B9
:100B900080008160809380008091B10084608093A8
:100BA000B1008091B00081608093B000809191008D
:100BB0008260809391008091910081608093910088
:100BC000809190008160809390008091A10082606C
:100BD0008093A1008091A10081608093A100809109
:100BE000A00081608093A0008091210182608093A9
:100BF0002101809121018160809321018091200158
:100C000081608093200180917A00846080937A00D3
:100C100080917A00826080937A0080917A0081606E
:100C200080937A0080917A00806880937A00109295
:100C3000C10082E00E943D040E94350480E00E94D1
:100C4000DE048FE292E00E947A0381E00E94DE04DB
:100C50001092A60281E08093990210929A0210925B
:100C60009B0210929C0210929D028FEF9FEF909337
:100C7000980280939702412C512C3201439440E01A
:100C8000A42E40E0B42E8091A602833009F08FC0DC
:100C900080917B00877F80937B0080E480937C0041
:100CA00080917A00806480937A0080917A0086FD3A
:100CB000FCCF8091780060917900762F682F072E05
:100CC000000C880B990B0E94EF0920E030E04AE904
:100CD00053E40E94E80A20E030E046E153E40E9439
:100CE0002A0A0E945A0B6B018091970290919802F8
:100CF0009C012C193D09121613063CF09601281B85
:100D0000390BC90118161906ECF40E94350480E06D
:100D10000E94DE0480E492E00E947A03B6010D2C6A
:100D2000000C880B990B97FF3EC00E94F20481E0F3
:100D30000E94DE0487E492E00E947A03D092980237
:100D4000C092970281E0809313030E94C002009139
:100D50000303109104032091050330910603AB01B6
:100D6000BC01401B510B620B730B80910F039091E0
:100D70001003B0E0A0E084179507A607B70708F0B6
:100D80009DC110E080910D03181708F096C0E09106
:100D90000903F0910A03E10FF11D62E080810E94D6
:100DA00080021F5FEFCF4AE00E942C03C0CF843047
:100DB00049F60E94C00200919A0210919B02209174
:100DC0009C0230919D02601B710B820B930B683E5D
:100DD00073408105910578F180919E0290919F0268
:100DE000019790939F0280939E0280E00E94DE0410
:100DF00088E592E00E947A0380E00E94DE04609120
:100E00009E0270919F02072E000C880B990B97FF92
:100E10001CC00E94F20480919E0290919F02092EB4
:100E2000000CAA0BBB0B80939A0290939B02A09399
:100E30009C02B0939D0280919E0290919F02892B0B
:100E400041F455E05093A6027DCF4AE00E942C0366
:100E5000E2CF8091A602853009F074CF0E94C002D3
:100E600000919A0210919B0220919C0230919D0268
:100E7000601B710B820B930B6C32714081059105E5
:100E800008F460CF80919902882379F00E9435049C
:100E9000109299020E94C00260939A0270939B0282
:100EA00080939C0290939D024DCF80E00E94DE04CF
:100EB00089E692E00E947A03EDCF312C80910E03F7
:100EC000381608F061C0E32CF12CE0910B03F0918F
:100ED0000C03EE0DFF1D61E080810E948002E09115
:100EE0000B03F0910C03EE0DFF1D60E080810E946A
:100EF0004E02D301C201032C04C0880F991FAA1F00
:100F0000BB1F0A94D2F74C016C01C094D094212CE1
:100F100080910D03281608F5022D10E0E0910903D9
:100F2000F0910A03E00FF11F80810E9422020C5F02
:100F30001F4F000F111FF801E955FD4F892B41F498
:100F40008081918188299929918380832394E0CF9E
:100F5000808191818C219D21F7CFE0910B03F0914D
:100F60000C03EE0DFF1D61E080810E944E02809116
:100F70000B0390910C03E80EF91E60E0F7018081ED
:100F80000E94800233949ACF07EA12E07801F701B9
:100F9000878D90A1892B31F4148E2FEF3FEF368F80
:100FA000258F11A236E0E30EF11C83EE92E08E1540
:100FB0009F0569F7D12C80910D03D81608F053C016
:100FC000C12C8D2C912C880C991CF401E155FD4FFE
:100FD0004F0120910E03C21608F043C0F401608156
:100FE00071810C2C02C0769567950A94E2F7D29E27
:100FF000900111242C0D311DE7EAF2E080E0458DCF
:10100000568D2417350709F4FDC08F5F36968A3058
:10101000B1F760FF24C0E7EAF2E090E080E0448DA1
:10102000411118C0E0910703F0910803E20FF31F8C
:10103000408156E0589FF001599FF00D1124E95569
:10104000FD4F448F368F258F10A2178E61E00E94CE
:10105000CC0205C0019636968A30910501F7C394FB
:10106000B8CFD394A8CFD12CF80181A18111D82E6B
:101070000A5F1F4F0E151F05B9F70E94C00260934B
:101080000303709304038093050390930603DD200C
:10109000A9F08091C802882389F08091C6029091BE
:1010A000C702019759F4F090C302F1100AC0A114CD
:1010B000B10409F4E8CD0E940000E5CD10921303BD
:1010C000F6CF1091A602133009F49EC0FAE2FF1683
:1010D00019F023E2F21205C00E94350480E00E945C
:1010E000DE0433E2F31609F446C05AE2F51609F4B9
:1010F00054C011501230D8F61A8219821C821B82F9
:101100001E821D826091A0027091A102611571057D
:1011100041F04091A4025091A502CE0101960E9497
:101120003605FF8218860D811E810F5F1F4FB801A3
:10113000CE0101960E940E05811151C0CE0101968B
:101140000E94870369817A816115710509F455C090
:101150004D815E8180EA92E00E94360589819A8104
:10116000009711F00E94560C41E06F2D86E193E04C
:101170000E94DC039CCF8FE292E00E947A0381E020
:101180000E94DE0450E040E068E672E080EA92E00F
:101190000E9436051092A6028ACF11113CC086E744
:1011A00092E00E947A0381E00E94DE0481E0809355
:1011B000A6027DCF123009F07ACF8091A0029091E3
:1011C000A102009741F00E94B10970939F026093C1
:1011D0009E0283E0ECCF60E070E0CB01F6CF298186
:1011E0003A818D819E81BE01695F7F4F820F931F7F
:1011F0000E94C90D1E830D83A5CF80EA92E00E9454
:101200008703ACCF617023CF83E2F81609F4B3CF24
:101210009AE2F9124CCF8091A4029091A502892BF9
:1012200009F445CF113031F682E892E00E947A034A
:1012300081E00E94DE0482E0BACF1092190310927E
:10124000180387E292E0909317038093160386E1D8
:1012500080931A038FEF80931B0387E180931C0315
:1012600088E180931D0389E180931E038AE18093C6
:101270001F038BE18093200310922103109222031D
:1012800010922303109224031092250381E00E9400
:101290003D041092A9021092AD021092AC0210927D
:1012A000AE028DE192E09093A8028093A702E3EC56
:1012B000F2E01082148213821582369682E0EF3FAC
:1012C000F807B9F783E092E090930A03809309034B
:1012D00080E092E090930C0380930B0384E0809372
:1012E0000D0383E080930E0387E092E09093080360
:1012F000809307038AE090E09093100380930F039C
:1013000084EF91E0909312038093110310921503E0
:101310001092140310920303109204031092050319
:1013200010920603109213031092A1021092A002D1
:101330001092A3021092A2021092A5021092A4028F
:1013400050E040E068E672E080EA92E00C943605F6
:101350008091A0029091A102009711F00C94560C7C
:1013600008951F93FC0199278827BC01E8941191E7
:101370001032E9F3193010F01E30C8F31B3251F06F
:101380001D3249F4689406C00E94D809610F711D8E
:10139000811D911D119110531A30B0F33EF49095B8
:1013A0008095709561957F4F8F4F9F4F1F91089546
:1013B000592F482F372F262F660F771F881F991F09
:1013C000660F771F881F991F620F731F841F951F59
:1013D000660F771F881F991F0895E89409C097FB2F
:1013E0003EF490958095709561957F4F8F4F9F4FFC
:1013F0009923A9F0F92F96E9BB279395F695879540
:1014000077956795B795F111F8CFFAF4BB0F11F402
:1014100060FF1BC06F5F7F4F8F4F9F4F16C08823A9
:1014200011F096E911C0772321F09EE8872F762FDF
:1014300005C0662371F096E8862F70E060E02AF020
:101440009A95660F771F881FDAF7880F969587950C
:1014500097F908950E943D0A0C94AE0A0E94A00AD2
:1014600038F00E94A70A20F0952311F00C94970AF7
:101470000C949D0A11240C94E20A0E94BF0A70F396
:10148000959FC1F3950F50E0551F629FF001729F29
:10149000BB27F00DB11D639FAA27F00DB11DAA1F38
:1014A000649F6627B00DA11D661F829F2227B00D85
:1014B000A11D621F739FB00DA11D621F839FA00D10
:1014C000611D221F749F3327A00D611D231F849F60
:1014D000600D211D822F762F6A2F11249F575040B7
:1014E0009AF0F1F088234AF0EE0FFF1FBB1F661F32
:1014F000771F881F91505040A9F79E3F510580F0FB
:101500000C94970A0C94E20A5F3FE4F3983ED4F3FC
:10151000869577956795B795F795E7959F5FC1F79E
:10152000FE2B880F911D9695879597F9089597F949
:101530009F6780E870E060E008959FEF80EC089579
:1015400000240A94161617061806090608950024A2
:101550000A9412161306140605060895092E03941C
:10156000000C11F4882352F0BB0F40F4BF2B11F490
:1015700060FF04C06F5F7F4F8F4F9F4F089557FDEF
:101580009058440F551F59F05F3F71F04795880FF1
:1015900097FB991F61F09F3F79F087950895121688
:1015A00013061406551FF2CF4695F1DF08C0161634
:1015B00017061806991FF1CF8695710561050894E5
:1015C0000895E894BB2766277727CB0197F90895FC
:1015D0000E94FC0A0C94AE0A0E94A70A58F00E94CE
:1015E000A00A40F029F45F3F29F00C94970A5111AA
:1015F0000C94E20A0C949D0A0E94BF0A68F3992396
:10160000B1F3552391F3951B550BBB27AA276217FE
:101610007307840738F09F5F5F4F220F331F441F0B
:10162000AA1FA9F335D00E2E3AF0E0E832D091503F
:101630005040E695001CCAF72BD0FE2F29D0660F2C
:10164000771F881FBB1F261737074807AB07B0E86F
:1016500009F0BB0B802DBF01FF2793585F4F3AF075
:101660009E3F510578F00C94970A0C94E20A5F3F74
:10167000E4F3983ED4F3869577956795B795F795FB
:101680009F5FC9F7880F911D9695879597F90895E3
:10169000E1E0660F771F881FBB1F6217730784077F
:1016A000BA0720F0621B730B840BBA0BEE1F88F78E
:1016B000E09508950E94610B6894B1110C94E20AC0
:1016C00008950E94C70A88F09F5798F0B92F99276C
:1016D000B751B0F0E1F0660F771F881F991F1AF01D
:1016E000BA95C9F714C0B13091F00E94E10AB1E097
:1016F00008950C94E10A672F782F8827B85F39F096
:10170000B93FCCF3869577956795B395D9F73EF4B5
:1017100090958095709561957F4F8F4F9F4F08955D
:10172000A1E21A2EAA1BBB1BFD010DC0AA1FBB1FE5
:10173000EE1FFF1FA217B307E407F50720F0A21B57
:10174000B30BE40BF50B661F771F881F991F1A94C4
:1017500069F760957095809590959B01AC01BD01EE
:10176000CF010895EE0FFF1F881F8BBF0790F691E2
:10177000E02D19940F931F93CF93DF93823091053F
:1017800010F482E090E0E0913003F091310330E01A
:1017900020E0B0E0A0E0309799F42115310509F47C
:1017A0004AC0281B390B24303105D8F58A819B812A
:1017B0006115710589F1FB0193838283FE0111C0DC
:1017C000408151810281138148175907E0F0481781
:1017D000590799F4109761F012960C93129713968B
:1017E0001C933296CF01DF91CF911F910F910895F5
:1017F0000093300310933103F4CF2115310551F0DC
:101800004217530738F0A901DB019A01BD01DF013E
:10181000F801C1CFEF01F9CF9093310380933003EA
:10182000CDCFFE01E20FF31F819391932250310936
:1018300039832883D7CF20912E0330912F03232B78
:1018400041F4209115023091160230932F0320931A
:101850002E0320911302309114022115310541F419
:101860002DB73EB74091170250911802241B350B3B
:10187000E0912E03F0912F03E217F307A0F42E1B43
:101880003F0B2817390778F0AC014E5F5F4F2417E4
:10189000350748F04E0F5F1F50932F0340932E03E0
:1018A000819391939FCFF0E0E0E09CCFCF93DF93C3
:1018B0000097E9F0FC01329713821282A091300365
:1018C000B0913103ED0130E020E01097A1F42081C8
:1018D0003181820F931F20912E0330912F032817FF
:1018E000390709F061C0F0932F03E0932E03DF91D5
:1018F000CF910895EA01CE17DF07E8F54A815B81B1
:101900009E0141155105B1F7E901FB83EA83499135
:101910005991C40FD51FEC17FD0761F480819181A7
:101920000296840F951FE9019983888382819381B0
:101930009B838A83F0E0E0E012968D919C9113974F
:101940000097B9F52D913C911197CD010296820F28
:10195000931F20912E0330912F032817390739F652
:10196000309751F51092310310923003B0932F034A
:10197000A0932E03BCCFD383C28340815181840FB7
:10198000951FC817D90761F44E5F5F4F8881998111
:10199000480F591F518340838A819B81938382839F
:1019A0002115310509F0B0CFF0933103E0933003F6
:1019B0009ECFFD01DC01C0CF13821282D7CF4F92A0
:1019C0005F926F927F928F929F92AF92BF92CF92CF
:1019D000DF92EF92FF920F931F93CF93DF938C01CF
:1019E000009799F4CB01DF91CF911F910F91FF9058
:1019F000EF90DF90CF90BF90AF909F908F907F90AF
:101A00006F905F904F900C94BA0BFC01E60FF71F9C
:101A10009C0122503109E217F30708F4AEC0D90146
:101A2000CD91DC911197C617D70720F1C530D105AC
:101A300078F0CE0104978617970750F0C61BD70B96
:101A40002297C193D1936D937C93CF010E94560C42
:101A5000C801DF91CF911F910F91FF90EF90DF9020
:101A6000CF90BF90AF909F908F907F906F905F903E
:101A70004F9008955B01AC1ABD0A4C018C0E9D1E5F
:101A8000A0913003B0913103512C412CF12CE12C69
:101A9000109731F580912E0390912F0388159905A9
:101AA00009F05CC04616570608F058C08091130232
:101AB00090911402009741F48DB79EB740911702A0
:101AC00050911802841B950BE817F90708F055C0D0
:101AD000F0932F03E0932E03F90171836083B8CF55
:101AE0008D919C91119712966C90129713967C9001
:101AF0001397A815B90559F56C0142E0C40ED11C25
:101B0000CA14DB0420F1AC014A195B09DA01129610
:101B1000159780F06282738251834083D9016D935F
:101B20007C93E114F10471F0D7011396FC93EE93CA
:101B300012978ECF22968C0F9D1FF901918380837F
:101B4000F301EFCFF0933103E093300381CF4816D8
:101B5000590608F42C017D01D3019ACFCB010E94D4
:101B6000BA0B7C01009749F0AE01B8010E94C00D8C
:101B7000C8010E94560C87016BCF10E000E068CFCF
:101B8000FB01DC0102C001900D9241505040D8F79A
:101B90000895FB01DC0101900D920020E1F708950A
:101BA00011E0C7E3D1E000E006C0802FFE010E94F3
:101BB000B20B2196011DC833D10780E00807A9F7B1
:041BC000F894FFCFC7
:101BC4001C1D1E1F2021223132333435363738395B
:101BD4002A302300003203800000000000BC027C95
:101BE400024B0200000000EC048E0129032803507C
:101BF40072657373202A20746F2073746172740089
:101C040054656D703A2000507265737320232074FC
:101C14006F2072657365740020202020202020200E
:101C24002020202020202020002020202046696E13
:101C3400697368656400456E7465722054656D70DF
:0E1C44003A00456E7465722054696D653A0071
:00000001FF
