:100000000C942E010C945F010C945F010C945F0121
:100010000C945F010C945F010C945F010C945F01E0
:100020000C945F010C945F010C945F010C945F01D0
:100030000C945F010C941E030C945F010C945F01FF
:100040000C945F010C945F010C945F010C945F01B0
:100050000C945F010C945F010C945F010C94BD0340
:100060000C945F010C945F010C945F010C945F0190
:100070000C945F010C945F010C945F010C945F0180
:100080000C945F010C945F010C945F010C945F0170
:100090000C945F010C945F010C945F010C945F0160
:1000A0000C945F010C945F010C945F010C945F0150
:1000B0000C945F010C945F010C945F010C945F0140
:1000C0000C945F010C945F010C945F010C945F0130
:1000D0000C945F010C945F010C945F010C945F0120
:1000E0000C945F010C9453020C9424020C944D0266
:1000F0000C9427020C94F1090C9445020C94B5025F
:100100000C941C020C9418020C9457020C941202CA
:100110000C94F5020C9452020C942D020C9449029A
:100120000C9484020C9420020C9437020C9431023B
:100130000C943B020C943F02000021002400270095
:100140002A002D00300033000101000004010701E6
:100150000A01000020002300260029002C002F00A7
:1001600032000001000003010601090100000A0B32
:1001700002090C0D0E080703040100000000000036
:10018000000000000000000000000000000000006F
:10019000000000000000000012111000000000002C
:1001A000000000000000000000000000000000004F
:1001B000000001021020200808102040102040807C
:1001C000020102010804020101020408102040801B
:1001D00080402010080402018004020180402010A9
:1001E00008040201080402010102040810204080F2
:1001F0000102040810204080000022002500280091
:100200002B002E003100340002010000050108011E
:100210000B0105050505070508080808020202028A
:100220000A0A080804040404010101010101010192
:100230000303030303030303040707070C0C0C0C5D
:100240000C0C0C0C02020202060606060606060646
:100250000B0B0B0B0B0B0B0B0200F10911241FBE38
:10026000CFEFD1E2DEBFCDBF00E00CBF18E0A0E0D1
:10027000B2E0EEEEF7E100E00BBF02C007900D9296
:10028000A035B107D9F728E0A0E5B8E001C01D927C
:10029000AA3EB207E1F711E0CEE2D1E000E006C0ED
:1002A00021970109802FFE010E94C30BCD32D10797
:1002B00080E00807A9F70E9407040C94F50B0C9442
:1002C000000096E0899FD0011124A558B74F909661
:1002D0007C936E935F9791E091969C939197E091B8
:1002E000E808F091E9089091E708992339F03097F0
:1002F00051F0811108C0809197081994309719F036
:100300005C968C91FACF0895CF92DF92EF92FF9294
:100310000F931F9396E0899FF0011124E558F74F42
:1003200011A2278D30A12130310551F178F0223012
:10033000310509F451C02330310509F452C01F9131
:100340000F91FF90EF90DF90CF9008956623B9F35F
:1003500061E070E00E9461012FB7F8948091770806
:1003600090917808A0917908B0917A082FBF809376
:10037000D3089093D408A093D508B093D608DFCFC4
:100380009FB7F894C0907708D0907808E0907908EB
:10039000F0907A089FBF0091D3081091D408209163
:1003A000D5083091D608C01AD10AE20AF30A0091A2
:1003B000E5081091E60830E020E00C151D052E053B
:1003C0003F0550F462E070E01F910F91FF90EF90B5
:1003D000DF90CF900C9461016111B1CF63E070E0C8
:1003E000F3CF70E060E0F0CF8150823108F05AC066
:1003F000E82FF0E08827E050FE4F8F4F0C94C30B9E
:1004000020022402120218021C02520227022D02AC
:10041000310237023B023F024502490252024D02BD
:1004200053025702809180008F7780938000089557
:10043000809180008F7DF9CF80918000877FF5CFFC
:1004400084B58F7784BD089584B58F7DFBCF80916F
:10045000B0008F778093B00008958091B0008F7DB9
:10046000F9CF809190008F778093900008958091CC
:1004700090008F7DF9CF80919000877FF5CF80919C
:10048000A0008F778093A00008958091A0008F7DB9
:10049000F9CF8091A000877FF5CF809120018F77E1
:1004A000809320010895809120018F7DF9CF809164
:1004B0002001877FF5CFCF93DF93282F30E0F9011C
:1004C000E459FE4F8491F901EE54FE4FD491F901A5
:1004D000EE5EFD4FC491CC23A1F081110E94F40186
:1004E000EC2FF0E0EE0FFF1FEE5AFE4FA591B491F6
:1004F000EC91ED2381E090E009F480E0DF91CF9171
:10050000089580E090E0FACF862F0C945B021F9351
:10051000CF93DF93282F30E0F901E459FE4F849107
:10052000F901EE54FE4FD491F901EE5EFD4FC491F6
:10053000CC23A9F0162F81110E94F401EC2FF0E0DA
:10054000EE0FFF1FE850FE4FA591B4918FB7F894BE
:10055000EC91111108C0D095DE23DC938FBFDF91A1
:10056000CF911F910895DE2BF8CF862F642F0C9426
:100570008702CF93DF9390E0FC01EE54FE4F24916D
:100580008E5E9D4FFC0184918823C9F090E0880F16
:10059000991FFC01E85CFE4FA591B491FC01E85065
:1005A000FE4FC591D49161110DC09FB7F8948C9105
:1005B000209582238C938881282328839FBFDF91F5
:1005C000CF910895623051F49FB7F8943C91822FF7
:1005D000809583238C93E8812E2BEFCF8FB7F894EF
:1005E000EC912E2B2C938FBFEACF862F642F0C9487
:1005F000B9023FB7F8948091510890915208A091A8
:100600005308B091540826B5A89B05C02F3F19F098
:100610000196A11DB11D3FBFBA2FA92F982F882782
:10062000BC01CD01620F711D811D911D42E0660F5D
:10063000771F881F991F4A95D1F708951F920F922F
:100640000FB60F9211240BB60F922F933F934F9337
:100650005F936F937F938F939F93AF93BF93EF932A
:10066000FF938091690890916A08A0916B08B091FE
:100670006C08892B8A2B8B2BE1F190915808E09123
:100680005908F0915A0880818927808380916908F0
:1006900090916A08A0916B08B0916C081816190621
:1006A0001A061B069CF48091690890916A08A09133
:1006B0006B08B0916C080197A109B1098093690892
:1006C00090936A08A0936B08B0936C08FF91EF9128
:1006D000BF91AF919F918F917F916F915F914F915A
:1006E0003F912F910F900BBE0F900FBE0F901F9058
:1006F000189580911302E8E5F2E0E4919FEF909362
:100700001302E230E9F040F4EE2389F0E13091F099
:1007100060E00E948702DACFE43049F110F1E53061
:10072000B9F7909173009D7F90937300F1CF109271
:100730006E00EECF90916F009D7F90936F00E8CF99
:10074000909170009D7F9093700091E09093B00025
:100750009091B100987F94609093B1001092B30093
:10076000D7CF909171009D7F90937100D1CF9091E0
:1007700072009D7F90937200CBCF1F920F920FB6A5
:100780000F9211242F933F938F939F93AF93BF9317
:100790008091770890917808A0917908B0917A08B3
:1007A0003091500823E0230F2D3758F50196A11DF5
:1007B000B11D209350088093770890937808A093F8
:1007C0007908B0937A088091510890915208A091CD
:1007D0005308B09154080196A11DB11D8093510892
:1007E00090935208A0935308B0935408BF91AF91CF
:1007F0009F918F913F912F910F900FBE0F901F905F
:10080000189526E8230F0296A11DB11DD2CFCF93D4
:10081000DF9300D000D000D01F921F92CDB7DEB77B
:10082000789484B5826084BD84B5816084BD85B5CB
:10083000826085BD85B5816085BD80916E008160D7
:1008400080936E001092810080918100826080937D
:10085000810080918100816080938100809180007F
:100860008160809380008091B10084608093B100AA
:100870008091B00081608093B0008091910082608F
:10088000809391008091910081608093910080918C
:1008900090008160809390008091A100826080939D
:1008A000A1008091A10081608093A1008091A000AF
:1008B00081608093A000809121018260809321015A
:1008C00080912101816080932101809120018160CC
:1008D0008093200180917A00846080937A008091D7
:1008E0007A00826080937A0080917A0081608093A0
:1008F0007A0080917A00806880937A001092C1001B
:1009000081E08093E7088FB7F89440917708509181
:1009100078086091790870917A088FBF8091D70824
:100920009091D808A091D908B091DA08481B590BCA
:100930006A0B7B0B8091E3089091E408B0E0A0E0A3
:1009400084179507A607B70708F036C1198280916A
:10095000E1082981281770F4E091DD08F091DE08A4
:10096000E20FF11D62E080810E94B90239813F5F90
:100970003983EDCFB12C8091E208B81608F071C030
:100980000B2D10E0E091DF08F091E008E00FF11F7F
:1009900061E080810E94B902E091DF08F091E008F7
:1009A000E00FF11F60E080810E94870281E090E00B
:1009B000A0E0B0E00B2C04C0880F991FAA1FBB1F3A
:1009C0000A94D2F76C017C01E094F094A12C809100
:1009D000E108A81678F58A2D90E09A838983E09142
:1009E000DD08F091DE089C01E20FF31F80810E9478
:1009F0005B02E981FA813496FA83E983892B61F4F9
:100A0000EE0FFF1FE558F74F808191818C299D29BA
:100A100091838083A394DBCF29813A81220F331FF6
:100A20002558374F3A832983F901808191818E219E
:100A30009F21EECFE091DF08F091E008E00FF11F79
:100A400061E080810E9487028091DF089091E00838
:100A5000080F191F60E0F80180810E94B902B39469
:100A60008ACF5BE7C52E58E0D52EDA82C9828FEF98
:100A70009FEFE981FA81278D30A1232B21F4148E79
:100A8000968F858F11A229813A812A5F3F4F3A8341
:100A90002983275B384069F7F12C46E0B42E80911A
:100AA000E108F81608F050C0E12C0F2D10E0000FFF
:100AB000111F0D57174F2091E208E21608F042C0AF
:100AC000F801608171810E2C02C0769567950A94B9
:100AD000E2F7F29E900111242E0D311DEBE7F8E0B4
:100AE00080E0458D568D2417350709F478C48F5F53
:100AF00036968A30B1F760FF23C0EBE7F8E090E06C
:100B000080E0448D411117C0E091DB08F091DC08D2
:100B1000E20FF31F6081B89EF001B99EF00D112421
:100B2000E558F74F648F368F258F10A2178E61E03E
:100B30000E94840105C0019636968A30910509F716
:100B4000E394B9CFF394ABCF80E0F60191A191117A
:100B5000892FF6E0CF0ED11C29813A812C153D0555
:100B6000A1F79FB7F8944091770850917808609169
:100B7000790870917A089FBF4093D7085093D8089E
:100B80006093D9087093DA088823B1F080919C08AB
:100B9000882391F080919A0890919B08019761F4C5
:100BA0008091970881110BC080E090E0892B09F4B7
:100BB000A7CE0E940000A4CE1092E708F5CF8333A1
:100BC00009F475C10CF03AC1813309F44EC1823386
:100BD00009F45EC18153863038F7312C212C0AE1AB
:100BE00012E0809175089091760828163906E4F68F
:100BF00080917B00877F80937B0030E430937C0082
:100C000080917A00806480937A0080917A0086FDDA
:100C1000FCCF409178004D83809179008983E091E9
:100C2000A007F091A1079101220F331FE20FF31FDC
:100C30006081718186E490E00E946E0B7A876987FB
:100C40002B01770F6608770880914408909145083A
:100C5000280F391FF9016081718124E0660F771F29
:100C60002A95E1F7072E000C880B990B0E94750A54
:100C70006B017C01F9812D817F2F622F072E000CE3
:100C8000880B990B0E94750A20E030E040E05BE39E
:100C90000E94D90A9B01AC01C701B6010E94D90A82
:100CA0000E943D0A69837A838B839C83809113021F
:100CB000883009F029C1E8E5F2E0F491FB87F7FDFF
:100CC00066C261E088E00E94B902FB85FF2321F043
:100CD0002B85223009F08EC289819A814C01B12C7A
:100CE000A12C60E072E18AE790E0A50194010E94E6
:100CF000A40B2D833E834F83588769017A0191E0CD
:100D0000C91AD108E108F108EFEFCE16D104E104C9
:100D1000F10409F00CF41EC260E472E48FE090E08C
:100D2000A50194010E94A40B69017A01F1E0CF1A98
:100D3000D108E108F1082B85223009F0BFC182E01B
:100D40003FEFC316D104E104F10409F00CF46FC0C5
:100D500060E970ED83E090E0A50194010E94A40B8E
:100D600069017A0181E0C81AD108E108F10883E03D
:100D70009FEFC916D104E104F10409F00CF457C047
:100D800068E478EE81E090E0A50194010E94A40B54
:100D900069017A0191E0C91AD108E108F10884E0FB
:100DA000EFEFCE16D104E104F10409F00CF43FC0DA
:100DB00064E274EF80E090E0A50194010E94A40B2E
:100DC00069017A0181E0C81AD108E108F10885E0DB
:100DD000EFEFCE16D104E104F10449F140F162E1F4
:100DE0007AE780E090E0A50194010E94A40B6901DC
:100DF0007A0181E0C81AD108E108F10886E09FEF86
:100E0000C916D104E104F10491F088F0CD80DE80B0
:100E1000EF80F8848AE0F594E794D794C7948A9594
:100E2000D1F781E0C81AD108E108F10887E0909174
:100E3000B100987F892B8093B10094C1853309F468
:100E400054C00CF443C0863309F0C4CE2CE632E023
:100E5000309345082093440824E132E03093A10701
:100E60002093A0072CE230E00EC022EA37E0309356
:100E70004508209344082EEF36E03093A1072093D5
:100E8000A00721E530E03093760820937508A2CEC4
:100E900022E636E0309345082093440826EC35E0FE
:100EA0003093A1072093A0072EE430E0ECCF24E19B
:100EB00035E0309345082093440820E634E0309331
:100EC000A1072093A0072AE530E0DDCF20EF33E033
:100ED000309345082093440820E833E03093A1077D
:100EE0002093A00728E330E0CECF24E233E0309314
:100EF00045082093440824EC32E03093A107209366
:100F0000A00720E330E0BFCF8F3F09F040C188E069
:100F100080931302E8E5F2E0F491FB878F2FFF3F07
:100F200009F435C1F23009F469C060F4FF2381F19E
:100F3000F13009F445C087FD2AC161E088E00E94D4
:100F4000B902C6CE2B85243009F49AC008F478C0C3
:100F5000253089F710922001109221018091210102
:100F6000886080932101809121018160809321011B
:100F7000F8018491E82FF0E0EE0FFF1FE850FE4FDC
:100F800085919491EAEBF1E084918093550899CE94
:100F900014BC15BC84B5826084BD85B5816085BDF7
:100FA000F8018491E82FF0E0EE0FFF1FE850FE4FAC
:100FB00085919491EAEBF1E0849180935C0881CE75
:100FC000109280001092810080918100886080934F
:100FD000810080918100816080938100F80184917B
:100FE000E82FF0E0EE0FFF1FE850FE4F859194913F
:100FF000EAEBF1E0849180935B0863CE1092B0003D
:101000001092B1008091B00082608093B000809116
:10101000B10081608093B100F8018491E82FF0E085
:10102000EE0FFF1FE850FE4F8591949190935A0860
:1010300080935908EAEBF1E084918093580841CEFF
:10104000109290001092910080919100886080939E
:10105000910080919100816080939100F8018491CA
:10106000E82FF0E0EE0FFF1FE850FE4F85919491BE
:10107000EAEBF1E0849180935708F3E0FB8721CEFF
:101080001092A0001092A1008091A100886080932E
:10109000A1008091A10081608093A100F80184915A
:1010A000E82FF0E0EE0FFF1FE850FE4F859194917E
:1010B000EAEBF1E084918093560803CEEFEFCE1671
:1010C000D104E104F10409F00CF492C068E478EE74
:1010D00081E090E0A50194010E94A40B69017A01CE
:1010E000F1E0CF1AD108E108F1082B8584E0211145
:1010F0006FCE83E0FFEFCF16D104E104F10471F16C
:101100006CF162E17AE780E090E0A50194010E9431
:10111000A40B69017A0191E0C91AD108E108F1082C
:1011200084E0EFEFCE16D104E104F104B9F0B0F0A1
:10113000CD80DE80EF80F8849AE0F594E794D79430
:10114000C7949A95D1F741E0C41AD108E108F10893
:1011500085E004C081E0FB85F11169CE95B5987FEB
:10116000892B85BD2FEF3FEFA90141145104610484
:10117000710409F06BC08B85823009F41CC10CF03E
:10118000F1C0882309F4F6C0813009F402C1C3011B
:10119000B2010E94750A2DEC3CEC4CE85FE30E9422
:1011A000D90A0E943D0A6B01770FEE08FF080E94E2
:1011B000F9024B015C01C114D104E104F10409F40A
:1011C0000AC10E94F902681979098A099B09683ED7
:1011D00073408105910578F3E1E0CE1AD108E1086A
:1011E000F108F8EE8F0EF3E09F1EA11CB11CE3CFB7
:1011F00082E0B1CF29813A814901B12CA12C60E074
:1012000072E18AE790E0A5010E94A40B69017A01CE
:1012100081E0C81AD108E108F108C114D10491E0B5
:10122000E906F10414F591E0FB85F13079F5809140
:101230008100887F892B809381002FEF3FEFA901E8
:10124000411451046104710409F4A3C029813A8155
:10125000220F331FA985BA850E94CB0B28EE33E0FD
:1012600040E050E00E94820B86CF68E478EE81E097
:1012700090E0A50194010E94A40B69017A01E1E0CC
:10128000CE1AD108E108F10893E0CECF2B852330A8
:1012900001F580919100887F892B809391002FEF39
:1012A0003FEFA901411451046104710479F6D09211
:1012B0009900C09298002093650830936608409387
:1012C0006708509368088091710082608093710074
:1012D0005ECF3B85343009F58091A100887F892B52
:1012E0008093A1002FEF3FEFA90141145104610445
:1012F000710409F0ABCFD092A900C092A80020934E
:1013000061083093620840936308509364088091A9
:1013100072008260809372003ACF4B85453009F0AD
:1013200021CF80912101887F892B809321012FEF8C
:101330003FEFA901411451046104710409F086CF03
:10134000D0922901C092280120935D0830935E0855
:1013500040935F085093600880917300826080938F
:10136000730015CF9B85943031F20CF4A0CF9530EB
:1013700039F30DCFC7BC20937108309372084093A6
:1013800073085093740880916E00826080936E00A1
:10139000FECED0928900C092880020936D083093D1
:1013A0006E0840936F085093700880916F008260C0
:1013B00080936F00ECCEC092B30020936908309305
:1013C0006A0840936B0850936C08809170008260AB
:1013D00080937000DCCE3FEF231A330A02CC617099
:1013E000A7CB10927D08109281081092800810926D
:1013F00082088AE498E090937C0880937B08E7E970
:10140000F8E01082148213821582369688E0E33D5C
:10141000F807B9F783E092E09093DE088093DD0847
:1014200080E092E09093E0088093DF0884E080936E
:10143000E10883E08093E20887E092E09093DC0883
:101440008093DB088AE090E09093E4088093E308BF
:1014500084EF91E09093E6088093E5081092E90804
:101460001092E8081092D7081092D8081092D90864
:101470001092DA081092E70808950E94440A6894CE
:10148000B1110C94D30A08950E94B80A88F09F57AE
:1014900098F0B92F9927B751B0F0E1F0660F771F98
:1014A000881F991F1AF0BA95C9F714C0B13091F08E
:1014B0000E94D20AB1E008950C94D20A672F782FC7
:1014C0008827B85F39F0B93FCCF386957795679553
:1014D000B395D9F73EF490958095709561957F4FBF
:1014E0008F4F9F4F0895E89409C097FB3EF4909565
:1014F0008095709561957F4F8F4F9F4F9923A9F0ED
:10150000F92F96E9BB279395F6958795779567957B
:10151000B795F111F8CFFAF4BB0F11F460FF1BC0BF
:101520006F5F7F4F8F4F9F4F16C0882311F096E952
:1015300011C0772321F09EE8872F762F05C0662300
:1015400071F096E8862F70E060E02AF09A95660FB9
:10155000771F881FDAF7880F9695879597F9089572
:1015600057FD9058440F551F59F05F3F71F0479554
:10157000880F97FB991F61F09F3F79F08795089539
:10158000121613061406551FF2CF4695F1DF08C058
:10159000161617061806991FF1CF86957105610575
:1015A00008940895E894BB2766277727CB0197F91D
:1015B00008950E94EC0A0C945D0B0E944F0B38F0CA
:1015C0000E94560B20F0952311F00C94460B0C94BE
:1015D0004C0B11240C94D30A0E94B00A70F3959F0F
:1015E000C1F3950F50E0551F629FF001729FBB271A
:1015F000F00DB11D639FAA27F00DB11DAA1F649FB6
:101600006627B00DA11D661F829F2227B00DA11D68
:10161000621F739FB00DA11D621F839FA00D611DEE
:10162000221F749F3327A00D611D231F849F600D0F
:10163000211D822F762F6A2F11249F5750409AF038
:10164000F1F088234AF0EE0FFF1FBB1F661F771FC4
:10165000881F91505040A9F79E3F510580F00C948F
:10166000460B0C94D30A5F3FE4F3983ED4F386957F
:1016700077956795B795F795E7959F5FC1F7FE2B2F
:10168000880F911D9695879597F9089597F99F670B
:1016900080E870E060E008959FEF80EC08950024FA
:1016A0000A941616170618060906089500240A94C7
:1016B00012161306140605060895092E0394000C4D
:1016C00011F4882352F0BB0F40F4BF2B11F460FFDC
:1016D00004C06F5F7F4F8F4F9F4F089597FB072E7A
:1016E00016F4009407D077FD09D00E94D20B07FCB6
:1016F00005D03EF4909581959F4F08957095619522
:101700007F4F0895A1E21A2EAA1BBB1BFD010DC03D
:10171000AA1FBB1FEE1FFF1FA217B307E407F507A1
:1017200020F0A21BB30BE40BF50B661F771F881F7D
:10173000991F1A9469F760957095809590959B0113
:10174000AC01BD01CF010895052E97FB1EF4009456
:101750000E94BB0B57FD07D00E94820B07FC03D0F1
:101760004EF40C94BB0B50954095309521953F4F0E
:101770004F4F5F4F089590958095709561957F4F7D
:101780008F4F9F4F0895EE0FFF1F881F8BBF07904D
:10179000F691E02D19940E94E60BB7FF0895821B85
:1017A000930B0895AA1BBB1B51E107C0AA1FBB1FC7
:1017B000A617B70710F0A61BB70B881F991F5A95DD
:1017C000A9F780959095BC01CD010895A29FB00125
:1017D000B39FC001A39F700D811D1124911DB29F65
:0E17E000700D811D1124911D0895F894FFCF06
:1017EE00181716191A1B1C3132333435363738395F
:1017FE002A3023FF0200020002000200080002004D
:10180E0002000800010002000200020002000800AF
:10181E00020002000800010002000200080002009F
:10182E00020008000400040004000400040002008A
:10183E00020008000400040004000400040002007A
:10184E000200080002000200080001008801880161
:10185E0088014A01D20188014A01D20188014B0256
:10186E004B024B026E02D20172014A01D201880173
:10187E0010038801880110031003BA0293024B0271
:10188E006E02000072012A022A02EE01EE01B80178
:10189E00EE0100004A019F014A019F01EE019F01E6
:1018AE00EE012A0202000200020002000200020003
:1018BE000200020002000200020002000100040009
:1018CE0001000200020002000200020002000200FB
:1018DE0002000200020002000200010004000100EA
:1018EE0002000200020002000200020004000400D6
:1018FE0002000200020002000400040002000200C6
:10190E00020002004A014A015D01880188015D0161
:10191E004A0126010601060126014A014A01260155
:10192E0026014A014A015D01880188015D014A01D3
:10193E0026010601060126014A01260106010601BD
:10194E00260126014A01060126014A015D014A01CE
:10195E00060126014A015D014A0126010601260102
:10196E000C000C000C000C000C000C000600030018
:10197E000C000C000C000C000C000C000600030008
:10198E000C000C000C000C000C000C0006000300F8
:10199E000C000C000C000C000C000C0006000600E5
:1019AE0012001200120006000600060006000600D5
:1019BE0006001200120012001200120012000A009D
:1019CE000A000A000A000A000A00030003000300CE
:1019DE0006010B02DC00B801E900D2010000000094
:1019EE0006010B02DC00B801E900D2010000000084
:1019FE00AF005D01930026019C003701000000003E
:101A0E00AF005D01930026019C003701000000002D
:101A1E00370115012601150137013701D000C40029
:101A2E001501060172015D01A500D201B8019F01E9
:101A3E003701F700E900DC00D000000000000000D4
:101A4E000400080004000800040008000800080054
:101A5E000800040008000400080004000800080044
:101A6E000800080004000800040008000400080034
:101A7E000800080008000400040008000800040024
:101A8E000400080008000400040008000800080014
:101A9E000400080008000800040004000800080004
:101AAE0004000400080008000400040008000400FC
:101ABE0004000800080008000800040004000800E4
:101ACE0008000400040008000800040004000800D8
:101ADE0008000800040008000800080004000400C4
:101AEE0004000800040008000800080004000400B8
:101AFE0008000800260126012601260126012601DE
:101B0E00260126012601260126012601260126018F
:101B1E00260126012601260126012601260126017F
:101B2E0026012601DC0006012601260126014A01B6
:101B3E005D015D015D0188014A014A012601060130
:101B4E00060126010000DC000601F7002601F70061
:101B5E004A015D015D01060106010601060126012D
:101B6E000601260100000000DC0006012601260108
:101B7E0026015D01880188018801B801B801B8010C
:101B8E00B8018801B801260100002601A5005D01FB
:101B9E005D018801B8012601000026015D014A01A0
:101BAE004A015D0126010C000C000C000C000C001B
:101BBE000C000C000C000C000C000C000C000C00B7
:101BCE000C000C000C000C000C000C000C000C00A7
:101BDE000C000C000C000C000C000C000C000C0097
:101BEE000C000C000C000900090009000C000C0090
:101BFE000C000C000C000C000C000C000C000C0077
:101C0E000C000C000C000C000C000C000C000C0066
:101C1E000C000C000C000C000C000C000C000C0056
:101C2E000C000C000900090009000C000C000C004F
:101C3E000C000C000C000C000C000C000C000C0036
:101C4E000C004D0A4D0A00004D0A00002D084D0AE9
:101C5E000000400C00000000000020060000000004
:101C6E0000002D08000000002006000000002705DF
:101C7E0000000000E0060000B80700004907E0067B
:101C8E00000020064D0A400CC00D0000EA0A400C70
:101C9E0000004D0A00002D082D09B80700000000B5
:101CAE002D0800000000200600000000270500009F
:101CBE000000E0060000B80700004907E00600003B
:101CCE0020064D0A400CC00D0000EA0A400C000030
:101CDE004D0A00002D082D09B80700000000040071
:101CEE0008000800040004000400080008000400B6
:101CFE0004000400080008000200080008000800A4
:101D0E000800080008000800080004000800080089
:101D1E00020008000800080008000800080008007B
:101D2E000800080008000800080008000800080065
:101D3E000800040008000800040004000400080065
:101D4E000800040004000400080008000400040059
:101D5E00040008000800020008000800080008003F
:101D6E000800080008000800080008000800080025
:101D7E00080008000800080004000800080002001F
:101D8E00FE062601B801B801B80126012601B801E8
:101D9E00B801B8012601B801D2010B02B8014B02FD
:101DAE000B020B02D201D201B801B80188015D010C
:101DBE0088010B02B8012601060126014A015D01C8
:101DCE004A015D018801B8010B02D201B8018801F8
:101DDE005D014A0126010601880188018801B801CA
:101DEE00D201B80188015D018801B80188015D0149
:101DFE004A015D0188015D014A012601D201B80147
:101E0E00B801880188015D015D014A01B8018801B0
:101E1E0088015D015D014A014A0126015D015D01F6
:101E2E008801B801A20700000000F502B502840285
:00000001FF
