:100000000C9428010C9459010C9459010C94590139
:100010000C9459010C9459010C9459010C945901F8
:100020000C9459010C9459010C9459010C945901E8
:100030000C9459010C9459010C9459010C945901D8
:100040000C9459010C9459010C9459010C945901C8
:100050000C9459010C9459010C9459010C94890386
:100060000C9459010C94FD030C94D3030C94590186
:100070000C9459010C9459010C9459010C94590198
:100080000C9459010C9459010C9459010C94590188
:100090000C9459010C9459010C9459010C94590178
:1000A0000C9459010C9459010C9459010C94590168
:1000B0000C9459010C9459010C9459010C94590158
:1000C0000C9459010C9459010C9459010C94590148
:1000D0000C9459010C9459010C9459010C94590138
:1000E0000C9459010C94F1010C94C4020C945B0122
:1000F0000C940B030C94EF020C9403030C948801F2
:100100000C9415030C94B9010C9497010C940703FB
:100110000C94E2020C94F9020C94AB010C94E502ED
:100120000C94FD020C94EB020C945B060C94DE0222
:100130000C9411030C94F5020C943E020C94DA0218
:100140000C94D6020C94BF02000022002500280067
:100150002B002E00310034000201000005010801CF
:100160000B0100000A0B02090C0D0E080703040125
:10017000000000000000000000000000000000007F
:10018000000000000000000000000000000012114C
:10019000100000000000000000000000000000004F
:1001A00000000000000000000000210024002700E3
:1001B0002A002D0030003300010100000401070176
:1001C0000A01010210202008081020401020408061
:1001D000020102010804020101020408102040800B
:1001E0008040201008040201800402018040201099
:1001F00008040201080402010102040810204080E2
:1002000001020408102040800505050507050808BF
:100210000808020202020A0A080804040404010190
:1002200001010101010103030303030303030407A5
:1002300007070C0C0C0C0C0C0C0C0202020206063C
:100240000606060606060B0B0B0B0B0B0B0B5B06D1
:1002500011241FBECFEFD1E2DEBFCDBF00E00CBF47
:1002600012E0A0E0B2E0E4E5F9E100E00BBF02C07B
:1002700007900D92A434B107D9F722E0A4E4B2E0CC
:1002800001C01D92A53FB207E1F711E0C8E2D1E03D
:1002900000E006C021970109802FFE010E94980806
:1002A000C732D10780E00807A9F70E9433040C94F5
:1002B000A80C0C940000AF92BF92CF92DF92EF9205
:1002C000FF920F931F93CF93DF936C017B018B0100
:1002D000040F151FEB015E01AE18BF08C017D10750
:1002E00059F06991D601ED91FC910190F081E02DDA
:1002F000C6011995892B79F7C501DF91CF911F911F
:100300000F91FF90EF90DF90CF90BF90AF90089546
:10031000FC01538D448D252F30E0842F90E0821B0B
:10032000930B541710F0CF96089501970895FC0190
:10033000918D828D981761F0A28DAE0FBF2FB11DE8
:100340005D968C91928D9F5F9F73928F90E0089540
:100350008FEF9FEF0895FC01918D828D981731F0FA
:10036000828DE80FF11D858D90E008958FEF9FEF4E
:100370000895FC01918D228D892F90E0805C9F4F24
:10038000821B91098F739927089584E592E00E945A
:10039000B90121E0892B09F420E0822F0895FC01A6
:1003A000A48DA80FB92FB11DA35ABF4F2C91848DD6
:1003B00090E001968F739927848FA689B7892C9333
:1003C000A089B1898C91837080648C93938D848D86
:1003D000981306C00288F389E02D80818F7D808389
:1003E0000895EF92FF920F931F93CF93DF93EC0149
:1003F00081E0888F9B8D8C8D98131AC0E889F989CC
:10040000808185FF15C09FB7F894EE89FF896083CE
:10041000E889F98980818370806480839FBF81E04F
:1004200090E0DF91CF911F910F91FF90EF90089591
:10043000F62E0B8D10E00F5F1F4F0F731127E02E6C
:100440008C8D8E110CC00FB607FCFACFE889F989A4
:10045000808185FFF5CFCE010E94CF01F1CFEB8DDA
:10046000EC0FFD2FF11DE35AFF4FF0829FB7F89478
:100470000B8FEA89FB8980818062CFCFCF93DF9396
:10048000EC01888D8823B9F0AA89BB89E889F989AC
:100490008C9185FD03C0808186FD0DC00FB607FCE1
:1004A000F7CF8C9185FFF2CF808185FFEDCFCE0114
:1004B0000E94CF01E9CFDF91CF91089580E090E0D5
:1004C000892B29F00E94C50181110E94000080E063
:1004D00090E0892B49F080E090E0892B29F00E9480
:1004E000000081110E94000080E090E0892B49F01B
:1004F00080E090E0892B29F00E94000081110E9489
:10050000000080E090E0892B49F080E090E0892BAA
:1005100029F00E94000081110C9400000895282FFA
:1005200030E0F901EE59FE4F9491F901EE53FE4F80
:100530004491285F3D4FF9012491222309F435C0ED
:10054000992311F191509231F8F4E92FF0E08827C6
:10055000E355FD4F8F4F0C949808DE02E202BF0274
:10056000D602DA02C402E502EB02EF02F502F9025A
:10057000FD0203030703C4020B031103150380915B
:1005800080008F7780938000E22FF0E0EE0FFF1F56
:10059000E85BFE4FA591B4918FB7F894EC9161118F
:1005A00048C040954E234C938FBF089580918000A2
:1005B0008F7DE8CF80918000877FE4CF84B58F77EF
:1005C00084BDE2CF84B58F7DFBCF8091B0008F7763
:1005D0008093B000D9CF8091B0008F7DF9CF80910A
:1005E00090008F7780939000CFCF809190008F7D87
:1005F000F9CF80919000877FF5CF8091A0008F7711
:100600008093A000C1CF8091A0008F7DF9CF809111
:10061000A000877FF5CF809120018F778093200104
:10062000B3CF809120018F7DF9CF80912001877F0A
:10063000F5CF4E2BB8CFCF93DF9390E0FC01EE5374
:10064000FE4F2491885F9D4FFC0184918823D1F057
:1006500090E0880F991FFC01E855FE4FA591B491D9
:10066000FC01E85BFE4FC591D49161110EC09FB7AC
:10067000F8948C91E22FE0958E238C932881E223CD
:10068000E8839FBFDF91CF9108958FB7F894EC91E5
:10069000E22BEC938FBFF6CF90917B00977F9093E6
:1006A0007B008653806480937C0080917A00806414
:1006B00080937A0080917A0086FDFCCF809178004B
:1006C0009091790008958EBD00000DB407FEFDCF16
:1006D0008EB50895FC0101900020E9F73197AF0134
:1006E000481B590BBC0184E592E00C945B01CF934D
:1006F000DF93D0E0C0E0009719F00E946A03EC019C
:100700008EE192E00E946A038C0F9D1FDF91CF91D2
:1007100008951F920F920FB60F9211242F933F93BB
:100720008F939F93AF93BF9380915002909151020A
:10073000A0915202B091530230914F0223E0230F57
:100740002D3758F50196A11DB11D20934F028093BE
:10075000500290935102A0935202B09353028091A1
:100760004B0290914C02A0914D02B0914E02019625
:10077000A11DB11D80934B0290934C02A0934D029A
:10078000B0934E02BF91AF919F918F913F912F9166
:100790000F900FBE0F901F90189526E8230F02961A
:1007A000A11DB11DD2CF1F920F920FB60F9211242F
:1007B0000BB60F922F933F934F935F936F937F935B
:1007C0008F939F93AF93BF93EF93FF9384E592E052
:1007D0000E94CF01FF91EF91BF91AF919F918F91B7
:1007E0007F916F915F914F913F912F910F900BBE31
:1007F0000F900FBE0F901F9018951F920F920FB67B
:100800000F9211240BB60F922F938F939F93EF9318
:10081000FF93E0916402F09165028081E0916A02A9
:10082000F0916B0282FD1DC0908180916D028F5FFF
:100830008F7320916E02821741F0E0916D02F0E01B
:10084000EC5AFD4F958F80936D02FF91EF919F9130
:100850008F912F910F900BBE0F900FBE0F901F9096
:1008600018958081F2CF789484B5826084BD84B578
:10087000816084BD85B5826085BD85B5816085BD9B
:1008800080916E00816080936E0010928100809153
:1008900081008260809381008091810081608093DB
:1008A0008100809180008160809380008091B10000
:1008B00084608093B1008091B00081608093B0002B
:1008C000809191008260809391008091910081607D
:1008D000809391008091900081608093900080913E
:1008E000A10082608093A1008091A100816080932B
:1008F000A1008091A00081608093A00080912101DF
:100900008260809321018091210181608093210187
:100910008091200181608093200180917A00846021
:1009200080937A0080917A00826080937A0080912F
:100930007A00816080937A0080917A008068809349
:100940007A001092C100E0916402F091650282E0A9
:100950008083E0916002F09161021082E091620276
:10096000F09163028FEC808310926C02E091680238
:10097000F091690286E08083E0916602F09167025F
:10098000808180618083E0916602F09167028081BE
:1009900088608083E0916602F091670280818068C0
:1009A0008083E0916602F091670280818F7D808371
:1009B00081E292E00E94770361E086E10E941B03DE
:1009C00061E086E10E948F0261E087E10E941B03E3
:1009D00061E087E10E948F02CFB7F89480914402D2
:1009E000811127C0EDE3F2E08491E7EFF1E094910B
:1009F000E82FF0E0EE0FFF1FE855FE4FA591B491F0
:100A0000EC91E92321F461E085E30E948F0261E02B
:100A100085E30E941B038CB580618CBD8CB580641E
:100A20008CBD61E084E30E941B0361E083E30E94CC
:100A30001B03809144028F5F80934402CFBF8CB52B
:100A40008C7F81608CBD8DB581608DBD60E086E35B
:100A50000E941B0360E087E30E941B03C9E2D2E00F
:100A600086E30E944C03BC01990F880B990B0E94EE
:100A70009F0720E030E04AE953E40E94F50620E0B9
:100A800030E046E153E40E942B080E946707709310
:100A90004A026093490287E30E944C03BC01990F0C
:100AA000880B990B0E949F079B01AC0160E070ECE2
:100AB0008FE794E40E94F50620E030E040E85FE331
:100AC0000E94880620E030E048EC52E40E942B08A7
:100AD0000E9467076B017C01C0924502D0924602DA
:100AE000E0924702F0924802809102029091030244
:100AF000A0910402B0910502C816D906EA06FB06C9
:100B000009F46DC060E086E10E948F02FF92EF92CF
:100B1000DF92CF92DF93CF931F921F921F921F926B
:100B20000E94C5098C010F5F1F4FC8010E94A008D9
:100B30007C01B82EAF2C809148028F9380914702A0
:100B40008F93809146028F93809145028F93DF931C
:100B5000CF931F930F93FF92EF920E94C5098701D5
:100B60008DB79EB744960FB6F8949EBF0FBE8DBF4B
:100B70006701AB2DBA2DFD0101900020E9F73197F7
:100B8000EA1BFB0BC601801B910B8E179F0730F4ED
:100B9000F60181916F010E946303EBCF8DE00E940B
:100BA00063038CE292E00E946A03C7010E9477030C
:100BB000C7010E943C0961E086E10E948F0280919A
:100BC000450290914602A0914702B091480280935D
:100BD000020290930302A0930402B09305020091D5
:100BE000490210914A0280910002909101028017FF
:100BF000910709F45DC060E087E10E948F021F93B6
:100C00000F93DF93CF931F921F921F921F920E9408
:100C1000C5098C010F5F1F4FC8010E94A0087C010D
:100C2000B82EAF2C80914A028F93809149028F9306
:100C3000DF93CF931F930F93FF92EF920E94C5090A
:100C400067018DB79EB740960FB6F8949EBF0FBE52
:100C50008DBF8701AB2DBA2DFD0101900020E9F772
:100C60003197EA1BFB0BC8018C199D098E179F0752
:100C700030F4F80181918F010E946303EBCF8DE086
:100C80000E94630388E392E00E946A03C7010E9406
:100C90007703C7010E943C0961E087E10E948F024F
:100CA0008091490290914A02909301028093000240
:100CB0000E945E02D5CEE4E5F2E01382128288EE55
:100CC00093E0A0E0B0E084839583A683B78380E1BE
:100CD00092E09183808385EC90E09587848784EC13
:100CE00090E09787868780EC90E0918B808B81ECF9
:100CF00090E0938B828B82EC90E0958B848B86ECDA
:100D000090E0978B868B118E128E138E148E089521
:100D10005058BB27AA270E94A0060C94F1070E94F6
:100D2000E30738F00E94EA0720F039F49F3F19F4F6
:100D300026F40C94E0070EF4E095E7FB0C94DA0738
:100D4000E92F0E94020858F3BA1762077307840755
:100D5000950720F079F4A6F50C9424080EF4E0959C
:100D60000B2EBA2FA02D0B01B90190010C01CA0165
:100D7000A0011124FF27591B99F0593F50F4503E10
:100D800068F11A16F040A22F232F342F4427585F02
:100D9000F3CF469537952795A795F0405395C9F71A
:100DA0007EF41F16BA0B620B730B840BBAF09150D2
:100DB000A1F0FF0FBB1F661F771F881FC2F70EC071
:100DC000BA0F621F731F841F48F487957795679544
:100DD000B795F7959E3F08F0B0CF9395880F08F030
:100DE0009927EE0F9795879508950E9409070C940F
:100DF000F1070E94EA0758F00E94E30740F029F447
:100E00005F3F29F00C94DA0751110C9425080C94DB
:100E1000E0070E94020868F39923B1F3552391F388
:100E2000951B550BBB27AA2762177307840738F059
:100E30009F5F5F4F220F331F441FAA1FA9F335D0B6
:100E40000E2E3AF0E0E832D091505040E695001C6A
:100E5000CAF72BD0FE2F29D0660F771F881FBB1F24
:100E6000261737074807AB07B0E809F0BB0B802D02
:100E7000BF01FF2793585F4F3AF09E3F510578F02E
:100E80000C94DA070C9425085F3FE4F3983ED4F302
:100E9000869577956795B795F7959F5FC9F7880F02
:100EA000911D9695879597F90895E1E0660F771F54
:100EB000881FBB1F621773078407BA0720F0621BE5
:100EC000730B840BBA0BEE1F88F7E09508950E9410
:100ED0006E076894B1110C94250808950E940A08C1
:100EE00088F09F5798F0B92F9927B751B0F0E1F0EB
:100EF000660F771F881F991F1AF0BA95C9F714C09B
:100F0000B13091F00E942408B1E008950C942408B7
:100F1000672F782F8827B85F39F0B93FCCF38695D3
:100F200077956795B395D9F73EF490958095709530
:100F300061957F4F8F4F9F4F0895E89409C097FBAD
:100F40003EF490958095709561957F4F8F4F9F4FA0
:100F50009923A9F0F92F96E9BB279395F6958795E4
:100F600077956795B795F111F8CFFAF4BB0F11F4A7
:100F700060FF1BC06F5F7F4F8F4F9F4F16C088234E
:100F800011F096E911C0772321F09EE8872F762F84
:100F900005C0662371F096E8862F70E060E02AF0C5
:100FA0009A95660F771F881FDAF7880F96958795B1
:100FB00097F9089597F99F6780E870E060E00895D9
:100FC0009FEF80EC089500240A9416161706180661
:100FD0000906089500240A9412161306140605063D
:100FE0000895092E0394000C11F4882352F0BB0FCE
:100FF00040F4BF2B11F460FF04C06F5F7F4F8F4F31
:101000009F4F089557FD9058440F551F59F05F3F6B
:1010100071F04795880F97FB991F61F09F3F79F01A
:1010200087950895121613061406551FF2CF46959C
:10103000F1DF08C0161617061806991FF1CF86951E
:101040007105610508940895E894BB276627772702
:10105000CB0197F908950E943E080C94F1070E9475
:10106000E30738F00E94EA0720F0952311F00C9472
:10107000DA070C94E00711240C9425080E9402085A
:1010800070F3959FC1F3950F50E0551F629FF001DB
:10109000729FBB27F00DB11D639FAA27F00DB11DF4
:1010A000AA1F649F6627B00DA11D661F829F22277D
:1010B000B00DA11D621F739FB00DA11D621F839F04
:1010C000A00D611D221F749F3327A00D611D231FDA
:1010D000849F600D211D822F762F6A2F11249F5728
:1010E00050409AF0F1F088234AF0EE0FFF1FBB1F2B
:1010F000661F771F881F91505040A9F79E3F5105EA
:1011000080F00C94DA070C9425085F3FE4F3983ED6
:10111000D4F3869577956795B795F795E7959F5F93
:10112000C1F7FE2B880F911D9695879597F9089525
:10113000EE0FFF1F881F8BBF0790F691E02D1994CB
:101140000F931F93CF93DF938230910510F482E0C9
:1011500090E0E091F302F091F40230E020E0B0E0A2
:10116000A0E0309799F42115310509F44AC0281BF5
:10117000390B24303105D8F58A819B8161157105C1
:1011800089F1FB0193838283FE0111C0408151816B
:101190000281138148175907E0F04817590799F45D
:1011A000109761F012960C93129713961C93329637
:1011B000CF01DF91CF911F910F9108950093F3021A
:1011C0001093F402F4CF2115310551F04217530763
:1011D00038F0A901DB019A01BD01DF01F801C1CF9F
:1011E000EF01F9CF9093F4028093F302CDCFFE018B
:1011F000E20FF31F819391932250310939832883A1
:10120000D7CF2091F1023091F202232B41F42091AB
:101210000802309109023093F2022093F1022091EA
:101220000602309107022115310541F42DB73EB772
:1012300040910A0250910B02241B350BE091F10200
:10124000F091F202E217F307A0F42E1B3F0B2817D0
:10125000390778F0AC014E5F5F4F2417350748F02F
:101260004E0F5F1F5093F2024093F10281939193CE
:101270009FCFF0E0E0E09CCFCF93DF930097E9F0C1
:10128000FC01329713821282A091F302B091F40212
:10129000ED0130E020E01097A1F420813181820F30
:1012A000931F2091F1023091F2022817390709F0BB
:1012B00061C0F093F202E093F102DF91CF910895C3
:1012C000EA01CE17DF07E8F54A815B819E014115EF
:1012D0005105B1F7E901FB83EA8349915991C40FA4
:1012E000D51FEC17FD0761F4808191810296840F70
:1012F000951FE90199838883828193819B838A83E7
:10130000F0E0E0E012968D919C9113970097B9F56B
:101310002D913C911197CD010296820F931F209140
:10132000F1023091F2022817390739F6309751F55A
:101330001092F4021092F302B093F202A093F10221
:10134000BCCFD383C28340815181840F951FC817BE
:10135000D90761F44E5F5F4F88819981480F591F0B
:10136000518340838A819B81938382832115310538
:1013700009F0B0CFF093F402E093F3029ECFFD01A9
:10138000DC01C0CF13821282D7CF0F931F93CF936C
:10139000DF93CDB7DEB72E970FB6F894DEBF0FBE42
:1013A000CDBF0E891F89888D998D26E02C831A83E5
:1013B000098397FF02C080E090E801979E838D83A8
:1013C000AE01445E5F4F6A8D7B8DCE0101960E9417
:1013D000020A4D815E8157FD0AC02F813885421770
:1013E00053070CF49A01020F131FF80110822E9676
:1013F0000FB6F894DEBF0FBECDBFDF91CF911F9126
:101400000F9108952F923F924F925F926F927F9229
:101410008F929F92AF92BF92CF92DF92EF92FF9204
:101420000F931F93CF93DF9300D000D000D01F9273
:101430001F92CDB7DEB77C013B018A01FC01178208
:101440001682838181FFDDC1CE0101965C01F70127
:101450009381F30193FD859193FF81913F0188234F
:1014600009F453C1853239F493FD859193FF81913D
:101470003F01853229F4B70190E00E941A0CE7CFB2
:10148000912C212C312CFFE1F31538F08B3211F126
:1014900090F4803209F1833229F137FC3CC020ED11
:1014A000280F2A3050F536FE20C08AE0989E200D85
:1014B0001124922E06C08D3291F0803371F768941A
:1014C00030F8F30193FD859193FF81913F018111E4
:1014D000DACF21C0689431F8689432F8F2CF68947A
:1014E00033F8EFCF689434F8ECCFEAE02E9E200D6D
:1014F0001124222E689435F8E4CF8E3229F436FC7C
:1015000004C1689436F8DDCF8C3619F4689437F846
:10151000D8CF8836B1F2982F9F7D95549330E0F064
:101520008336A1F18337C1F1833509F063C0280107
:10153000F2E04F0E511CF801C080D180692D70E09F
:1015400036FC02C06FEF7FEFC6010E94040C4C0115
:10155000689437F882010AC00C5F1F4FFFE3F983DC
:1015600088248394912C6501E89437F833FE2DC0CC
:10157000522C8114910471F5552009F468CFB701FC
:1015800080E290E00E941A0C5A94F6CFF801808114
:1015900089830E5F1F4FE4CF2801F2E04F0E511CEC
:1015A000F801C080D180692D70E036FC02C06FEF79
:1015B0007FEFC6010E940F0C4C018201D5CFB7010D
:1015C00080E290E00E941A0C2A942814190409F071
:1015D000B0F7CECFF60137FC859137FE81916F01D0
:1015E000B70190E00E941A0C51105A94F1E08F1A42
:1015F0009108BFCF843619F0893609F077C0F80119
:1016000037FE6BC060817181828193810C5F1F4FB7
:10161000F32DFF763F2E97FF09C09095809570952A
:1016200061957F4F8F4F9F4F689437F82AE030E0E5
:10163000A5010E944A0CC82ECA188C2C432C36FED9
:101640000CC0E89440F8C91440F434FE05C032FCE4
:1016500003C0F32DFE7E4F2E892C44FEAAC0FE014E
:10166000EC0DF11D8081803309F09CC0242D297E72
:10167000422E842D8870582E43FCAAC040FEA4C080
:101680009C2C821418F42C0C922C981844FEA6C0A2
:10169000B70180E390E00E941A0C42FE09C088E77F
:1016A00090E041FE02C088E590E0B7010E941A0C6C
:1016B000C91408F49FC0CA94D12C9FEFC91AD90A43
:1016C000CA0CDB1CF60182916F01B70190E00E9409
:1016D0001A0CAC14BD04B1F74FCF60817181072E95
:1016E000000C880B990B0E5F1F4F92CFD32CE89400
:1016F000D4F82AE030E08537E1F1232D297FD22E7E
:101700008F36A9F1F0F4883551F1F7018681978180
:101710002B960FB6F894DEBF0FBECDBFDF91CF91F1
:101720001F910F91FF90EF90DF90CF90BF90AF90FF
:101730009F908F907F906F905F904F903F902F90F1
:101740000895803749F0883701F7D4FE02C06894C5
:10175000D2F820E130E00DC06894D4F8F6CF34FE22
:1017600003C0822F8660D82E20E132E002C028E03C
:1017700030E0F801D7FE0FC06081718182819381D2
:101780000C5F1F4FA5010E944A0CC82ECA183D2CA1
:10179000E89437F852CF6081718190E080E00E5F6D
:1017A0001F4FF0CF42FC02C0839463CF8394839495
:1017B00060CF842D867809F45CCFF6CFB70180E244
:1017C00090E00E941A0C83948214C0F3512C5ECFD7
:1017D000522C5818821408F459CFF8CF842D8678EB
:1017E00009F466CF8BE241FE80E247FC8DE2B7014F
:1017F00090E05CCFB70180E390E00E941A0C9A94CD
:1018000057CF8FEF9FEF84CFFC0105906150704060
:101810000110D8F7809590958E0F9F1F0895FC01B9
:101820006150704001900110D8F7809590958E0F0F
:101830009F1F08950F931F93CF93DF93182F092FA6
:10184000EB018B8181FD09C01FEF0FEF812F902FDE
:10185000DF91CF911F910F91089582FF14C02E81C7
:101860003F818C819D81281739073CF4E881F981FB
:10187000CF0101969983888310838E819F81019681
:101880009F838E83E3CFE885F985812F1995892B76
:10189000A1F3DACFFA01AA27283051F1203181F1E2
:1018A000E8946F936E7F6E5F7F4F8F4F9F4FAF4F68
:1018B000B1E03ED0B4E03CD0670F781F891F9A1F7B
:1018C000A11D680F791F8A1F911DA11D6A0F711D2F
:1018D000811D911DA11D20D009F468943F912AE03B
:1018E000269F11243019305D3193DEF6CF01089523
:1018F000462F4770405D4193B3E00FD0C9F7F6CF54
:10190000462F4F70405D4A3318F0495D31FD40521B
:10191000419302D0A9F7EACFB4E0A69597958795B1
:1019200077956795BA95C9F7009761057105089590
:101930009B01AC010A2E069457954795379527953C
:10194000BA95C9F7620F731F841F951FA01D0895D4
:04195000F894FFCF39
:101954009CFF9CFFFFFF0000F502800000000000D8
:10196400F1015B0188013E02B9019701AB010D0A47
:10197400006D61737465723A002564004D6173747F
:1019840065723A204C3A20004D61737465723A20B6
:04199400543A2000A1
:00000001FF
