:100000000C9428010C9459010C9459010C94590139
:100010000C9459010C9459010C9459010C945901F8
:100020000C9459010C9459010C9459010C945901E8
:100030000C9459010C9459010C9459010C945901D8
:100040000C9459010C9459010C9459010C945901C8
:100050000C9459010C9459010C9459010C949C0274
:100060000C9446030C9410030C94E6020C94590172
:100070000C9459010C9459010C9459010C94590198
:100080000C9459010C9459010C9459010C94590188
:100090000C9459010C9459010C9459010C94590178
:1000A0000C9459010C9459010C9459010C94590168
:1000B0000C9459010C9459010C9459010C94590158
:1000C0000C9459010C9459010C9459010C94590148
:1000D0000C9459010C9459010C9459010C94590138
:1000E0000C9459010C94BD040C945B010C94900485
:1000F0000C94B7040C94CB040C94B3040C94CF046C
:100100000C94C1040C94AB010C9488010C94F10183
:100110000C9494040C9468040C9497010C94B90109
:100120000C94A9040C94AF040C94A5040C94C5047D
:100130000C9498040C949F040C949C040C94D30489
:100140000C943E020C94630400002100240027005C
:100150002A002D00300033000101000004010701D6
:100160000A0100002200250028002B002E0031008B
:10017000340002010000050108010B010505050519
:10018000070508080808020202020A0A080804040F
:10019000040401010101010101010303030303033D
:1001A0000303040707070C0C0C0C0C0C0C0C0202CC
:1001B000020206060606060606060B0B0B0B0B0BC9
:1001C0000B0B010210202008081020401020408056
:1001D000020102010804020101020408102040800B
:1001E0008040201008040201800402018040201099
:1001F00008040201080402010102040810204080E2
:10020000010204081020408000000A0B02090C0DB6
:100210000E080703040100000000000000000000B9
:1002200000000000000000000000000000000000CE
:10023000000000001211100000000000000000008B
:100240000000000000000000000000000000D304D7
:1002500011241FBECFEFD1E2DEBFCDBF00E00CBF47
:1002600012E0A0E0B2E0E4E1FAE000E00BBF02C07F
:1002700007900D92AC31B107D9F722E0ACE1B2E0C2
:1002800001C01D92A63FB207E1F711E0C8E2D1E03C
:1002900000E006C021970109802FFE010E940005A1
:1002A000C732D10780E00807A9F70E9470030C94B9
:1002B00008050C940000AF92BF92CF92DF92EF92AC
:1002C000FF920F931F93CF93DF936C017B018B0100
:1002D000040F151FEB015E01AE18BF08C017D10750
:1002E00059F06991D601ED91FC910190F081E02DDA
:1002F000C6011995892B79F7C501DF91CF911F911F
:100300000F91FF90EF90DF90CF90BF90AF90089546
:10031000FC01538D448D252F30E0842F90E0821B0B
:10032000930B541710F0CF96089501970895FC0190
:10033000918D828D981761F0A28DAE0FBF2FB11DE8
:100340005D968C91928D9F5F9F73928F90E0089540
:100350008FEF9FEF0895FC01918D828D981731F0FA
:10036000828DE80FF11D858D90E008958FEF9FEF4E
:100370000895FC01918D228D892F90E0805C9F4F24
:10038000821B91098F739927089589E592E00E9455
:10039000B90121E0892B09F420E0822F0895FC01A6
:1003A000A48DA80FB92FB11DA35ABF4F2C91848DD6
:1003B00090E001968F739927848FA689B7892C9333
:1003C000A089B1898C91837080648C93938D848D86
:1003D000981306C00288F389E02D80818F7D808389
:1003E0000895EF92FF920F931F93CF93DF93EC0149
:1003F00081E0888F9B8D8C8D98131AC0E889F989CC
:10040000808185FF15C09FB7F894EE89FF896083CE
:10041000E889F98980818370806480839FBF81E04F
:1004200090E0DF91CF911F910F91FF90EF90089591
:10043000F62E0B8D10E00F5F1F4F0F731127E02E6C
:100440008C8D8E110CC00FB607FCFACFE889F989A4
:10045000808185FFF5CFCE010E94CF01F1CFEB8DDA
:10046000EC0FFD2FF11DE35AFF4FF0829FB7F89478
:100470000B8FEA89FB8980818062CFCFCF93DF9396
:10048000EC01888D8823B9F0AA89BB89E889F989AC
:100490008C9185FD03C0808186FD0DC00FB607FCE1
:1004A000F7CF8C9185FFF2CF808185FFEDCFCE0114
:1004B0000E94CF01E9CFDF91CF91089580E090E0D5
:1004C000892B29F00E94C50181110E94000080E063
:1004D00090E0892B49F080E090E0892B29F00E9480
:1004E000000081110E94000080E090E0892B49F01B
:1004F00080E090E0892B29F00E94000081110E9489
:10050000000080E090E0892B49F080E090E0892BAA
:1005100029F00E94000081110C9400000895FC0154
:1005200001900020E9F73197AF01481B590BBC013E
:1005300089E592E00C945B011F920F920FB60F9227
:1005400011242F933F938F939F93AF93BF938091E9
:10055000550290915602A0915702B09158023091E5
:10056000540223E0230F2D3758F50196A11DB11D2C
:10057000209354028093550290935602A093570201
:10058000B09358028091500290915102A091520272
:10059000B09153020196A11DB11D8093500290931A
:1005A0005102A0935202B0935302BF91AF919F9119
:1005B0008F913F912F910F900FBE0F901F90189524
:1005C00026E8230F0296A11DB11DD2CF1F920F92D4
:1005D0000FB60F9211240BB60F922F933F934F93A8
:1005E0005F936F937F938F939F93AF93BF93EF939B
:1005F000FF9389E592E00E94CF01FF91EF91BF91B7
:10060000AF919F918F917F916F915F914F913F91AA
:100610002F910F900BBE0F900FBE0F901F9018954B
:100620001F920F920FB60F9211240BB60F922F93B9
:100630008F939F93EF93FF93E0916902F0916A0289
:100640008081E0916F02F091700282FD1DC0908167
:10065000809172028F5F8F7320917302821741F035
:10066000E0917202F0E0E75AFD4F958F809372029D
:10067000FF91EF919F918F912F910F900BBE0F9053
:100680000FBE0F901F9018958081F2CF1F920F928E
:100690000FB60F9211240BB60F928F939F93EF9387
:1006A000FF938EB590911C02923378F4E0911C0276
:1006B00091E09E0F90931C02F0E0E35EFD4F80837B
:1006C0008D3019F481E080934F02FF91EF919F915B
:1006D0008F910F900BBE0F900FBE0F901F9018952B
:1006E000789484B5826084BD84B5816084BD85B50D
:1006F000826085BD85B5816085BD80916E00816019
:1007000080936E00109281008091810082608093BE
:1007100081008091810081608093810080918000C0
:100720008160809380008091B10084608093B100EB
:100730008091B00081608093B000809191008260D0
:1007400080939100809191008160809391008091CD
:1007500090008160809390008091A10082608093DE
:10076000A1008091A10081608093A1008091A000F0
:1007700081608093A000809121018260809321019B
:10078000809121018160809321018091200181600D
:100790008093200180917A00846080937A00809118
:1007A0007A00826080937A0080917A0081608093E1
:1007B0007A0080917A00806880937A001092C1005C
:1007C000E0916902F0916A0282E08083E091650223
:1007D000F09166021082E0916702F09168028FEC5E
:1007E000808310927102E0916D02F0916E0286E0BA
:1007F0008083E0916B02F0916C0280818061808344
:10080000E0916B02F0916C02808188608083E091BE
:100810006B02F0916C02808180688083E0916B02B2
:10082000F0916C0280818F7D808382E192E00E9452
:100830008F0289E192E00E948F0244EF51E0FA01B9
:1008400064912EEA31E0F9018491882399F090E0D7
:10085000880F991FFC01E85BFE4FA591B491FC0144
:10086000EE59FE4F859194918FB7F8949C91692B26
:100870006C938FBFEAE3F2E08491FA014491F901AD
:100880002491222309F433C0882311F1815082314D
:10089000F8F4E82FF0E08827EF5AFB4F8F4F0C94C5
:1008A000000598049C0463049004940468049F0465
:1008B000A504A904AF04B304B704BD04C1046804CB
:1008C000C504CB04CF04809180008F778093800093
:1008D000E22FF0E0EE0FFF1FEE59FE4FA591B4910D
:1008E0008FB7F8949C91409549234C938FBF8CB55A
:1008F00080648CBD10921C0210924F028CB58068EF
:100900008CBD80914F02882341F010924F028DE1FF
:1009100092E00E948F0210921C020E945E02F1CFB0
:10092000809180008F7DD2CF80918000877FCECF55
:1009300084B58F7784BDCCCF84B58F7DFBCF80917C
:10094000B0008F778093B000C3CF8091B0008F7DCF
:10095000F9CF809190008F7780939000B9CF8091EC
:1009600090008F7DF9CF80919000877FF5CF8091A7
:10097000A0008F778093A000ABCF8091A0008F7DE7
:10098000F9CF8091A000877FF5CF809120018F77EC
:10099000809320019DCF809120018F7DF9CF8091A0
:1009A0002001877FF5CFE9E5F2E01382128288EE1D
:1009B00093E0A0E0B0E084839583A683B78384E0CE
:1009C00092E09183808385EC90E09587848784EC26
:1009D00090E09787868780EC90E0918B808B81EC0C
:1009E00090E0938B828B82EC90E0958B848B86ECED
:1009F00090E0978B868B118E128E138E148E089535
:100A0000EE0FFF1F881F8BBF0790F691E02D199402
:040A1000F894FFCF88
:100A140000000000F1015B0188013E02B901970169
:0C0A2400AB01736C6176653A000D0A00AE
:00000001FF
