:100000000C9448010C9479010C9479010C947901B9
:100010000C9479010C9479010C9479010C94790178
:100020000C9479010C9479010C9479010C94790168
:100030000C9479010C9479010C9479010C94790158
:100040000C9479010C9479010C9479010C94790148
:100050000C9479010C9479010C9479010C94C208E8
:100060000C9479010C9479010C9479010C94790128
:100070000C9479010C9479010C9479010C94790118
:100080000C9479010C9479010C9479010C94790108
:100090000C9479010C9479010C9479010C940C095D
:1000A0000C9479010C9479010C9479010C947901E8
:1000B0000C9479010C9479010C9479010C947901D8
:1000C0000C9479010C9479010C9479010C947901C8
:1000D0000C9479010C9479010C9479010C947901B8
:1000E0000C9479010C9422020C94A5050C942B021B
:1000F0000C9414020C945D020C941E020C941002D9
:100100000C94F1010C9426020C94A5070C94300277
:100110000C94F9010C9406020C940A020C94EB0165
:100120000C948B050C947B050C948E020C940002AD
:100130000C94D2050C9418020C94F5010C942C022A
:100140000C947C050C9406060C94A0010C949E055E
:100150000C9407060C949E010C94FD010C94CE02A5
:100160000C94300A0C949F010C945A10000021004A
:10017000240027002A002D00300033000101000078
:10018000040107010A0100002200250028002B00BD
:100190002E003100340002010000050108010B01AE
:1001A000000020002300260029002C002F00320030
:1001B0000001000003010601090105050505070509
:1001C00008080808020202020A0A080804040404D3
:1001D00001010101010101010303030303030303FF
:1001E000040707070C0C0C0C0C0C0C0C020202028E
:1001F00006060606060606060B0B0B0B0B0B0B0B77
:100200000102102020080810204010204080020128
:10021000020108040201010204081020408080400D
:10022000201008040201800402018040201008040C
:1002300002010804020101020408102040800102AA
:1002400004081020408000000A0B02090C0D0E0863
:10025000070304010000000000000000000000008F
:10026000000000000000000000000000000000008E
:10027000000012111000000000000000000000004B
:10028000000000000000000000000000300A5A10CA
:1002900011241FBECFEFD1E2DEBFCDBF00E00CBF07
:1002A00024E0AEEDB2E001C01D92AA35B207E1F73D
:1002B00012E0A0E0B2E0E2EEF5E200E00BBF02C027
:1002C00007900D92AE3DB107D9F711E0C7E4D1E038
:1002D00000E006C021970109802FFE010E94C11095
:1002E000C634D10780E00807A9F70E94D10A0C9410
:1002F000DF120C94000096E0899FD0011124A153D5
:10030000BC4F90967C936E935F9791E091969C93EF
:100310009197E0913C04F0913D0490913B04992326
:1003200039F0309751F0811108C08091EB03199496
:10033000309719F05C968C91FACF0895089508953E
:10034000AF92BF92CF92DF92EF92FF920F931F93E3
:10035000CF93DF936C017B018B01040F151FEB0121
:100360005E01AE18BF08C017D10759F06991D601D8
:10037000ED91FC910190F081E02DC6011995892B3A
:1003800079F7C501DF91CF911F910F91FF90EF9009
:10039000DF90CF90BF90AF9008958150823108F0E8
:1003A0005AC0E82FF0E08827E752FE4F8F4F0C9499
:1003B000C110F901FD01EB01F101F5012B02000271
:1003C00006020A021002140218021E0222022B0266
:1003D00026022C023002809180008F77809380006B
:1003E0000895809180008F7DF9CF80918000877F74
:1003F000F5CF84B58F7784BD089584B58F7DFBCF0D
:100400008091B0008F778093B00008958091B00004
:100410008F7DF9CF809190008F7780939000089521
:10042000809190008F7DF9CF80919000877FF5CFEC
:100430008091A0008F778093A00008958091A00004
:100440008F7DF9CF8091A000877FF5CF809120012B
:100450008F77809320010895809120018F7DF9CFBF
:1004600080912001877FF5CFCF93DF93282F30E055
:10047000F901EA5BFD4F8491F901E050FE4FD49100
:10048000F901E654FE4FC491CC23A1F081110E94E2
:10049000CD01EC2FF0E0EE0FFF1FE056FE4FA591CF
:1004A000B491EC91ED2381E090E009F480E0DF91DC
:1004B000CF91089580E090E0FACF862F0C9434021B
:1004C0001F93CF93DF93282F30E0F901EA5BFD4FB4
:1004D0008491F901E050FE4FD491F901E654FE4FAA
:1004E000C491CC23A9F0162F81110E94CD01EC2FCD
:1004F000F0E0EE0FFF1FEA57FE4FA591B4918FB7C2
:10050000F894EC91111108C0D095DE23DC938FBFD5
:10051000DF91CF911F910895DE2BF8CF862F642FA6
:100520000C946002CF93DF9390E0FC01E050FE4F0B
:10053000249186549E4FFC0184918823C9F090E059
:10054000880F991FFC01E459FE4FA591B491FC015D
:10055000EA57FE4FC591D49161110DC09FB7F89431
:100560008C91209582238C938881282328839FBF98
:10057000DF91CF910895623051F49FB7F8943C9188
:10058000822F809583238C93E8812E2BEFCF8FB71A
:10059000F894EC912E2B2C938FBFEACF862F642FEB
:1005A0000C9492023FB7F89480912703909128030E
:1005B000A0912903B0912A0326B5A89B05C02F3F1F
:1005C00019F00196A11DB11D3FBFBA2FA92F982F79
:1005D0008827BC01CD01620F711D811D911D42E074
:1005E000660F771F881F991F4A95D1F708952FB777
:1005F000F8946091230370912403809125039091D6
:1006000026032FBF08950F931F93CF93DF93C82F17
:10061000D62F86E0C89FF0011124E153FC4F11A2B0
:10062000878D90A181309105F1F058F082309105CD
:10063000F1F1039709F440C0DF91CF911F910F9121
:1006400008956623C9F361E070E08C2F0E947B015E
:100650000E94F70260932704709328048093290472
:1006600090932A04E9CF0E94F70200912704109189
:1006700028042091290430912A04AB01BC01401BBD
:10068000510B620B730B8091390490913A04B0E0E6
:10069000A0E084179507A607B70748F462E070E06A
:1006A0008C2FDF91CF911F910F910C947B0163E010
:1006B00070E0D111C1CFF4CF70E060E0F1CF2091B4
:1006C000FF02260F3327331F21323105ECF420912E
:1006D0009303FC0190E080E0243069F082E008950B
:1006E000A091FF022191AC0141525D4FA40FB52FA3
:1006F000B11D2C930196861798F38091FF02680F25
:100700006093FF0280E0089581E0089510929303C2
:1007100081E08093920310926D0361E084E10E9476
:10072000600261E085E10E946002E9EBF0E0808117
:100730008E7F808380818D7F808388E48093B80062
:1007400085E48093BC000895CF93DF9391E090936C
:10075000DE028823B9F0C091B800D091BA00809130
:10076000BC008A7B8093BC0060E084E10E94600250
:1007700060E085E10E9460020E948603D093BA0087
:10078000C093B800DF91CF910895CF92DF92EF929E
:10079000FF920F931F93CF93DF93D091BC0381E01F
:1007A000D13208F09CC0C091BB030E94D2026B0101
:1007B0007C018091930381116CC082E0809393034C
:1007C00081E0809392038FEF8093910310929003C6
:1007D000D0938F03ABE9B3E0EFE6F3E080E0D8130A
:1007E0008DC010926E0380916E03CC0FC82BC09306
:1007F0006E0380916D03813009F084C010926D0307
:100800000E94D2026B017C0180916E038093BB0039
:100810008091950390919603A0919703B0919803CE
:10082000892B8A2B8B2BA1F00E94D2020091950379
:100830001091960320919703309198036C197D09CC
:100840008E099F09061717072807390708F442C0C1
:100850008091BC0083FDD8CF85EC8093BC000E94C2
:10086000D2026B017C0180919303823009F44CC069
:10087000809191038F3F09F469C080919103803288
:1008800009F466C080919103803309F463C084E069
:1008900026C08091950390919603A0919703B09103
:1008A0009803892B8A2B8B2B09F483CF0E94D202C9
:1008B000009195031091960320919703309198032E
:1008C0006C197D098E099F09061717072807390734
:1008D00008F06FCF809194030E94A40385E01092EA
:1008E0009A031092BC0310929903DF91CF911F914C
:1008F0000F91FF90EF90DF90CF9008959D9191938D
:100900008F5F6DCF85EEA9CF80919503909196036F
:10091000A0919703B0919803892B8A2B8B2B09F414
:10092000A2CF0E94D20200919503109196032091CC
:100930009703309198036C197D098E099F0906175A
:1009400017072807390708F08ECFC4CF80E0C7CF3C
:1009500082E0C5CF83E0C3CFCF92DF92EF92FF92C8
:100960000F931F93CF93DF93D82FC62F613208F0D8
:1009700098C00E94D2026B017C0180919303811187
:100980006BC081E080939303809392039FEF9093D9
:100990009103109290039C0F90938F0380936E03AA
:1009A00080916E03DD0FD82BD0936E0380916D0381
:1009B000813009F078C010926D030E94D2026B0161
:1009C0007C0180916E038093BB0080919503909190
:1009D0009603A0919703B0919803892B8A2B8B2BB8
:1009E000A1F00E94D20200919503109196032091EC
:1009F0009703309198036C197D098E099F0906179A
:100A000017072807390708F448C08091BC0083FD08
:100A1000D8CF85EC8093BC000E94D2026B017C0190
:100A200080919303813009F440C0809190038C172A
:100A300010F4C0919003EFE6F3E0ADE4B3E080E0A2
:100A40008C1355C08C2FDF91CF911F910F91FF9088
:100A5000EF90DF90CF900895809195039091960349
:100A6000A0919703B0919803892B8A2B8B2B09F4C3
:100A700084CF0E94D2020091950310919603209199
:100A80009703309198036C197D098E099F09061709
:100A900017072807390708F070CF809194030E9448
:100AA000A403C0E0CFCF85EEB5CF809195039091A0
:100AB0009603A0919703B0919803892B8A2B8B2BD7
:100AC00009F4AECF0E94D2020091950310919603D3
:100AD00020919703309198036C197D098E099F0925
:100AE000061717072807390708F09ACFD6CF919134
:100AF0009D938F5FA5CF0895E091300380912F03E0
:100B0000E81730F4F0E0E35BFC4F808190E008955B
:100B10008FEF9FEF08959091300380912F032FEF77
:100B20003FEF981748F4E92FF0E0E35BFC4F20819A
:100B300030E09F5F90933003C901089580912F03A7
:100B400090913003891B990B0895CF92DF92EF9219
:100B5000FF920F931F93CF93DF937C01CB018A0108
:100B600020919903222389F0EB016B01C40ED51E5D
:100B7000CC15DD0569F06991D701ED91FC910190EB
:100B8000F081E02DC7011995F3CF642F0E945F0318
:100B9000C801DF91CF911F910F91FF90EF90DF90EF
:100BA000CF900895CF93DF931F92CDB7DEB76983BF
:100BB000209199032223F9F02091BC03203258F0B0
:100BC00021E030E0FC013383228390E080E00F904D
:100BD000DF91CF91089580919A03E82FF0E0E556D8
:100BE000FC4F998190838F5F80939A038093BC031D
:100BF00081E090E0ECCF61E0CE0101960E945F03BE
:100C0000F7CF682F8DEB93E00C94D205089590E018
:100C100080E008950F931F93CF93DF9381E080933B
:100C2000990380E58093BB0310929A031092BC0352
:100C300090E080E00E9401068091390390913A0390
:100C40000E94010680913703909138030E940106AB
:100C500080913603882319F18AEA90E00E94010608
:100C6000C3E4D3E0899199910E94010683E0CB34DB
:100C7000D807C1F7CBE3D3E003E413E0899199915E
:100C80000E9401060C171D07C9F78AEA90E00E942E
:100C90000106DF91CF911F910F910C94C50390E055
:100CA00080E0DCCFCF93DF93EC0160E08E810E9487
:100CB000600261E08E810E94600260E08E810E948D
:100CC00060028BE891E00197F1F7DF91CF910895F1
:100CD000CF92DF92EF92FF920F931F93CF93DF9308
:100CE0006C017C0187E0E80EF11CD0E0C0E0062F2B
:100CF00010E0B8010C2E02C0759567950A94E2F7D2
:100D00006170F70181917F010E9460022196C430D9
:100D1000D10579F7C601DF91CF911F910F91FF9017
:100D2000EF90DF90CF900C945206CF92DF92EF922B
:100D3000FF920F931F93CF93DF93EC01F62E642F56
:100D40008C810E9460028D818F3F19F060E00E94CB
:100D500060020F2D10E08F8584FF25C06E0187E0B3
:100D6000C80ED11CF12CE12CB8010E2C02C07595D7
:100D700067950A94E2F76170F60181916F010E9414
:100D80006002FFEFEF1AFF0A88E0E816F10461F74E
:100D9000CE01DF91CF911F910F91FF90EF90DF90E7
:100DA000CF900C945206B80184E0759567958A95AA
:100DB000E1F7CE010E9468066F2DCE01DF91CF9141
:100DC0001F910F91FF90EF90DF90CF900C946806E9
:100DD00040E0682F8EE394E00C94950681E00E9439
:100DE000E8068BE39FE10197F1F70895CF93DF9336
:100DF000823029F490914D04986090934D04809333
:100E000051041092520480E48093530480E1809353
:100E1000540480E58093550461E0809142040E946F
:100E20009202809143048F3F19F061E00E94920288
:100E300061E0809144040E949202CEE3D4E09E01DE
:100E40002E53344080914D0484FD0BC084E090E02B
:100E500021962817390744F461E08E810E9492029E
:100E6000EECF88E090E0F4CF8BE39DE00197F1F7BF
:100E700060E0809142040E94600260E0809144043E
:100E80000E946002809143048F3F19F060E00E944D
:100E9000600280914D0484FD34C063E08EE394E0F1
:100EA0000E946806CBE4D6E4CE010197F1F763E037
:100EB0008EE394E00E9468062197F1F763E08EE3E9
:100EC00094E00E94680683E592E00197F1F762E002
:100ED0008EE394E00E94680680914D0480620E9437
:100EE000E80684E080934E048CE00E94E8060E94AD
:100EF000EE0682E080934F0486E0DF91CF910C9460
:100F0000E80680620E94E8068BE496E40197F1F718
:100F100080914D0480620E94E80683E592E001978B
:100F2000F1F780914D0480620E94E806D5CF909140
:100F30005104891710F08FEF890FE82FF0E0E25C81
:100F4000FB4F848980680C94E80641E00E94950676
:100F500081E090E008958F929F92AF92BF920F939D
:100F60001F93CF93DF93CDB7DEB7A1970FB6F89459
:100F7000DEBF0FBECDBF19A2423008F44AE08E0199
:100F80000F5D1F4F842E912CB12CA12CA501940133
:100F90000E949F10E62FB901CA01EA3044F5E05DD6
:100FA000D801EE938D01232B242B252B79F790E08C
:100FB00080E0109769F0FD0101900020E9F731977A
:100FC000AF014A1B5B0BBD018EE394E00E94A001C0
:100FD000A1960FB6F894DEBF0FBECDBFDF91CF91C3
:100FE0001F910F91BF90AF909F908F900895E95CF3
:100FF000D7CFCF92DF92EF92FF926C01990FEE085C
:10100000FF08F7FE16C041E06DE28EE394E00E9417
:10101000950666277727CB016C197D098E099F09F4
:101020004AE00E94AB070196FF90EF90DF90CF90CF
:1010300008954AE0C701B601FF90EF90DF90CF908E
:101040000C94AB07FC0101900020E9F73197AF0148
:10105000481B590BBC018EE394E00C94A001CF9384
:10106000DF93EC0188819981009711F00E9465114E
:10107000198218821D821C821B821A82DF91CF91F5
:1010800008950F931F93CF93DF93EC01888199818B
:10109000009759F02A813B812617370730F081E00D
:1010A000DF91CF911F910F9108958B016F5F7F4F5B
:1010B0000E94EE11009759F0998388831B830A835D
:1010C0002C813D81232B59F7FC011082E8CF80E071
:1010D000E7CFEF92FF920F931F93CF93DF93EC0133
:1010E0007B018A01BA010E94410881110BC0CE0127
:1010F0000E942F08CE01DF91CF911F910F91FF9099
:10110000EF9008951D830C83B701888199810E9417
:10111000D812F0CF85ED8093BC008091950390911B
:101120009603A0919703B09198030796A11DB11D56
:1011300023E0B695A795979587952A95D1F72091A5
:10114000BC0024FD03C010929303089540919503C1
:10115000509196036091970370919803452B462B0D
:10116000472B69F30097A105B10541F025E32A95C6
:10117000F1F700000197A109B109E1CF8091940333
:101180000C94A4031F920F920FB60F9211242F9369
:101190003F938F939F93AF93BF938091230390913D
:1011A0002403A0912503B09126033091220323E06C
:1011B000230F2D3758F50196A11DB11D2093220351
:1011C0008093230390932403A0932503B0932603D5
:1011D0008091270390912803A0912903B0912A03BD
:1011E0000196A11DB11D8093270390932803A0931E
:1011F0002903B0932A03BF91AF919F918F913F91A3
:101200002F910F900FBE0F901F90189526E8230F77
:101210000296A11DB11DD2CF1F920F920FB60F9251
:1012200011240BB60F922F933F934F935F936F93BD
:101230007F938F939F93AF93BF93EF93FF9380918F
:10124000B900887F803609F44DC008F040C088326C
:1012500009F4A9C028F5803109F49DC0C8F4882399
:1012600009F4FBC0883009F496C0FF91EF91BF915B
:10127000AF919F918F917F916F915F914F913F912E
:101280002F910F900BBE0F900FBE0F901F901895CF
:10129000883109F488C0803241F78093910314C0EB
:1012A000803409F49DC040F48033B9F38833E9F603
:1012B0008093910385ECB0C0803509F485C08835F2
:1012C00009F496C0883489F60E948A08CECF8839FE
:1012D00009F48CC038F5883729F050F4883611F0BD
:1012E000803719F683E0809393031092210357C04F
:1012F000883809F47BC0803919F0803809F0B5CFFF
:1013000080912103803208F071C0E091210381E0D7
:101310008E0F809321038091BB00F0E0EF5FFC4FC4
:1013200080833DC0803B39F0E0F4803A09F479C015
:10133000883A09F09ACF84E08093930310920003D7
:101340001092FF02E0912D03F0912E0319958091E8
:10135000FF0281110FC081E08093FF021092DF0233
:1013600009C0803C09F4A6CF883C09F4A3CF883B90
:1013700009F07BCFE091000381E08E0F80930003A2
:10138000F0E0E152FD4F80818093BB00909100031B
:101390008091FF0229C080916E038093BB0085EC91
:1013A0008093BC0062CF9091900380918F03981737
:1013B00058F5E091900381E08E0F80939003F0E068
:1013C000E159FC4F8081E9CFE091900381E08E0FDD
:1013D000809390038091BB00F0E0E159FC4F808343
:1013E0009091900380918F039817C8F285E8D8CF29
:1013F000E091900381E08E0F809390038091BB0079
:10140000F0E0E159FC4F80838091920381115CCF21
:1014100081E080936D0384EA8093BC001092930373
:1014200024CF85EC8093BC0010929303809121031C
:10143000803230F4E0912103F0E0EF5FFC4F108246
:101440006091210370E0E0912B03F0912C0381E087
:1014500093E019951092210308CF1092910334CF95
:101460001092C0031092BF0388EE93E0A0E0B0E0BA
:101470008093C1039093C203A093C303B093C403AA
:101480008DE192E09093BE038093BD0310924104DE
:101490001092400489E392E090933F0480933E04CD
:1014A00086E1809342048FEF8093430487E1809329
:1014B000440488E18093450489E1809346048AE1ED
:1014C000809347048BE18093480410924904109262
:1014D0004A0410924B0410924C0410924D0481E087
:1014E0000E94F6061092D1031092D5031092D403F5
:1014F0001092D6038FE292E09093D0038093CF03B3
:10150000EBEEF3E01082148213821582369684E0AB
:10151000E732F807B9F783E092E0909332048093C2
:10152000310480E092E0909334048093330484E0AB
:101530008093350483E08093360487E092E09093B3
:10154000300480932F048AE090E0909338048093D5
:10155000370484EF91E090933A0480933904109219
:101560003D0410923C0410922B0410922C04109213
:101570002D0410922E0410923B041092CA03109274
:10158000C9031092CC031092CB031092CE03109299
:10159000CD0350E040E068E772E089EC93E00C9402
:1015A0006908CF93DF9300D000D01F921F92CDB770
:1015B000DEB7789484B5826084BD84B5816084BDD3
:1015C00085B5826085BD85B5816085BD80916E00E1
:1015D000816080936E001092810080918100826012
:1015E000809381008091810081608093810080914F
:1015F00080008160809380008091B100846080933E
:10160000B1008091B00081608093B0008091910022
:10161000826080939100809191008160809391001D
:10162000809190008160809390008091A100826001
:101630008093A1008091A10081608093A10080919E
:10164000A00081608093A00080912101826080933E
:1016500021018091210181608093210180912001ED
:1016600081608093200180917A00846080937A0069
:1016700080917A00826080937A0080917A00816004
:1016800080937A0080917A00806880937A0010922B
:10169000C10082E00E94F6060E94EE0618E061E0BA
:1016A000812F0E94920260E0812F0E9460021F5FE2
:1016B0001C30A9F78FEF9FEF90934C0380934B035F
:1016C00011E0109331030E94F7026093320370938C
:1016D00033038093340390933503109230031092B8
:1016E0009A031092BC030E9486038EE991E09093C6
:1016F0002E0380932D038FE991E090932C03809328
:101700002B031093990380E58093BB038BE090E05B
:101710000E9401060E94C5031093990310929A0338
:101720001092BC0361E080E50E94AC0480932F031B
:101730008DEB93E00E948B05082F0E94C5030A3AA7
:1017400009F40CC181E090E090933A03809339034F
:1017500090933803809337031092360382E090E031
:1017600090934403809343039093460380934503EF
:10177000909348038093470390934A0380934903CF
:1017800090933C0380933B0390933E0380933D03EF
:101790009093400380933F039093420380934103CF
:1017A00081E492E00E94220881E00E94970780E590
:1017B00092E00E94220822242A94322CCC24CA943B
:1017C000DC2CA0904B03B0904C03C5010597029709
:1017D00080F060E088E00E94600260E089E00E94A2
:1017E000600260E08AE00E94600260E08BE00E949C
:1017F0006002E0903703F0903803F5E0EF16F10453
:101800000CF02FC110E000E021E0E21AF10888E0BE
:10181000800F61E00E151F0509F060E00E94600274
:101820000F5F1F4F0430110591F755E0A516B10465
:1018300009F063C00E94F702009132031091330354
:101840002091340330913503601B710B820B930B95
:101850006C3271408105910508F44FC080913703C7
:1018600090913803FC01EE0FFF1FE75CFC4F2081D5
:101870003181215031093183208337FF05C0019622
:101880009093380380933703009137031091380306
:10189000053011050CF401C1109236030E940A06AE
:1018A00080E00E9497078DE592E00E9422080E9446
:1018B000F7020091320310913303209134033091E9
:1018C0003503601B710B820B930B64367105810528
:1018D000910598F080913103882309F4D3C00E94C8
:1018E000EE06109231030E94F70260933203709368
:1018F0003303809334039093350381E080933B045A
:101900000E94F70200912B0410912C0420912D04C9
:1019100030912E04AB01BC01401B510B620B730BC9
:101920008091370490913804B0E0A0E084179507C7
:10193000A607B70708F02EC210E0809135041817EB
:1019400008F029C1E0913104F0913204E10FF11D5A
:1019500062E080810E9492021F5FEFCF1093990393
:1019600010929A031092BC0390E080E00E9401065E
:101970000E94C5031093990310929A031092BC031E
:101980006BE080E50E94AC041092300380932F033B
:101990008DEB93E00E948B057C0190933A0380933A
:1019A00039038DEB93E00E948B059093380380936D
:1019B00037038DEB93E00E948B056C0181E02AEAEE
:1019C000C216D10409F080E08093360303E413E0EB
:1019D0008DEB93E00E948B05F801819391938F0129
:1019E000F3E00B341F07A1F72AEAC216D10429F14C
:1019F000809143039091440390933C0380933B0375
:101A0000809145039091460390933E0380933D035C
:101A100080914703909148039093400380933F0344
:101A20008091490390914A0390934203809341032C
:101A3000F0923803E0923703B3CE0BE313E0F3E404
:101A4000EF2EF3E0FF2E8DEB93E00E948B05F80163
:101A5000819391938F01EE16FF06A9F781ED92E035
:101A6000A1CE61E088E00E94600261E089E00E940E
:101A7000600261E08AE00E94600261E08BE00E9407
:101A80006002D3CE80E00E9497078DE592E00E942D
:101A9000220881E08093310326CF0E94F7026093F1
:101AA000320370933303809334039093350381E0C2
:101AB00080939903F0E5F093BB0310929A03109280
:101AC000BC0381E090E00E940106C8010E9401066B
:101AD0000E94C5030E94D2022B013C0152E3852ED5
:101AE000912CA12CB12C0E94D2026419750986098F
:101AF0009709683E734081059105A8F321E0821A99
:101B00009108A108B10858EE450E53E0551E611C1E
:101B1000711C81149104A104B10429F781E0809320
:101B2000990310929A031092BC03C80106960E9472
:101B30000106000F111FF801E75CFC4F80819181C5
:101B40000E9401060E94C5030E94EE0680E00E94EA
:101B500097078AE692E00E942208809137039091CD
:101B600038030E94F90781E792E00E942208E09181
:101B70003703F0913803EE0FFF1FE75CFC4F8081C5
:101B800091810E94F90781E00E94970789E792E01E
:101B90000E942208B2CE712C80913604781608F08B
:101BA00063C0E72CF12CE0913304F0913404EE0D86
:101BB000FF1D61E080810E949202E0913304F09168
:101BC0003404EE0DFF1D60E080810E94600281E020
:101BD00090E0A0E0B0E0072C04C0880F991FAA1F76
:101BE000BB1F0A94D2F74C015C01A094B094612C05
:101BF00080913504681608F5062D10E0E091310457
:101C0000F0913204E00FF11F80810E9434020C5FDA
:101C10001F4F000F111FF801E153FC4F892B41F4B6
:101C20008081918188299929918380836394E0CF71
:101C3000808191818A219B21F7CFE0913304F0913B
:101C40003404EE0DFF1D61E080810E9460028091EE
:101C5000330490913404E80EF91E60E0F7018081AE
:101C60000E949202739498CF0FEC13E0F801878DD5
:101C700090A1892B21F4148E368E258E11A23696D2
:101C800024E0EB30F20799F7F12C80913504F81637
:101C900008F053C0E12CAF2CB12CAA0CBB1CC50121
:101CA00089529C4F5C0120913604E21608F043C033
:101CB000F501608171810E2C02C0769567950A94BA
:101CC000E2F7F29E900111242E0D311DEFECF3E0AE
:101CD00080E0458D568D2417350709F4E9C18F5FE3
:101CE00036968A30B1F760FF24C0EFECF3E090E065
:101CF00080E0448D411118C0E0912F04F091300430
:101D0000E20FF31F408156E0589FF001599FF00DFC
:101D10001124E153FC4F448F368F258F10A2178E6C
:101D200061E00E94030305C0019636968A30910552
:101D300001F7E394B8CFF394A8CFF12CF80181A177
:101D40008111F82E0A5F1F4FF4E00B301F07B1F727
:101D50000E94F70260932B0470932C0480932D044F
:101D600090932E04FF20B1F08091F003882391F02E
:101D70008091EE039091EF03019761F4F090EB03F3
:101D8000F1100BC080E090E0892B09F41ACD0E947D
:101D9000000017CD10923B04F5CF23E2F21609F4B0
:101DA00043C05AE2F51609F4C2C01A8219821C8295
:101DB0001B821E821D826091C9037091CA03611546
:101DC000710541F04091CD035091CE03CE010196B3
:101DD0000E946908FF8218860D811E810F5F1F4FC8
:101DE000B801CE0101960E94410881114EC1CE0179
:101DF00001960E942F0869817A816115710509F4A5
:101E000052C14D815E8189EC93E00E94690889810D
:101E10009A81009711F00E94651141E06F2D8EE3C9
:101E200094E00E949506AECF0E94EE0680E00E94EC
:101E3000970780914B0390914C038F3F980761F473
:101E400010924C0310924B0388E892E00E94220803
:101E500081E00E94970796CF85309105C0F481E418
:101E600092E00E94220881E00E94970780E592E0BC
:101E70000E94220850E040E068E772E089EC93E0BD
:101E80000E946908D0924C03C0924B037BCF8530EF
:101E9000910591F489E992E00E94220881E00E9474
:101EA000970786EA92E00E94220886E090E09093ED
:101EB0004C0380934B0366CF069709F063CF809164
:101EC00043039091440390933C0380933B038091A0
:101ED00045039091460390933E0380933D03809188
:101EE0004703909148039093400380933F03809170
:101EF000490390914A039093420380934103809158
:101F0000390390913A0390933803809337031092EA
:101F100036030E940A0687EB92E00E94220881E0C5
:101F20000E94970780E592E00E942208ABCF0E94B2
:101F3000EE0680E00E94970700914B0310914C033E
:101F40000F3F100719F00630110561F481E080930E
:101F500036030E940A06E5E0F0E0F0934C03E093BC
:101F60004B0310CF8091CD039091CE03892B09F4C0
:101F700009CF0115110521F58091C9039091CA037C
:101F80000097D1F00E94631070933A036093390375
:101F900081E090E090934C0380934B0383EC92E0BC
:101FA0000E94220880914B0390914C030E94F907F4
:101FB00081E00E94970755C060E070E0CB01E4CF5C
:101FC0000530110509F44DC08091C9039091CA03F1
:101FD000009709F44FC00E946310F801EE0FFF1F35
:101FE000EF5BFC4F718360830430110509F046C03C
:101FF000D0924C03C0924B038091390390913A03E5
:102000009093380380933703809143039091440366
:1020100090933C0380933B0380914503909146034A
:1020200090933E0380933D03809147039091480332
:102030009093400380933F038091490390914A031A
:10204000909342038093410381E492E00E9422082E
:1020500081E00E94970780E592E00E9422080E949A
:102060000A0650E040E068E772E089EC93E00E94E5
:10207000690888CE60E070E0CB01AFCF0F5F1F4FE3
:1020800010934C0300934B0389CF29813A818D81B2
:102090009E81BE01695F7F4F820F931F0E94D812FD
:1020A0001E830D83A8CE89EC93E00E942F08AFCE4B
:1020B000617037CE8091C9039091CA03009711F0E7
:1020C0000C94651108951F93FC0199278827BC0182
:1020D000E89411911032E9F3193010F01E30C8F372
:1020E0001B3251F01D3249F4689406C00E948A10D8
:1020F000610F711D811D911D119110531A30B0F3A4
:102100003EF490958095709561957F4F8F4F9F4FCE
:102110001F910895592F482F372F262F660F771FAD
:10212000881F991F660F771F881F991F620F731FE3
:10213000841F951F660F771F881F991F0895A1E2BE
:102140001A2EAA1BBB1BFD010DC0AA1FBB1FEE1F31
:10215000FF1FA217B307E407F50720F0A21BB30B7C
:10216000E40BF50B661F771F881F991F1A9469F7F8
:1021700060957095809590959B01AC01BD01CF0154
:102180000895EE0FFF1F881F8BBF0790F691E02D7B
:1021900019940F931F93CF93DF938230910510F41E
:1021A00082E090E0E0915804F091590430E020E0A2
:1021B000B0E0A0E0309799F42115310509F44AC048
:1021C000281B390B24303105D8F58A819B81611594
:1021D000710589F1FB0193838283FE0111C0408167
:1021E00051810281138148175907E0F048175907B8
:1021F00099F4109761F012960C93129713961C9312
:102200003296CF01DF91CF911F910F9108950093E6
:10221000580410935904F4CF2115310551F0421799
:10222000530738F0A901DB019A01BD01DF01F80174
:10223000C1CFEF01F9CF9093590480935804CDCFCB
:10224000FE01E20FF31F81939193225031093983EC
:102250002883D7CF2091560430915704232B41F483
:1022600020911502309116023093570420935604A2
:1022700020911302309114022115310541F42DB73C
:102280003EB74091170250911802241B350BE09184
:102290005604F0915704E217F307A0F42E1B3F0BEE
:1022A0002817390778F0AC014E5F5F4F24173507C8
:1022B00048F04E0F5F1F509357044093560481938C
:1022C00091939FCFF0E0E0E09CCFCF93DF93009716
:1022D000E9F0FC01329713821282A0915804B09168
:1022E0005904ED0130E020E01097A1F42081318104
:1022F000820F931F209156043091570428173907F5
:1023000009F061C0F0935704E0935604DF91CF9138
:102310000895EA01CE17DF07E8F54A815B819E0147
:1023200041155105B1F7E901FB83EA8349915991C0
:10233000C40FD51FEC17FD0761F4808191810296CF
:10234000840F951FE90199838883828193819B8300
:102350008A83F0E0E0E012968D919C9113970097AC
:10236000B9F52D913C911197CD010296820F931FE3
:1023700020915604309157042817390739F63097C1
:1023800051F51092590410925804B0935704A09339
:102390005604BCCFD383C28340815181840F951FE3
:1023A000C817D90761F44E5F5F4F88819981480F44
:1023B000591F518340838A819B8193838283211596
:1023C000310509F0B0CFF0935904E09358049ECF43
:1023D000FD01DC01C0CF13821282D7CF4F925F92F2
:1023E0006F927F928F929F92AF92BF92CF92DF9225
:1023F000EF92FF920F931F93CF93DF938C0100977F
:1024000099F4CB01DF91CF911F910F91FF90EF9045
:10241000DF90CF90BF90AF909F908F907F906F9004
:102420005F904F900C94C910FC01E60FF71F9C01C0
:1024300022503109E217F30708F4AEC0D901CD915B
:10244000DC911197C617D70720F1C530D10578F078
:10245000CE0104978617970750F0C61BD70B22971B
:10246000C193D1936D937C93CF010E946511C801F4
:10247000DF91CF911F910F91FF90EF90DF90CF9060
:10248000BF90AF909F908F907F906F905F904F9094
:1024900008955B01AC1ABD0A4C018C0E9D1EA091E3
:1024A0005804B0915904512C412CF12CE12C109777
:1024B00031F580915604909157048815990509F0DB
:1024C0005CC04616570608F058C0809113029091E0
:1024D0001402009741F48DB79EB7409117025091B6
:1024E0001802841B950BE817F90708F055C0F09304
:1024F0005704E0935604F90171836083B8CF8D913E
:102500009C91119712966C90129713967C9013974A
:10251000A815B90559F56C0142E0C40ED11CCA14C6
:10252000DB0420F1AC014A195B09DA011296159718
:1025300080F06282738251834083D9016D937C93D2
:10254000E114F10471F0D7011396FC93EE93129706
:102550008ECF22968C0F9D1FF90191838083F3010A
:10256000EFCFF0935904E093580481CF48165906F1
:1025700008F42C017D01D3019ACFCB010E94C91030
:102580007C01009749F0AE01B8010E94CF12C8014A
:102590000E94651187016BCF10E000E068CFFB015E
:1025A000DC0102C001900D9241505040D8F70895CF
:1025B000FB01DC0101900D920020E1F7089511E08C
:1025C000C7E4D1E000E006C0802FFE010E94C110E8
:1025D0002196011DC834D10780E00807A9F7F894B7
:0225E000FFCF2B
:1025E2001C1D1E1F20212231323334353637383933
:1025F2002A302300005A04800000000000D205A502
:102602000507067B059E058B057C0500000000CEB4
:10261200028E025D0200000000A507A00107060667
:1026220006507273202A20746F20737461727400D2
:10263200507273202320746F207365740020202051
:102642002046696E697368656400537465703A2048
:10265200002054696D653A20005072732023207463
:102662006F20706175736500456E746572206466D3
:102672006C7420737465703A005072732023207456
:102682006F20656E6400507273202A20746F20756B
:102692006E706175736500507273202A20737461C5
:1026A20072740054696D65203420737465703A2029
:0E26B20000507273202A20746F20726573002E
:00000001FF
