:100000000C9450010C9481010C9481010C94810199
:100010000C9481010C9481010C9481010C94810158
:100020000C9481010C9481010C9481010C94810148
:100030000C9481010C9430060C9481010C94810184
:100040000C9481010C9483060C9481010C94810121
:100050000C9481010C94E2060C9481010C948605A9
:100060000C9481010C94FA050C94D0050C94810138
:100070000C9481010C9481010C9481010C948101F8
:100080000C9481010C9481010C9481010C948101E8
:100090000C9481010C9481010C9481010C948101D8
:1000A0000C9481010C9481010C9481010C948101C8
:1000B0000C9481010C9481010C9481010C948101B8
:1000C0000C9481010C9481010C9481010C948101A8
:1000D0000C9481010C9481010C9481010C94810198
:1000E0000C9481010C948C090C9460090C948C0480
:1000F0000C9484040C9487090C9499040C94670361
:100100000C94BF040C9471090C9482090C94B904EA
:100110000C9445030C946D040C9488040C944A08C8
:100120000C949D040C9459080C9476090C947B094A
:100130000C9417090C9445090C9472040C94400912
:100140000C94C3040C949F030C9456090C949304D0
:100150000C9436030C9467090C94B1040C94AB0412
:100160000C945B090C9409030C9459030C94290911
:100170000C946C090C9451090C9490040C94A704F1
:100180000C94A3040C943B090C94B5040C94EC035C
:100190000C944C0902010000000A0B02090C0D0E20
:1001A0000807030401000000000000000000000038
:1001B000000000000000000000000000000000003F
:1001C00000000012111000000000000000000000FC
:1001D00000000000000000000000000000000022FD
:1001E00000250028002B002E003100340002010001
:1001F00000050108010B0100002100240027002A4E
:10020000002D003000330001010000040107010A45
:100210000105050505070508080808020202020A8B
:100220000A08080404040401010101010101010399
:1002300003030303030303040707070C0C0C0C0C54
:100240000C0C0C0202020206060606060606060B47
:100250000B0B0B0B0B0B0B010210202008081020BE
:100260004010204080020102010804020101020442
:100270000810204080804020100804020180040201
:100280000180402010080402010804020101020458
:1002900008102040800102040810204080008C09D2
:1002A00011241FBECFEFD1E2DEBFCDBF00E00CBFF7
:1002B00012E0A0E0B2E0EAE6F6E100E00BBF02C027
:1002C00007900D92A433B107D9F722E0A4E3B2E07E
:1002D00001C01D92AF3FB207E1F711E0C0E5D1E0E8
:1002E00000E006C021970109802FFE010E94090B42
:1002F000CF34D10780E00807A9F70E9441070C948A
:10030000330B0C94000090E0FC01E95AFD4F24915E
:100310008F5E9D4FFC018491882399F090E0880FB7
:10032000991FFC01E950FE4FA591B491FC01E352E5
:10033000FE4F859194918FB7F894EC91E22BEC935A
:100340008FBF08958F929F92AF92BF92CF92DF920C
:10035000EF92FF921F93CF93DF93EC016B018881A3
:100360000E9483011981F12CE12C812F8D7F09F0EE
:10037000FEC060E072E18AE790E0A70196010E946A
:10038000EA0A49015A01DA01C9010197A109B10933
:100390008F3F9105A105B10509F00CF4B8C060E4E8
:1003A00072E48FE090E0A70196010E94EA0A2150D2
:1003B000310941095109123009F06AC082E02F3F2A
:1003C00031054105510509F00CF45BC060E970EDA1
:1003D00083E090E0A70196010E94EA0A21503109CA
:1003E0004109510983E02F3F31054105510509F0CD
:1003F0000CF447C068E478EE81E090E0A701960134
:100400000E94EA0A215031094109510984E02F3F35
:10041000310541055105A9F1A4F164E274EF80E0D2
:1004200090E0A70196010E94EA0A21503109410992
:10043000510985E02F3F31054105510511F108F1C2
:1004400062E17AE780E090E0A70196010E94EA0A63
:10045000215031094109510986E02F3F31054105FD
:10046000510579F070F08AE0B594A7949794879439
:100470008A95D1F7A501940121503109410951090B
:1004800087E09091B100987F892B8093B10047C09D
:100490002F3F31054105510509F00CF466C068E4B1
:1004A00078EE81E090E0A70196010E94EA0A2150CF
:1004B00031094109510984E01111BCCF83E02F3F7C
:1004C00031054105510539F134F162E17AE780E007
:1004D00090E0A70196010E94EA0A215031094109E2
:1004E000510984E02F3F310541055105A1F098F0F5
:1004F0009AE0B594A794979487949A95D1F7A5011B
:100500009401215031094109510985E004C09C0141
:1005100081E01111B6CF95B5987F892B85BD898172
:10052000813009F44EC0823009F460C0811111C0DD
:1005300027BD8FEF9FEFDC018093FB029093FC02BD
:10054000A093FD02B093FE0280916E0082608093C2
:100550006E00DF91CF911F91FF90EF90DF90CF90D1
:10056000BF90AF909F908F90089582E0D2CF60E0CF
:1005700072E18AE790E0A70196010E94EA0A215001
:1005800031094109510991E02115310581E0480700
:1005900051056CF068E478EE81E090E0A7019601E7
:1005A0000E94EA0A215031094109510993E01130B2
:1005B00009F0B5CF80918100887F892B80938100DD
:1005C000AECF30938900209388008FEF9FEFDC013E
:1005D0008093F7029093F802A093F902B093FA0285
:1005E00080916F00826080936F00B3CF2093B3003F
:1005F0008FEF9FEFDC018093F3029093F402A093BE
:10060000F502B093F60280917000826080937000D2
:10061000A0CFAF92BF92CF92DF92EF92FF920F9353
:100620001F93CF93DF936C017B018B01040F151F88
:10063000EB015E01AE18BF08C017D10759F06991F0
:10064000D601ED91FC910190F081E02DC601199544
:10065000892B79F7C501DF91CF911F910F91FF9001
:10066000EF90DF90CF90BF90AF900895FC01538D35
:10067000448D252F30E0842F90E0821B930B54177C
:1006800010F0CF96089501970895FC01918D828D09
:10069000981761F0A28DAE0FBF2FB11D5D968C91A2
:1006A000928D9F5F9F73928F90E008958FEF9FEFE1
:1006B0000895FC01918D828D981731F0828DE80F9D
:1006C000F11D858D90E008958FEF9FEF0895FC0157
:1006D000918D228D892F90E0805C9F4F821B910924
:1006E0008F73992708958DE492E00E94670321E0BB
:1006F000892B09F420E0822F0895FC01A48DA80F16
:10070000B92FB11DA35ABF4F2C91848D90E0019653
:100710008F739927848FA689B7892C93A089B18973
:100720008C91837080648C93938D848D981306C014
:100730000288F389E02D80818F7D80830895EF9278
:10074000FF920F931F93CF93DF93EC0181E0888F8B
:100750009B8D8C8D98131AC0E889F989808185FF5B
:1007600015C09FB7F894EE89FF896083E889F989FD
:1007700080818370806480839FBF81E090E0DF91FF
:10078000CF911F910F91FF90EF900895F62E0B8D52
:1007900010E00F5F1F4F0F731127E02E8C8D8E110D
:1007A0000CC00FB607FCFACFE889F989808185FF74
:1007B000F5CFCE010E947D03F1CFEB8DEC0FFD2F25
:1007C000F11DE35AFF4FF0829FB7F8940B8FEA892F
:1007D000FB8980818062CFCFCF93DF93EC01888D3E
:1007E0008823B9F0AA89BB89E889F9898C9185FDAC
:1007F00003C0808186FD0DC00FB607FCF7CF8C913A
:1008000085FFF2CF808185FFEDCFCE010E947D0371
:10081000E9CFDF91CF91089580E090E0892B29F016
:100820000E94730381110E94000080E090E0892BF8
:1008300049F080E090E0892B29F00E9400008111AE
:100840000E94000080E090E0892B49F080E090E079
:10085000892B29F00E94000081110E94000080E095
:1008600090E0892B49F080E090E0892B29F00E94EC
:10087000000081110C9400000895282F30E0F90148
:10088000E956FE4F9491F901E95AFD4F44912F5ECC
:100890003D4FF9012491222309F435C0992311F128
:1008A00091509231F8F4E92FF0E08827E55AFB4F98
:1008B0008F4F0C94090B8C0490046D0484048804FD
:1008C0007204930499049D04A304A704AB04B10427
:1008D000B5047204B904BF04C304809180008F770B
:1008E00080938000E22FF0E0EE0FFF1FE352FE4FF7
:1008F000A591B4918FB7F894EC91611148C04095DF
:100900004E234C938FBF0895809180008F7DE8CF58
:1009100080918000877FE4CF84B58F7784BDE2CF5C
:1009200084B58F7DFBCF8091B0008F778093B0002E
:10093000D9CF8091B0008F7DF9CF809190008F77D3
:1009400080939000CFCF809190008F7DF9CF8091E0
:100950009000877FF5CF8091A0008F778093A000D3
:10096000C1CF8091A0008F7DF9CF8091A000877FBB
:10097000F5CF809120018F7780932001B3CF8091B4
:1009800020018F7DF9CF80912001877FF5CF4E2BFD
:10099000B8CF90917B00977F90937B0086538064C3
:1009A00080937C0080917A00806480937A008091AB
:1009B0007A0086FDFCCF80917800909179000895AF
:1009C000FC019181913069F0923089F0911105C05C
:1009D00090916E009D7F90936E0060E080810C94FA
:1009E0003D0490916F009D7F90936F00F6CF9091A2
:1009F00070009D7F90937000F0CFDC0180913D02EC
:100A0000833008F07FC06C93E82FF0E0EC56FE4F87
:100A1000E4911196EC9311978F5F80933D02E13042
:100A200029F120F0E23009F447C0089514BC15BC48
:100A300084B5826084BD85B5816085BD8C9190E070
:100A4000FC01EF5EFD4FE491F0E0EE0FFF1FE3527B
:100A5000FE4F2591349130933C0220933B02FC01E0
:100A6000E95AFD4FE491E0933A0208951092800014
:100A70001092810080918100886080938100809134
:100A800081008160809381008C9190E0FC01EF5E99
:100A9000FD4FE491F0E0EE0FFF1FE352FE4F259172
:100AA00034913093390220933802FC01E95AFD4F0A
:100AB000E491E093370208951092B0001092B100D3
:100AC0008091B00082608093B0008091B10081601D
:100AD0008093B1008C9190E0FC01EF5EFD4FE491BA
:100AE000F0E0EE0FFF1FE352FE4F2591349130935B
:100AF000360220933502FC01E95AFD4FE491E09360
:100B0000340208958FEF11968C9308951F920F92DF
:100B10000FB60F9211242F933F938F939F93AF9310
:100B2000BF938091EF029091F002A091F102B091F9
:100B3000F2023091EE0223E0230F2D3758F5019693
:100B4000A11DB11D2093EE028093EF029093F0025D
:100B5000A093F102B093F2028091EA029091EB022D
:100B6000A091EC02B091ED020196A11DB11D809300
:100B7000EA029093EB02A093EC02B093ED02BF91D6
:100B8000AF919F918F913F912F910F900FBE0F903A
:100B90001F90189526E8230F0296A11DB11DD2CFF4
:100BA0001F920F920FB60F9211240BB60F922F9334
:100BB0003F934F935F936F937F938F939F93AF93E5
:100BC000BF93EF93FF938DE492E00E947D03FF912A
:100BD000EF91BF91AF919F918F917F916F915F91B5
:100BE0004F913F912F910F900BBE0F900FBE0F9022
:100BF0001F9018951F920F920FB60F9211240BB6EB
:100C00000F922F938F939F93EF93FF93E0915D0249
:100C1000F0915E028081E0916302F091640282FDB6
:100C20001DC09081809166028F5F8F732091670253
:100C3000821741F0E0916602F0E0E35BFD4F958F93
:100C400080936602FF91EF919F918F912F910F906A
:100C50000BBE0F900FBE0F901F9018958081F2CFA2
:100C60001F920F920FB60F9211240BB60F922F9373
:100C70003F938F939F93AF93BF93EF93FF93809195
:100C8000F3029091F402A091F502B091F602009760
:100C9000A105B10541F130913402E0913502F091A6
:100CA0003602208123272083181619061A061B06F0
:100CB0001CF40197A109B1098093F3029093F40207
:100CC000A093F502B093F602FF91EF91BF91AF911F
:100CD0009F918F913F912F910F900BBE0F900FBE60
:100CE0000F901F901895209170002D7F2093700019
:100CF00020913402E0913502F09136023081209546
:100D000023232083D9CF1F920F920FB60F92112465
:100D10000BB60F928F939F93AF93BF93EF93FF9375
:100D20008091F7029091F802A091F902B091FA0235
:100D3000892B8A2B8B2BB1F190913702E0913802ED
:100D4000F09139028081892780838091F702909108
:100D5000F802A091F902B091FA02181619061A06C3
:100D60001B069CF48091F7029091F802A091F90281
:100D7000B091FA020197A109B1098093F70290930B
:100D8000F802A093F902B093FA02FF91EF91BF919C
:100D9000AF919F918F910F900BBE0F900FBE0F9050
:100DA0001F90189580916F008D7F80936F008091C8
:100DB0003702E0913802F0913902908180958923C1
:100DC0008083E3CF1F920F920FB60F9211240BB6C0
:100DD0000F928F939F93AF93BF93EF93FF93809165
:100DE000FB029091FC02A091FD02B091FE02892BC2
:100DF0008A2B8B2BB1F190913A02E0913B02F0915A
:100E00003C028081892780838091FB029091FC02C3
:100E1000A091FD02B091FE02181619061A061B06D3
:100E20009CF48091FB029091FC02A091FD02B09194
:100E3000FE020197A109B1098093FB029093FC0285
:100E4000A093FD02B093FE02FF91EF91BF91AF918D
:100E50009F918F910F900BBE0F900FBE0F901F9020
:100E6000189580916E008D7F80936E0080913A027C
:100E7000E0913B02F0913C02908180958923808330
:100E8000E3CF789484B5826084BD84B5816084BDED
:100E900085B5826085BD85B5816085BD80916E0018
:100EA000816080936E001092810080918100826049
:100EB0008093810080918100816080938100809186
:100EC00080008160809380008091B1008460809375
:100ED000B1008091B00081608093B000809191005A
:100EE0008260809391008091910081608093910055
:100EF000809190008160809390008091A100826039
:100F00008093A1008091A10081608093A1008091D5
:100F1000A00081608093A000809121018260809375
:100F20002101809121018160809321018091200124
:100F300081608093200180917A00846080937A00A0
:100F400080917A00826080937A0080917A0081603B
:100F500080937A0080917A00806880937A00109262
:100F6000C100E0915D02F0915E0282E08083E09139
:100F70005902F0915A021082E0915B02F0915C02FA
:100F80008FEC808310926502E0916102F091620221
:100F900086E08083E0915F02F09160028081806151
:100FA0008083E0915F02F09160028081886080839D
:100FB000E0915F02F0916002808180688083E0911F
:100FC0005F02F091600280818F7D80838DE00E94BE
:100FD00083018CE00E9483018BE00E94830168E022
:100FE00088E492E00E94FD0469E086E492E00E94B9
:100FF000FD046AE084E492E00E94FD0404E010E055
:1010000033E0E32EF12CCC24C394D12CBB24B39435
:101010008DE492E00E946703181619060CF0FDC0DB
:101020008DE492E00E944503C82F682F8DE492E082
:101030000E949F0342E050E060E372E08DE492E0A2
:101040000E940903EFE9EC0FEA3108F032C00E2EDE
:10105000000CFF0B8827E05DF74F8F4F0C94090BB6
:10106000560987097B096009450967096C09590810
:101070005908590817095908290959084A085908E7
:101080003B094C095B095109590882094009760955
:101090005908710980914A02882309F4C1C010924D
:1010A0004A0260E08DE00E943D0488E492E00E94E4
:1010B000E00480914A028823C1F186E30E94C904BA
:1010C000EC018091490287FD30C0E0913E02F09131
:1010D0003F02EE0FFF1FEE5EFD4F60817181072E14
:1010E000000C880B990B0E94F1092B013C01BE01F9
:1010F000DD0F880B990B0E94F10920E030E040E001
:101100005BE30E94550A9B01AC01C301B2010E943E
:10111000550A20E030E040E850E40E94550A0E9461
:10112000B90988E492E00E94A20180914B028823D1
:10113000C1F187E30E94C904EC018091470287FD59
:1011400030C0E0914002F0914102EE0FFF1FE45EDB
:10115000FD4F60817181072E000C880B990B0E9456
:10116000F1092B013C01BE01DD0F880B990B0E9498
:10117000F10920E030E040E05BE30E94550A9B016A
:10118000AC01C301B2010E94550A20E030E040E802
:1011900050E40E94550A0E94B90986E492E00E9438
:1011A000A20180914C028823C1F188E30E94C90406
:1011B000EC018091450287FD30C0E0914202F09140
:1011C0004302EE0FFF1FEA5DFD4F60817181072E24
:1011D000000C880B990B0E94F1092B013C01BE0108
:1011E000DD0F880B990B0E94F10920E030E040E010
:1011F0005BE30E94550A9B01AC01C301B2010E944E
:10120000550A20E030E040E850E40E94550A0E9470
:10121000B90984E492E00E94A2010E940C04F8CE75
:10122000B0924A0261E08DE00E943D0442CF80917D
:101230004B02882349F010924B0260E08CE00E9440
:101240003D0486E492E033CFB0924B0261E08CE043
:10125000EBCF80914C02882349F010924C0260E061
:101260008BE00E943D0484E492E021CFB0924C02D6
:1012700061E08BE0D9CF10923F0210923E0219CF6D
:10128000D0923F02C0923E0214CF82E090E0909351
:101290003F0280933E020DCFF0923F02E0923E0269
:1012A00008CF10933F0200933E0203CF10924102F9
:1012B00010924002FECED0924102C0924002F9CE7E
:1012C00082E090E09093410280934002F2CEF0924F
:1012D0004102E0924002EDCE1093410200934002A1
:1012E000E8CE1092430210924202E3CED092430223
:1012F000C0924202DECE82E090E09093430280935F
:101300004202D7CEF0924302E0924202D2CE109334
:10131000430200934202CDCEEDE4F2E0138212824A
:1013200088EE93E0A0E0B0E084839583A683B78342
:1013300084E092E09183808385EC90E095878487B8
:1013400084EC90E09787868780EC90E0918B808B8F
:1013500081EC90E0938B828B82EC90E0958B848B78
:1013600086EC90E0978B868B118E128E138E148EE6
:1013700008950E94C0096894B1110C944F0A089511
:101380000E94340A88F09F5798F0B92F9927B751D7
:10139000B0F0E1F0660F771F881F991F1AF0BA9519
:1013A000C9F714C0B13091F00E944E0AB1E008951F
:1013B0000C944E0A672F782F8827B85F39F0B93F11
:1013C000CCF3869577956795B395D9F73EF49095CC
:1013D0008095709561957F4F8F4F9F4F0895E8944A
:1013E00009C097FB3EF490958095709561957F4F6D
:1013F0008F4F9F4F9923A9F0F92F96E9BB2793951B
:10140000F695879577956795B795F111F8CFFAF42A
:10141000BB0F11F460FF1BC06F5F7F4F8F4F9F4F5B
:1014200016C0882311F096E911C0772321F09EE8B9
:10143000872F762F05C0662371F096E8862F70E01F
:1014400060E02AF09A95660F771F881FDAF7880FF9
:101450009695879597F9089557FD9058440F551F15
:1014600059F05F3F71F04795880F97FB991F61F026
:101470009F3F79F087950895121613061406551F9D
:10148000F2CF4695F1DF08C0161617061806991F09
:10149000F1CF86957105610508940895E894BB27FE
:1014A00066277727CB0197F908950E94680A0C9464
:1014B000D90A0E94CB0A38F00E94D20A20F0952364
:1014C00011F00C94C20A0C94C80A11240C944F0A0F
:1014D0000E942C0A70F3959FC1F3950F50E0551FA1
:1014E000629FF001729FBB27F00DB11D639FAA2779
:1014F000F00DB11DAA1F649F6627B00DA11D661FC8
:10150000829F2227B00DA11D621F739FB00DA11DE8
:10151000621F839FA00D611D221F749F3327A00DA2
:10152000611D231F849F600D211D822F762F6A2F3E
:1015300011249F5750409AF0F1F088234AF0EE0FA3
:10154000FF1FBB1F661F771F881F91505040A9F7D0
:101550009E3F510580F00C94C20A0C944F0A5F3FE5
:10156000E4F3983ED4F3869577956795B795F7950C
:10157000E7959F5FC1F7FE2B880F911D9695879584
:1015800097F9089597F99F6780E870E060E0089503
:101590009FEF80EC089500240A941616170618068B
:1015A0000906089500240A94121613061406050667
:1015B0000895092E0394000C11F4882352F0BB0FF8
:1015C00040F4BF2B11F460FF04C06F5F7F4F8F4F5B
:1015D0009F4F0895052E97FB1EF400940E94010B67
:1015E00057FD07D00E94110B07FC03D04EF40C945A
:1015F000010B50954095309521953F4F4F4F5F4FD0
:10160000089590958095709561957F4F8F4F9F4F6E
:101610000895EE0FFF1F881F8BBF0790F691E02DF6
:101620001994A1E21A2EAA1BBB1BFD010DC0AA1F13
:10163000BB1FEE1FFF1FA217B307E407F50720F03B
:10164000A21BB30BE40BF50B661F771F881F991FB6
:101650001A9469F760957095809590959B01AC01FF
:0A166000BD01CF010895F894FFCFFB
:10166A00000000009F0309033603EC0367034503E8
:10167A0059032C002E003100340037004100450088
:10168A0049004E005200D000DC00E900F700830058
:04169A000D0A000035
:00000001FF
